{
  "address": "0xBB68127828C14837Ef8fbD000464772188593F28",
  "abi": [
    {
      "inputs": [
        {
          "internalType": "string",
          "name": "input",
          "type": "string"
        }
      ],
      "name": "isAz09Dash",
      "outputs": [
        {
          "internalType": "bool",
          "name": "",
          "type": "bool"
        }
      ],
      "stateMutability": "pure",
      "type": "function"
    },
    {
      "inputs": [],
      "name": "regex",
      "outputs": [
        {
          "internalType": "string",
          "name": "",
          "type": "string"
        }
      ],
      "stateMutability": "view",
      "type": "function"
    }
  ],
  "transactionHash": "0xcde0a6684ecfbd2d1e390fd449365d4eeeca16f0fa4b7401e61ece959d23ad10",
  "args": [],
  "numDeployments": 1,
  "solcInputHash": "d22938b71b0d71821e6f5ec545c6c4fa",
  "bytecode": "0x6103b361003a600b82828239805160001a60731461002d57634e487b7160e01b600052600060045260246000fd5b30600052607381538281f3fe73000000000000000000000000000000000000000030146080604052600436106100405760003560e01c806355e79d29146100455780637b7acf8914610088575b600080fd5b6100726040518060400160405280600e81526020016d5b612d7a412d5a302d395c2d5d2b60901b81525081565b60405161007f919061020c565b60405180910390f35b61009b610096366004610277565b6100ab565b604051901515815260200161007f565b60408051808201909152600080825261011e602083015290815b83518110156101165760008482815181106100e2576100e2610328565b602001015160f81c60f81b905061010081846020015163ffffffff16565b925050808061010e9061033e565b9150506100c5565b505192915050565b6040805180820190915260008152610202602082015260f882901c602d81148061015b575060308160ff161015801561015b575060398160ff1611155b80610179575060418160ff16101580156101795750605a8160ff1611155b80610197575060618160ff16101580156101975750607a8160ff1611155b156101b9575050604080518082019091526001815261011e6020820152919050565b505060408051808201909152600081526101d66020820152919050565b506040805180820182526000808252610202602092830152825180840190935282526101d69082015290565b61020a610367565b565b600060208083528351808285015260005b818110156102395785810183015185820160400152820161021d565b8181111561024b576000604083870101525b50601f01601f1916929092016040019392505050565b634e487b7160e01b600052604160045260246000fd5b60006020828403121561028957600080fd5b813567ffffffffffffffff808211156102a157600080fd5b818401915084601f8301126102b557600080fd5b8135818111156102c7576102c7610261565b604051601f8201601f19908116603f011681019083821181831017156102ef576102ef610261565b8160405282815287602084870101111561030857600080fd5b826020860160208301376000928101602001929092525095945050505050565b634e487b7160e01b600052603260045260246000fd5b600060001982141561036057634e487b7160e01b600052601160045260246000fd5b5060010190565b634e487b7160e01b600052605160045260246000fdfea2646970667358221220539a817d0047b79fc59e961a84cd8dda9150f6df90e544d9466ab365390ef14964736f6c63430008090033",
  "devdoc": {
    "kind": "dev",
    "methods": {},
    "version": 1
  },
  "userdoc": {
    "kind": "user",
    "methods": {},
    "version": 1
  },
  "storageLayout": {
    "storage": [],
    "types": null
  }
}