{
  "address": "0x0114AE41C345705ce62Fce6bE757976324E640Ac",
  "abi": [
    {
      "inputs": [
        {
          "internalType": "address",
          "name": "registry_",
          "type": "address"
        },
        {
          "internalType": "address",
          "name": "signer_",
          "type": "address"
        }
      ],
      "stateMutability": "nonpayable",
      "type": "constructor"
    },
    {
      "anonymous": false,
      "inputs": [
        {
          "indexed": false,
          "internalType": "uint8",
          "name": "version",
          "type": "uint8"
        }
      ],
      "name": "Initialized",
      "type": "event"
    },
    {
      "anonymous": false,
      "inputs": [
        {
          "indexed": false,
          "internalType": "address",
          "name": "tokenAddress",
          "type": "address"
        },
        {
          "indexed": false,
          "internalType": "uint256",
          "name": "tokenId",
          "type": "uint256"
        }
      ],
      "name": "TokenListed",
      "type": "event"
    },
    {
      "inputs": [],
      "name": "SListTokenCallTypeHash",
      "outputs": [
        {
          "internalType": "bytes32",
          "name": "",
          "type": "bytes32"
        }
      ],
      "stateMutability": "view",
      "type": "function"
    },
    {
      "inputs": [],
      "name": "VERSION",
      "outputs": [
        {
          "internalType": "string",
          "name": "",
          "type": "string"
        }
      ],
      "stateMutability": "view",
      "type": "function"
    },
    {
      "inputs": [],
      "name": "domainSeparator",
      "outputs": [
        {
          "internalType": "bytes32",
          "name": "",
          "type": "bytes32"
        }
      ],
      "stateMutability": "view",
      "type": "function"
    },
    {
      "inputs": [],
      "name": "domainSeparatorV4",
      "outputs": [
        {
          "internalType": "bytes32",
          "name": "",
          "type": "bytes32"
        }
      ],
      "stateMutability": "view",
      "type": "function"
    },
    {
      "inputs": [
        {
          "internalType": "bytes32",
          "name": "",
          "type": "bytes32"
        }
      ],
      "name": "executedMap",
      "outputs": [
        {
          "internalType": "bool",
          "name": "",
          "type": "bool"
        }
      ],
      "stateMutability": "view",
      "type": "function"
    },
    {
      "inputs": [],
      "name": "initialize",
      "outputs": [],
      "stateMutability": "nonpayable",
      "type": "function"
    },
    {
      "inputs": [
        {
          "internalType": "bytes32",
          "name": "interactionId",
          "type": "bytes32"
        }
      ],
      "name": "isExecuted",
      "outputs": [
        {
          "internalType": "bool",
          "name": "",
          "type": "bool"
        }
      ],
      "stateMutability": "view",
      "type": "function"
    },
    {
      "inputs": [
        {
          "components": [
            {
              "internalType": "address",
              "name": "tokenAddress",
              "type": "address"
            },
            {
              "internalType": "uint256",
              "name": "tokenId",
              "type": "uint256"
            },
            {
              "internalType": "uint96",
              "name": "royalties",
              "type": "uint96"
            },
            {
              "internalType": "bytes32",
              "name": "interactionId",
              "type": "bytes32"
            },
            {
              "internalType": "address",
              "name": "from",
              "type": "address"
            }
          ],
          "internalType": "struct ListHelperUpgradeable.SListTokenCall",
          "name": "req",
          "type": "tuple"
        },
        {
          "internalType": "bytes",
          "name": "signature",
          "type": "bytes"
        }
      ],
      "name": "listFileToken",
      "outputs": [],
      "stateMutability": "nonpayable",
      "type": "function"
    },
    {
      "inputs": [],
      "name": "signWallet",
      "outputs": [
        {
          "internalType": "address",
          "name": "",
          "type": "address"
        }
      ],
      "stateMutability": "view",
      "type": "function"
    },
    {
      "inputs": [
        {
          "components": [
            {
              "internalType": "address",
              "name": "tokenAddress",
              "type": "address"
            },
            {
              "internalType": "uint256",
              "name": "tokenId",
              "type": "uint256"
            },
            {
              "internalType": "uint96",
              "name": "royalties",
              "type": "uint96"
            },
            {
              "internalType": "bytes32",
              "name": "interactionId",
              "type": "bytes32"
            },
            {
              "internalType": "address",
              "name": "from",
              "type": "address"
            }
          ],
          "internalType": "struct ListHelperUpgradeable.SListTokenCall",
          "name": "req",
          "type": "tuple"
        },
        {
          "internalType": "bytes",
          "name": "signature",
          "type": "bytes"
        }
      ],
      "name": "verifyListTokenCall",
      "outputs": [
        {
          "internalType": "bool",
          "name": "",
          "type": "bool"
        }
      ],
      "stateMutability": "view",
      "type": "function"
    }
  ],
  "transactionHash": "0x14da6b910509ee56319a29a1ab675ade8ed8e6d8a73c00e22995bcff36f177ae",
  "args": [
    "0x8a52bE94F56564ab6D0ADc7e402A582C19795272",
    "0x990ff3C0767ffA9192C88B2Cdc7fB50E5209EEf4"
  ],
  "numDeployments": 1,
  "solcInputHash": "d22938b71b0d71821e6f5ec545c6c4fa",
  "bytecode": "0x60c060405234801561001057600080fd5b50604051610e74380380610e7483398101604081905261002f91610062565b6001600160a01b039182166080521660a052610095565b80516001600160a01b038116811461005d57600080fd5b919050565b6000806040838503121561007557600080fd5b61007e83610046565b915061008c60208401610046565b90509250929050565b60805160a051610dad6100c76000396000818160ed015261055e015260008181610261015261030e0152610dad6000f3fe608060405234801561001057600080fd5b506004361061009e5760003560e01c80638fe69b18116100665780638fe69b1814610135578063e52cb36a1461015c578063f698da2514610117578063f9aebda01461017f578063ffa1ad74146101a257600080fd5b80630ce6b470146100a35780633633638e146100b85780634ce74859146100e057806378e890ba146101175780638129fc1c1461012d575b600080fd5b6100b66100b1366004610b63565b6101d3565b005b6100cb6100c6366004610b63565b610490565b60405190151581526020015b60405180910390f35b6040516001600160a01b037f00000000000000000000000000000000000000000000000000000000000000001681526020016100d7565b61011f61058a565b6040519081526020016100d7565b6100b6610599565b61011f7f7bcd8795220d268028036d9c6942d40a3f736c3c43cf25050a97db0225a4525981565b6100cb61016a366004610c2d565b60009081526035602052604090205460ff1690565b6100cb61018d366004610c2d565b60356020526000908152604090205460ff1681565b6101c660405180604001604052806005815260200164181718171960d91b81525081565b6040516100d79190610c46565b6101dd8282610490565b61023f5760405162461bcd60e51b815260206004820152602860248201527f4c69737448656c7065725570677261646561626c653a20494e56414c49445f5360448201526749474e415455524560c01b60648201526084015b60405180910390fd5b600061024e6020840184610c9b565b60601b6001600160601b031916905060007f00000000000000000000000000000000000000000000000000000000000000006001600160a01b031663ad0aa0e4836040518263ffffffff1660e01b81526004016102ad91815260200190565b60206040518083038186803b1580156102c557600080fd5b505afa1580156102d9573d6000803e3d6000fd5b505050506040513d601f19601f820116820180604052508101906102fd9190610ccb565b9050806103a1576001600160a01b037f000000000000000000000000000000000000000000000000000000000000000016635188f996836103416020880188610c9b565b6040516001600160e01b031960e085901b16815260048101929092526001600160a01b03166024820152604401600060405180830381600087803b15801561038857600080fd5b505af115801561039c573d6000803e3d6000fd5b505050505b60006103b06020860186610c9b565b90506001600160a01b038116635bddceab60208701356103d66060890160408a01610ced565b6040516001600160e01b031960e085901b16815260048101929092526001600160601b03166024820152604401600060405180830381600087803b15801561041d57600080fd5b505af1158015610431573d6000803e3d6000fd5b507f252e0864c3c3e0062044056bdcb38cb8949574a594be507fdebe92cd20a2394792506104659150506020870187610c9b565b604080516001600160a01b039092168252602080890135908301520160405180910390a15050505050565b6000806105548361054e7f7bcd8795220d268028036d9c6942d40a3f736c3c43cf25050a97db0225a452596104c86020890189610c9b565b60208901356104dd60608b0160408c01610ced565b60608b01356104f260a08d0160808e01610c9b565b6040805160208101979097526001600160a01b039586169087015260608601939093526001600160601b03909116608085015260a08401521660c082015260e001604051602081830303815290604052805190602001206106f6565b9061074a565b6001600160a01b037f00000000000000000000000000000000000000000000000000000000000000008116911614949350505050565b600061059461076e565b905090565b600054610100900460ff16158080156105b95750600054600160ff909116105b806105d35750303b1580156105d3575060005460ff166001145b6106365760405162461bcd60e51b815260206004820152602e60248201527f496e697469616c697a61626c653a20636f6e747261637420697320616c72656160448201526d191e481a5b9a5d1a585b1a5e995960921b6064820152608401610236565b6000805460ff191660011790558015610659576000805461ff0019166101001790555b6106ad604051806040016040528060158152602001744c69737448656c7065725570677261646561626c6560581b81525060405180604001604052806005815260200164181718171960d91b8152506107e9565b80156106f3576000805461ff0019169055604051600181527f7f26b83ff96e1f2b6a682f133852f6798a09c465da95921460cefb38474024989060200160405180910390a15b50565b600061074461070361076e565b8360405161190160f01b6020820152602281018390526042810182905260009060620160405160208183030381529060405280519060200120905092915050565b92915050565b6000806000610759858561081e565b9150915061076681610864565b509392505050565b60006105947f8b73c3c69bb8fe3d512ecc4cf759cc79239f7b179b0ffacaa9a75d522b39400f61079d60015490565b6002546040805160208101859052908101839052606081018290524660808201523060a082015260009060c0016040516020818303038152906040528051906020012090509392505050565b600054610100900460ff166108105760405162461bcd60e51b815260040161023690610d16565b61081a8282610a1f565b5050565b6000808251604114156108555760208301516040840151606085015160001a61084987828585610a60565b9450945050505061085d565b506000905060025b9250929050565b600081600481111561087857610878610d61565b14156108815750565b600181600481111561089557610895610d61565b14156108e35760405162461bcd60e51b815260206004820152601860248201527f45434453413a20696e76616c6964207369676e617475726500000000000000006044820152606401610236565b60028160048111156108f7576108f7610d61565b14156109455760405162461bcd60e51b815260206004820152601f60248201527f45434453413a20696e76616c6964207369676e6174757265206c656e677468006044820152606401610236565b600381600481111561095957610959610d61565b14156109b25760405162461bcd60e51b815260206004820152602260248201527f45434453413a20696e76616c6964207369676e6174757265202773272076616c604482015261756560f01b6064820152608401610236565b60048160048111156109c6576109c6610d61565b14156106f35760405162461bcd60e51b815260206004820152602260248201527f45434453413a20696e76616c6964207369676e6174757265202776272076616c604482015261756560f01b6064820152608401610236565b600054610100900460ff16610a465760405162461bcd60e51b815260040161023690610d16565b815160209283012081519190920120600191909155600255565b6000807f7fffffffffffffffffffffffffffffff5d576e7357a4501ddfe92f46681b20a0831115610a975750600090506003610b44565b8460ff16601b14158015610aaf57508460ff16601c14155b15610ac05750600090506004610b44565b6040805160008082526020820180845289905260ff881692820192909252606081018690526080810185905260019060a0016020604051602081039080840390855afa158015610b14573d6000803e3d6000fd5b5050604051601f1901519150506001600160a01b038116610b3d57600060019250925050610b44565b9150600090505b94509492505050565b634e487b7160e01b600052604160045260246000fd5b60008082840360c0811215610b7757600080fd5b60a0811215610b8557600080fd5b5082915060a083013567ffffffffffffffff80821115610ba457600080fd5b818501915085601f830112610bb857600080fd5b813581811115610bca57610bca610b4d565b604051601f8201601f19908116603f01168101908382118183101715610bf257610bf2610b4d565b81604052828152886020848701011115610c0b57600080fd5b8260208601602083013760006020848301015280955050505050509250929050565b600060208284031215610c3f57600080fd5b5035919050565b600060208083528351808285015260005b81811015610c7357858101830151858201604001528201610c57565b81811115610c85576000604083870101525b50601f01601f1916929092016040019392505050565b600060208284031215610cad57600080fd5b81356001600160a01b0381168114610cc457600080fd5b9392505050565b600060208284031215610cdd57600080fd5b81518015158114610cc457600080fd5b600060208284031215610cff57600080fd5b81356001600160601b0381168114610cc457600080fd5b6020808252602b908201527f496e697469616c697a61626c653a20636f6e7472616374206973206e6f74206960408201526a6e697469616c697a696e6760a81b606082015260800190565b634e487b7160e01b600052602160045260246000fdfea26469706673582212200941ff73b29b7c466d4004c6579659b92f57c21e249f409d5a7972405f539ba264736f6c63430008090033",
  "libraries": {
    "ECDSAUpgradeable": "0x3BeF65A066c5FAE84Afa0395DDEC672DD15bed74"
  },
  "devdoc": {
    "kind": "dev",
    "methods": {},
    "version": 1
  },
  "userdoc": {
    "kind": "user",
    "methods": {},
    "version": 1
  },
  "storageLayout": {
    "storage": [
      {
        "astId": 585,
        "contract": "contracts/ListHelperUpgradeable.sol:ListHelperUpgradeable",
        "label": "_initialized",
        "offset": 0,
        "slot": "0",
        "type": "t_uint8"
      },
      {
        "astId": 588,
        "contract": "contracts/ListHelperUpgradeable.sol:ListHelperUpgradeable",
        "label": "_initializing",
        "offset": 1,
        "slot": "0",
        "type": "t_bool"
      },
      {
        "astId": 3455,
        "contract": "contracts/ListHelperUpgradeable.sol:ListHelperUpgradeable",
        "label": "_HASHED_NAME",
        "offset": 0,
        "slot": "1",
        "type": "t_bytes32"
      },
      {
        "astId": 3457,
        "contract": "contracts/ListHelperUpgradeable.sol:ListHelperUpgradeable",
        "label": "_HASHED_VERSION",
        "offset": 0,
        "slot": "2",
        "type": "t_bytes32"
      },
      {
        "astId": 3595,
        "contract": "contracts/ListHelperUpgradeable.sol:ListHelperUpgradeable",
        "label": "__gap",
        "offset": 0,
        "slot": "3",
        "type": "t_array(t_uint256)50_storage"
      },
      {
        "astId": 5266,
        "contract": "contracts/ListHelperUpgradeable.sol:ListHelperUpgradeable",
        "label": "executedMap",
        "offset": 0,
        "slot": "53",
        "type": "t_mapping(t_bytes32,t_bool)"
      }
    ],
    "types": {
      "t_array(t_uint256)50_storage": {
        "base": "t_uint256",
        "encoding": "inplace",
        "label": "uint256[50]",
        "numberOfBytes": "1600"
      },
      "t_bool": {
        "encoding": "inplace",
        "label": "bool",
        "numberOfBytes": "1"
      },
      "t_bytes32": {
        "encoding": "inplace",
        "label": "bytes32",
        "numberOfBytes": "32"
      },
      "t_mapping(t_bytes32,t_bool)": {
        "encoding": "mapping",
        "key": "t_bytes32",
        "label": "mapping(bytes32 => bool)",
        "numberOfBytes": "32",
        "value": "t_bool"
      },
      "t_uint256": {
        "encoding": "inplace",
        "label": "uint256",
        "numberOfBytes": "32"
      },
      "t_uint8": {
        "encoding": "inplace",
        "label": "uint8",
        "numberOfBytes": "1"
      }
    }
  }
}