{
  "address": "0x91eC10F414B2482Ca86C8cC1f3aC75C94b017f4a",
  "abi": [
    {
      "inputs": [
        {
          "internalType": "string",
          "name": "input",
          "type": "string"
        }
      ],
      "name": "isAZ09Space",
      "outputs": [
        {
          "internalType": "bool",
          "name": "",
          "type": "bool"
        }
      ],
      "stateMutability": "pure",
      "type": "function"
    },
    {
      "inputs": [],
      "name": "regex",
      "outputs": [
        {
          "internalType": "string",
          "name": "",
          "type": "string"
        }
      ],
      "stateMutability": "view",
      "type": "function"
    }
  ],
  "transactionHash": "0x2cb58f91822176a9bebd0d539d9d5960f7d2a15e601311932fa97d221a99f1ef",
  "args": [],
  "numDeployments": 1,
  "solcInputHash": "c70ff4ec80f04a46ddc1ee5ab27b9883",
  "bytecode": "0x61041461003a600b82828239805160001a60731461002d57634e487b7160e01b600052600060045260246000fd5b30600052607381538281f3fe73000000000000000000000000000000000000000030146080604052600436106100405760003560e01c806355e79d2914610045578063bac1146414610063575b600080fd5b61004d610086565b60405161005a9190610291565b60405180910390f35b6100766100713660046102e6565b6100a2565b604051901515815260200161005a565b6040518060600160405280603181526020016103ae6031913981565b604080518082019091526000808252610114602083015290815b8381101561010b5760008585838181106100d8576100d8610358565b9050013560f81c60f81b90506100f581846020015163ffffffff16565b92505080806101039061036e565b9150506100bc565b50519392505050565b6040805180820190915260008152610287602082015260f882901c60308110801590610141575060398111155b806101595750604181101580156101595750605a8111155b806101715750606181101580156101715750607a8111155b1561019357505060408051808201909152600181526101b06020820152919050565b5050604080518082019091526000815261025b6020820152919050565b6040805180820190915260008152610287602082015260f882901c60208114806101da575080602d145b156101fc57505060408051808201909152600081526101b06020820152919050565b6030811015801561014157506039811115806101595750604181101580156101595750605a811115806101715750606181101580156101715750607a811161019357505060408051808201909152600181526101b06020820152919050565b5060408051808201825260008082526102876020928301528251808401909352825261025b9082015290565b61028f610397565b565b600060208083528351808285015260005b818110156102be578581018301518582016040015282016102a2565b818111156102d0576000604083870101525b50601f01601f1916929092016040019392505050565b600080602083850312156102f957600080fd5b823567ffffffffffffffff8082111561031157600080fd5b818501915085601f83011261032557600080fd5b81358181111561033457600080fd5b86602082850101111561034657600080fd5b60209290920196919550909350505050565b634e487b7160e01b600052603260045260246000fd5b600060001982141561039057634e487b7160e01b600052601160045260246000fd5b5060010190565b634e487b7160e01b600052605160045260246000fdfe5b412d5a612d7a302d395d5b412d5a612d7a302d39205c2d5d2a5b412d5a612d7a302d395d7c5b412d5a612d7a302d395da26469706673582212202d4d30cb7ae2427b5bd9dc016ac23ac34dea743ca4c19d6b70e3ff9ad9dec2ff64736f6c63430008090033",
  "devdoc": {
    "kind": "dev",
    "methods": {},
    "version": 1
  },
  "userdoc": {
    "kind": "user",
    "methods": {},
    "version": 1
  },
  "storageLayout": {
    "storage": [],
    "types": null
  }
}