{
  "address": "0xB0087CDBE0dd4FD6E40aAa80a0E15640d8089925",
  "abi": [
    {
      "inputs": [
        {
          "internalType": "address",
          "name": "signer_",
          "type": "address"
        },
        {
          "internalType": "address",
          "name": "feeCollector_",
          "type": "address"
        }
      ],
      "stateMutability": "nonpayable",
      "type": "constructor"
    },
    {
      "anonymous": false,
      "inputs": [
        {
          "indexed": false,
          "internalType": "address",
          "name": "contractAddress",
          "type": "address"
        },
        {
          "indexed": false,
          "internalType": "uint256",
          "name": "workspaceId",
          "type": "uint256"
        },
        {
          "indexed": false,
          "internalType": "string",
          "name": "name",
          "type": "string"
        },
        {
          "indexed": false,
          "internalType": "string",
          "name": "description",
          "type": "string"
        }
      ],
      "name": "AddNewFileAccessContract",
      "type": "event"
    },
    {
      "anonymous": false,
      "inputs": [
        {
          "indexed": false,
          "internalType": "uint8",
          "name": "version",
          "type": "uint8"
        }
      ],
      "name": "Initialized",
      "type": "event"
    },
    {
      "anonymous": false,
      "inputs": [
        {
          "indexed": true,
          "internalType": "address",
          "name": "previousOwner",
          "type": "address"
        },
        {
          "indexed": true,
          "internalType": "address",
          "name": "newOwner",
          "type": "address"
        }
      ],
      "name": "OwnershipTransferred",
      "type": "event"
    },
    {
      "inputs": [],
      "name": "SNewFileACCallTypeHash",
      "outputs": [
        {
          "internalType": "bytes32",
          "name": "",
          "type": "bytes32"
        }
      ],
      "stateMutability": "view",
      "type": "function"
    },
    {
      "inputs": [],
      "name": "VERSION",
      "outputs": [
        {
          "internalType": "string",
          "name": "",
          "type": "string"
        }
      ],
      "stateMutability": "view",
      "type": "function"
    },
    {
      "inputs": [
        {
          "internalType": "address",
          "name": "user",
          "type": "address"
        },
        {
          "internalType": "uint256",
          "name": "created",
          "type": "uint256"
        }
      ],
      "name": "addTokensCreated",
      "outputs": [],
      "stateMutability": "nonpayable",
      "type": "function"
    },
    {
      "inputs": [
        {
          "internalType": "address",
          "name": "user",
          "type": "address"
        },
        {
          "internalType": "uint256",
          "name": "minted",
          "type": "uint256"
        }
      ],
      "name": "addTokensMinted",
      "outputs": [],
      "stateMutability": "nonpayable",
      "type": "function"
    },
    {
      "inputs": [],
      "name": "domainSeparator",
      "outputs": [
        {
          "internalType": "bytes32",
          "name": "",
          "type": "bytes32"
        }
      ],
      "stateMutability": "view",
      "type": "function"
    },
    {
      "inputs": [
        {
          "internalType": "bytes32",
          "name": "",
          "type": "bytes32"
        }
      ],
      "name": "executedMap",
      "outputs": [
        {
          "internalType": "bool",
          "name": "",
          "type": "bool"
        }
      ],
      "stateMutability": "view",
      "type": "function"
    },
    {
      "inputs": [],
      "name": "getFeeCollector",
      "outputs": [
        {
          "internalType": "address",
          "name": "",
          "type": "address"
        }
      ],
      "stateMutability": "view",
      "type": "function"
    },
    {
      "inputs": [
        {
          "internalType": "uint256",
          "name": "workspaceId",
          "type": "uint256"
        }
      ],
      "name": "getFileAccessContracts",
      "outputs": [
        {
          "internalType": "address[]",
          "name": "",
          "type": "address[]"
        }
      ],
      "stateMutability": "view",
      "type": "function"
    },
    {
      "inputs": [
        {
          "internalType": "uint256",
          "name": "workspaceId",
          "type": "uint256"
        }
      ],
      "name": "getFileAccessContractsCountWS",
      "outputs": [
        {
          "internalType": "uint256",
          "name": "count",
          "type": "uint256"
        }
      ],
      "stateMutability": "view",
      "type": "function"
    },
    {
      "inputs": [
        {
          "internalType": "address",
          "name": "tokenBeacon_",
          "type": "address"
        }
      ],
      "name": "initialize",
      "outputs": [],
      "stateMutability": "nonpayable",
      "type": "function"
    },
    {
      "inputs": [
        {
          "internalType": "bytes32",
          "name": "interactionId",
          "type": "bytes32"
        }
      ],
      "name": "isExecuted",
      "outputs": [
        {
          "internalType": "bool",
          "name": "",
          "type": "bool"
        }
      ],
      "stateMutability": "view",
      "type": "function"
    },
    {
      "inputs": [
        {
          "internalType": "address",
          "name": "",
          "type": "address"
        }
      ],
      "name": "isFileAccessContract",
      "outputs": [
        {
          "internalType": "bool",
          "name": "",
          "type": "bool"
        }
      ],
      "stateMutability": "view",
      "type": "function"
    },
    {
      "inputs": [
        {
          "components": [
            {
              "internalType": "uint256",
              "name": "workspaceId",
              "type": "uint256"
            },
            {
              "internalType": "string",
              "name": "name",
              "type": "string"
            },
            {
              "internalType": "string",
              "name": "description",
              "type": "string"
            },
            {
              "internalType": "uint256",
              "name": "callCost",
              "type": "uint256"
            },
            {
              "internalType": "bytes32",
              "name": "interactionId",
              "type": "bytes32"
            },
            {
              "internalType": "address",
              "name": "from",
              "type": "address"
            }
          ],
          "internalType": "struct FileAccessCollectionFactoryUpgradeable.SNewFileACCall",
          "name": "req",
          "type": "tuple"
        },
        {
          "internalType": "bytes",
          "name": "signature",
          "type": "bytes"
        }
      ],
      "name": "newFileAccessContract",
      "outputs": [
        {
          "internalType": "address",
          "name": "",
          "type": "address"
        }
      ],
      "stateMutability": "payable",
      "type": "function"
    },
    {
      "inputs": [],
      "name": "owner",
      "outputs": [
        {
          "internalType": "address",
          "name": "",
          "type": "address"
        }
      ],
      "stateMutability": "view",
      "type": "function"
    },
    {
      "inputs": [],
      "name": "renounceOwnership",
      "outputs": [],
      "stateMutability": "nonpayable",
      "type": "function"
    },
    {
      "inputs": [],
      "name": "signWallet",
      "outputs": [
        {
          "internalType": "address",
          "name": "",
          "type": "address"
        }
      ],
      "stateMutability": "view",
      "type": "function"
    },
    {
      "inputs": [],
      "name": "tokenBeacon",
      "outputs": [
        {
          "internalType": "address",
          "name": "",
          "type": "address"
        }
      ],
      "stateMutability": "view",
      "type": "function"
    },
    {
      "inputs": [
        {
          "internalType": "address",
          "name": "",
          "type": "address"
        }
      ],
      "name": "tokensContractsCreatedCount",
      "outputs": [
        {
          "internalType": "uint256",
          "name": "",
          "type": "uint256"
        }
      ],
      "stateMutability": "view",
      "type": "function"
    },
    {
      "inputs": [
        {
          "internalType": "address",
          "name": "",
          "type": "address"
        }
      ],
      "name": "tokensCreatedCount",
      "outputs": [
        {
          "internalType": "uint256",
          "name": "",
          "type": "uint256"
        }
      ],
      "stateMutability": "view",
      "type": "function"
    },
    {
      "inputs": [
        {
          "internalType": "address",
          "name": "",
          "type": "address"
        }
      ],
      "name": "tokensMintedCount",
      "outputs": [
        {
          "internalType": "uint256",
          "name": "",
          "type": "uint256"
        }
      ],
      "stateMutability": "view",
      "type": "function"
    },
    {
      "inputs": [
        {
          "internalType": "address",
          "name": "newOwner",
          "type": "address"
        }
      ],
      "name": "transferOwnership",
      "outputs": [],
      "stateMutability": "nonpayable",
      "type": "function"
    },
    {
      "inputs": [
        {
          "components": [
            {
              "internalType": "uint256",
              "name": "workspaceId",
              "type": "uint256"
            },
            {
              "internalType": "string",
              "name": "name",
              "type": "string"
            },
            {
              "internalType": "string",
              "name": "description",
              "type": "string"
            },
            {
              "internalType": "uint256",
              "name": "callCost",
              "type": "uint256"
            },
            {
              "internalType": "bytes32",
              "name": "interactionId",
              "type": "bytes32"
            },
            {
              "internalType": "address",
              "name": "from",
              "type": "address"
            }
          ],
          "internalType": "struct FileAccessCollectionFactoryUpgradeable.SNewFileACCall",
          "name": "req",
          "type": "tuple"
        },
        {
          "internalType": "bytes",
          "name": "signature",
          "type": "bytes"
        }
      ],
      "name": "verify",
      "outputs": [
        {
          "internalType": "bool",
          "name": "",
          "type": "bool"
        }
      ],
      "stateMutability": "view",
      "type": "function"
    }
  ],
  "transactionHash": "0x30cff3733a7523fa35820ac4f003dd2b16c954808c932d6d6dd19d34e7d2e951",
  "args": [
    "0x990ff3C0767ffA9192C88B2Cdc7fB50E5209EEf4",
    "0xc901001DcFf76992734C5d35629fD06eA94c7aA5"
  ],
  "numDeployments": 8,
  "solcInputHash": "f403dc2155d38dd4dacf9d8f39be83e8",
  "bytecode": "0x60c06040523480156200001157600080fd5b50604051620025cb380380620025cb833981016040819052620000349162000069565b6001600160a01b039182166080521660a052620000a1565b80516001600160a01b03811681146200006457600080fd5b919050565b600080604083850312156200007d57600080fd5b62000088836200004c565b915062000098602084016200004c565b90509250929050565b60805160a0516124f6620000d5600039600081816101ad01526112c401526000818161022a015261094801526124f66000f3fe6080604052600436106200014f5760003560e01c8063c83179bf11620000b9578063ec7d1fc91162000078578063ec7d1fc9146200043d578063ef0f708f1462000462578063f2fde38b1462000493578063f698da2514620004b8578063f9aebda014620004d0578063ffa1ad74146200050457600080fd5b8063c83179bf146200037a578063cb04308c146200039f578063ccf5a77c14620003d0578063e52cb36a14620003f2578063ea20c988146200042657600080fd5b8063715018a61162000112578063715018a6146200028f5780637ab6f40714620002a9578063881513bc14620002da5780638da5cb5b1462000310578063b42c00191462000330578063c4d66de8146200035557600080fd5b80630243ca61146200015457806312fde4b7146200019d57806314e41b1b14620001e65780634ce74859146200021a5780636369d9a6146200024f575b600080fd5b3480156200016157600080fd5b50620001886200017336600462001794565b609d6020526000908152604090205460ff1681565b60405190151581526020015b60405180910390f35b348015620001aa57600080fd5b507f00000000000000000000000000000000000000000000000000000000000000005b6040516001600160a01b03909116815260200162000194565b348015620001f357600080fd5b506200020b62000205366004620017b9565b62000546565b604051620001949190620017d3565b3480156200022757600080fd5b507f0000000000000000000000000000000000000000000000000000000000000000620001cd565b3480156200025c57600080fd5b50620002806200026e36600462001794565b609f6020526000908152604090205481565b60405190815260200162000194565b3480156200029c57600080fd5b50620002a7620005b4565b005b348015620002b657600080fd5b5062000280620002c8366004620017b9565b6000908152609a602052604090205490565b348015620002e757600080fd5b50620002807fa30ea5bbc51253dd4b2084cc667143b9061b9c64c48755d3f737376d6a848b3781565b3480156200031d57600080fd5b506033546001600160a01b0316620001cd565b3480156200033d57600080fd5b50620002a76200034f36600462001822565b620005cc565b3480156200036257600080fd5b50620002a76200037436600462001794565b6200068e565b3480156200038757600080fd5b5062000188620003993660046200184f565b62000807565b348015620003ac57600080fd5b5062000280620003be36600462001794565b609e6020526000908152604090205481565b348015620003dd57600080fd5b50609b54620001cd906001600160a01b031681565b348015620003ff57600080fd5b506200018862000411366004620017b9565b6000908152609c602052604090205460ff1690565b620001cd620004373660046200184f565b62000975565b3480156200044a57600080fd5b50620002a76200045c36600462001822565b62000fe4565b3480156200046f57600080fd5b50620002806200048136600462001794565b60a06020526000908152604090205481565b348015620004a057600080fd5b50620002a7620004b236600462001794565b620010a1565b348015620004c557600080fd5b506200028062001120565b348015620004dd57600080fd5b5062000188620004ef366004620017b9565b609c6020526000908152604090205460ff1681565b3480156200051157600080fd5b506200053760405180604001604052806005815260200164181718171960d91b81525081565b60405162000194919062001945565b6000818152609a6020908152604091829020805483518184028101840190945280845260609392830182828015620005a857602002820191906000526020600020905b81546001600160a01b0316815260019091019060200180831162000589575b50505050509050919050565b620005be62001131565b620005ca60006200118d565b565b336000908152609d602052604090205460ff16620006485760405162461bcd60e51b815260206004820152602e60248201527f4e6f7420617574686f72697a656420746f20696e6372656d656e7420746f6b6560448201526d1b9cd0dc99585d195910dbdd5b9d60921b60648201526084015b60405180910390fd5b6001600160a01b0382166000908152609f60205260409020546200066e90829062001970565b6001600160a01b039092166000908152609f602052604090209190915550565b600054610100900460ff1615808015620006af5750600054600160ff909116105b80620006cb5750303b158015620006cb575060005460ff166001145b620007305760405162461bcd60e51b815260206004820152602e60248201527f496e697469616c697a61626c653a20636f6e747261637420697320616c72656160448201526d191e481a5b9a5d1a585b1a5e995960921b60648201526084016200063f565b6000805460ff19166001179055801562000754576000805461ff0019166101001790555b609b80546001600160a01b0319166001600160a01b03841617905560408051606081019091526026808252620007b291906200249b602083013960405180604001604052806005815260200164181718171960d91b815250620011df565b620007bc62001215565b801562000803576000805461ff0019169055604051600181527f7f26b83ff96e1f2b6a682f133852f6798a09c465da95921460cefb38474024989060200160405180910390a15b5050565b6000806200093e84848080601f0160208091040260200160405190810160405280939291908181526020018383808284376000920191909152506200093792507fa30ea5bbc51253dd4b2084cc667143b9061b9c64c48755d3f737376d6a848b3791505088356200087c60208b018b6200198b565b6040516200088c929190620019d5565b60405180910390208a8060400190620008a691906200198b565b604051620008b6929190620019d5565b60405180910390208b606001358c608001358d60a0016020810190620008dd919062001794565b6040805160208101989098528701959095526060860193909352608085019190915260a084015260c08301526001600160a01b031660e082015261010001604051602081830303815290604052805190602001206200123f565b9062001296565b6001600160a01b037f0000000000000000000000000000000000000000000000000000000000000000811691161495945050505050565b60808301356000908152609c602052604081205460ff1615620009ce5760405162461bcd60e51b815260206004820152601060248201526f105b1c9958591e48195e1958dd5d195960821b60448201526064016200063f565b620009db84848462000807565b62000a1d5760405162461bcd60e51b8152602060048201526011602482015270494e56414c49445f5349474e415455524560781b60448201526064016200063f565b348460600135111562000a8f5760405162461bcd60e51b815260206004820152603360248201527f46696c65416363657373436f6c6c656374696f6e466163746f72795570677261604482015272191958589b194e88155b99195c9c1c9a58d959606a1b60648201526084016200063f565b62000a9e60208501856200198b565b8080601f01602080910402602001604051908101604052809392919081815260200183838082843760009201919091525050604051632eb0451960e21b81527391eC10F414B2482Ca86C8cC1f3aC75C94b017f4a9363bac11464935062000b0a92509060040162001945565b60206040518083038186803b15801562000b2357600080fd5b505af415801562000b38573d6000803e3d6000fd5b505050506040513d601f19601f8201168201806040525081019062000b5e9190620019e5565b62000bd25760405162461bcd60e51b815260206004820152603760248201527f4e616d652063616e20636f6e7461696e20616c7068616e756d6572696320636860448201527f617261637465727320616e64207370616365206f6e6c7900000000000000000060648201526084016200063f565b3362000be560c0860160a0870162001794565b6001600160a01b03161462000c5a5760405162461bcd60e51b815260206004820152603460248201527f46696c65416363657373436f6c6c656374696f6e466163746f727955706772616044820152733232b0b136329d102bb937b7339039b2b73232b960611b60648201526084016200063f565b62000c6960408501856200198b565b1590508062000d42575062000c8260408501856200198b565b8080601f01602080910402602001604051908101604052809392919081815260200183838082843760009201919091525050604051632eb0451960e21b81527391eC10F414B2482Ca86C8cC1f3aC75C94b017f4a9363bac11464935062000cee92509060040162001945565b60206040518083038186803b15801562000d0757600080fd5b505af415801562000d1c573d6000803e3d6000fd5b505050506040513d601f19601f8201168201806040525081019062000d429190620019e5565b62000db65760405162461bcd60e51b815260206004820152603e60248201527f4465736372697074696f6e2063616e20636f6e7461696e20616c7068616e756d60448201527f65726963206368617261637465727320616e64207370616365206f6e6c79000060648201526084016200063f565b60808401356000908152609c60205260408120805460ff19166001179055609b546001600160a01b0316639065714760e01b62000df03390565b62000dff60208901896200198b565b62000e0e60408b018b6200198b565b60405160240162000e2495949392919062001a32565b60408051601f198184030181529181526020820180516001600160e01b03166001600160e01b031990941693909317909252905162000e639062001769565b62000e7092919062001a7a565b604051809103906000f08015801562000e8d573d6000803e3d6000fd5b5085356000908152609a60209081526040822080546001818101835591845291832090910180546001600160a01b0385166001600160a01b031991821681179092556099805493840181559093527f72a152ddfb8e864297c917af52ea6c1c68aead0fee1a62673fcc7e0c94979d00909101805490921617905590508060608601351562000f205762000f2034620012be565b6001600160a01b0381166000908152609d60205260408120805460ff1916600117905560a09062000f4e3390565b6001600160a01b031681526020810191909152604001600090812080549162000f778362001aa8565b909155507fb04aed25560dca722c7d1edcb8ea4ed29cfb2160e22cd54c7d93064d48fb7dc9905081873562000fb060208a018a6200198b565b62000fbf60408c018c6200198b565b60405162000fd39695949392919062001ac6565b60405180910390a195945050505050565b336000908152609d602052604090205460ff166200105b5760405162461bcd60e51b815260206004820152602d60248201527f4e6f7420617574686f72697a656420746f20696e6372656d656e7420746f6b6560448201526c1b9cd35a5b9d195910dbdd5b9d609a1b60648201526084016200063f565b6001600160a01b0382166000908152609e60205260409020546200108190829062001970565b6001600160a01b039092166000908152609e602052604090209190915550565b620010ab62001131565b6001600160a01b038116620011125760405162461bcd60e51b815260206004820152602660248201527f4f776e61626c653a206e6577206f776e657220697320746865207a65726f206160448201526564647265737360d01b60648201526084016200063f565b6200111d816200118d565b50565b60006200112c620012ea565b905090565b6033546001600160a01b03163314620005ca5760405162461bcd60e51b815260206004820181905260248201527f4f776e61626c653a2063616c6c6572206973206e6f7420746865206f776e657260448201526064016200063f565b603380546001600160a01b038381166001600160a01b0319831681179093556040519116919082907f8be0079c531659141344cd1fd0a4f28419497f9722a3daafe3b4186f6b6457e090600090a35050565b600054610100900460ff16620012095760405162461bcd60e51b81526004016200063f9062001b12565b62000803828262001367565b600054610100900460ff16620005ca5760405162461bcd60e51b81526004016200063f9062001b12565b6000620012906200124f620012ea565b8360405161190160f01b6020820152602281018390526042810182905260009060620160405160208183030381529060405280519060200120905092915050565b92915050565b6000806000620012a78585620013ab565b91509150620012b681620013f5565b509392505050565b6200111d7f000000000000000000000000000000000000000000000000000000000000000082620015c8565b60006200112c7f8b73c3c69bb8fe3d512ecc4cf759cc79239f7b179b0ffacaa9a75d522b39400f6200131b60655490565b6066546040805160208101859052908101839052606081018290524660808201523060a082015260009060c0016040516020818303038152906040528051906020012090509392505050565b600054610100900460ff16620013915760405162461bcd60e51b81526004016200063f9062001b12565b815160209283012081519190920120606591909155606655565b600080825160411415620013e65760208301516040840151606085015160001a620013d98782858562001674565b94509450505050620013ee565b506000905060025b9250929050565b60008160048111156200140c576200140c62001b5d565b1415620014165750565b60018160048111156200142d576200142d62001b5d565b14156200147d5760405162461bcd60e51b815260206004820152601860248201527f45434453413a20696e76616c6964207369676e6174757265000000000000000060448201526064016200063f565b600281600481111562001494576200149462001b5d565b1415620014e45760405162461bcd60e51b815260206004820152601f60248201527f45434453413a20696e76616c6964207369676e6174757265206c656e6774680060448201526064016200063f565b6003816004811115620014fb57620014fb62001b5d565b1415620015565760405162461bcd60e51b815260206004820152602260248201527f45434453413a20696e76616c6964207369676e6174757265202773272076616c604482015261756560f01b60648201526084016200063f565b60048160048111156200156d576200156d62001b5d565b14156200111d5760405162461bcd60e51b815260206004820152602260248201527f45434453413a20696e76616c6964207369676e6174757265202776272076616c604482015261756560f01b60648201526084016200063f565b6000826001600160a01b03168260405160006040518083038185875af1925050503d806000811462001617576040519150601f19603f3d011682016040523d82523d6000602084013e6200161c565b606091505b50509050806200166f5760405162461bcd60e51b815260206004820181905260248201527f50616964416374696f6e733a20666565207472616e73666572206661696c656460448201526064016200063f565b505050565b6000807f7fffffffffffffffffffffffffffffff5d576e7357a4501ddfe92f46681b20a0831115620016ad575060009050600362001760565b8460ff16601b14158015620016c657508460ff16601c14155b15620016d9575060009050600462001760565b6040805160008082526020820180845289905260ff881692820192909252606081018690526080810185905260019060a0016020604051602081039080840390855afa1580156200172e573d6000803e3d6000fd5b5050604051601f1901519150506001600160a01b038116620017595760006001925092505062001760565b9150600090505b94509492505050565b6109278062001b7483390190565b80356001600160a01b03811681146200178f57600080fd5b919050565b600060208284031215620017a757600080fd5b620017b28262001777565b9392505050565b600060208284031215620017cc57600080fd5b5035919050565b6020808252825182820181905260009190848201906040850190845b81811015620018165783516001600160a01b031683529284019291840191600101620017ef565b50909695505050505050565b600080604083850312156200183657600080fd5b620018418362001777565b946020939093013593505050565b6000806000604084860312156200186557600080fd5b833567ffffffffffffffff808211156200187e57600080fd5b9085019060c082880312156200189357600080fd5b90935060208501359080821115620018aa57600080fd5b818601915086601f830112620018bf57600080fd5b813581811115620018cf57600080fd5b876020828501011115620018e257600080fd5b6020830194508093505050509250925092565b6000815180845260005b818110156200191d57602081850181015186830182015201620018ff565b8181111562001930576000602083870101525b50601f01601f19169290920160200192915050565b602081526000620017b26020830184620018f5565b634e487b7160e01b600052601160045260246000fd5b600082198211156200198657620019866200195a565b500190565b6000808335601e19843603018112620019a357600080fd5b83018035915067ffffffffffffffff821115620019bf57600080fd5b602001915036819003821315620013ee57600080fd5b8183823760009101908152919050565b600060208284031215620019f857600080fd5b81518015158114620017b257600080fd5b81835281816020850137506000828201602090810191909152601f909101601f19169091010190565b6001600160a01b038616815260606020820181905260009062001a59908301868862001a09565b828103604084015262001a6e81858762001a09565b98975050505050505050565b6001600160a01b038316815260406020820181905260009062001aa090830184620018f5565b949350505050565b600060001982141562001abf5762001abf6200195a565b5060010190565b60018060a01b038716815285602082015260806040820152600062001af060808301868862001a09565b828103606084015262001b0581858762001a09565b9998505050505050505050565b6020808252602b908201527f496e697469616c697a61626c653a20636f6e7472616374206973206e6f74206960408201526a6e697469616c697a696e6760a81b606082015260800190565b634e487b7160e01b600052602160045260246000fdfe608060405260405161092738038061092783398101604081905261002291610474565b61002e82826000610035565b505061059e565b61003e8361010f565b6040516001600160a01b038416907f1cf3b03a6cf19fa2baba4df148e9dcabedea7f8a5c07840e207e5c089be95d3e90600090a260008251118061007f5750805b1561010a57610108836001600160a01b0316635c60da1b6040518163ffffffff1660e01b815260040160206040518083038186803b1580156100c057600080fd5b505afa1580156100d4573d6000803e3d6000fd5b505050506040513d601f19601f820116820180604052508101906100f89190610534565b836102c160201b6100291760201c565b505b505050565b610122816102ed60201b6100551760201c565b6101815760405162461bcd60e51b815260206004820152602560248201527f455243313936373a206e657720626561636f6e206973206e6f74206120636f6e6044820152641d1c9858dd60da1b60648201526084015b60405180910390fd5b610204816001600160a01b0316635c60da1b6040518163ffffffff1660e01b815260040160206040518083038186803b1580156101bd57600080fd5b505afa1580156101d1573d6000803e3d6000fd5b505050506040513d601f19601f820116820180604052508101906101f59190610534565b6102ed60201b6100551760201c565b6102695760405162461bcd60e51b815260206004820152603060248201527f455243313936373a20626561636f6e20696d706c656d656e746174696f6e206960448201526f1cc81b9bdd08184818dbdb9d1c9858dd60821b6064820152608401610178565b806102a07fa3f0ad74e5423aebfd80d3ef4346578335a9a72aeaee59ff6cb3582b35133d5060001b6102fc60201b6100641760201c565b80546001600160a01b0319166001600160a01b039290921691909117905550565b60606102e68383604051806060016040528060278152602001610900602791396102ff565b9392505050565b6001600160a01b03163b151590565b90565b60606001600160a01b0384163b6103675760405162461bcd60e51b815260206004820152602660248201527f416464726573733a2064656c65676174652063616c6c20746f206e6f6e2d636f6044820152651b9d1c9858dd60d21b6064820152608401610178565b600080856001600160a01b031685604051610382919061054f565b600060405180830381855af49150503d80600081146103bd576040519150601f19603f3d011682016040523d82523d6000602084013e6103c2565b606091505b5090925090506103d38282866103dd565b9695505050505050565b606083156103ec5750816102e6565b8251156103fc5782518084602001fd5b8160405162461bcd60e51b8152600401610178919061056b565b80516001600160a01b038116811461042d57600080fd5b919050565b634e487b7160e01b600052604160045260246000fd5b60005b8381101561046357818101518382015260200161044b565b838111156101085750506000910152565b6000806040838503121561048757600080fd5b61049083610416565b60208401519092506001600160401b03808211156104ad57600080fd5b818501915085601f8301126104c157600080fd5b8151818111156104d3576104d3610432565b604051601f8201601f19908116603f011681019083821181831017156104fb576104fb610432565b8160405282815288602084870101111561051457600080fd5b610525836020830160208801610448565b80955050505050509250929050565b60006020828403121561054657600080fd5b6102e682610416565b60008251610561818460208701610448565b9190910192915050565b602081526000825180602084015261058a816040850160208701610448565b601f01601f19169190910160400192915050565b610353806105ad6000396000f3fe60806040523661001357610011610017565b005b6100115b610027610022610067565b61010f565b565b606061004e83836040518060600160405280602781526020016102f760279139610133565b9392505050565b6001600160a01b03163b151590565b90565b600061009a7fa3f0ad74e5423aebfd80d3ef4346578335a9a72aeaee59ff6cb3582b35133d50546001600160a01b031690565b6001600160a01b0316635c60da1b6040518163ffffffff1660e01b815260040160206040518083038186803b1580156100d257600080fd5b505afa1580156100e6573d6000803e3d6000fd5b505050506040513d601f19601f8201168201806040525081019061010a919061024e565b905090565b3660008037600080366000845af43d6000803e80801561012e573d6000f35b3d6000fd5b60606001600160a01b0384163b6101a05760405162461bcd60e51b815260206004820152602660248201527f416464726573733a2064656c65676174652063616c6c20746f206e6f6e2d636f6044820152651b9d1c9858dd60d21b60648201526084015b60405180910390fd5b600080856001600160a01b0316856040516101bb91906102a7565b600060405180830381855af49150503d80600081146101f6576040519150601f19603f3d011682016040523d82523d6000602084013e6101fb565b606091505b509150915061020b828286610215565b9695505050505050565b6060831561022457508161004e565b8251156102345782518084602001fd5b8160405162461bcd60e51b815260040161019791906102c3565b60006020828403121561026057600080fd5b81516001600160a01b038116811461004e57600080fd5b60005b8381101561029257818101518382015260200161027a565b838111156102a1576000848401525b50505050565b600082516102b9818460208701610277565b9190910192915050565b60208152600082518060208401526102e2816040850160208701610277565b601f01601f1916919091016040019291505056fe416464726573733a206c6f772d6c6576656c2064656c65676174652063616c6c206661696c6564a26469706673582212200ef9d27fce5798cd4a891ef88062917bde44c850e9656b8713f5943eca66c23564736f6c63430008090033416464726573733a206c6f772d6c6576656c2064656c65676174652063616c6c206661696c656446696c65416363657373436f6c6c656374696f6e466163746f72795570677261646561626c65a2646970667358221220a3158539b7c8fc8d818bc4b525c048ac7686df23a17e7a22cddad298b21de39464736f6c63430008090033",
  "deployedBytecode": "0x6080604052600436106200014f5760003560e01c8063c83179bf11620000b9578063ec7d1fc91162000078578063ec7d1fc9146200043d578063ef0f708f1462000462578063f2fde38b1462000493578063f698da2514620004b8578063f9aebda014620004d0578063ffa1ad74146200050457600080fd5b8063c83179bf146200037a578063cb04308c146200039f578063ccf5a77c14620003d0578063e52cb36a14620003f2578063ea20c988146200042657600080fd5b8063715018a61162000112578063715018a6146200028f5780637ab6f40714620002a9578063881513bc14620002da5780638da5cb5b1462000310578063b42c00191462000330578063c4d66de8146200035557600080fd5b80630243ca61146200015457806312fde4b7146200019d57806314e41b1b14620001e65780634ce74859146200021a5780636369d9a6146200024f575b600080fd5b3480156200016157600080fd5b50620001886200017336600462001794565b609d6020526000908152604090205460ff1681565b60405190151581526020015b60405180910390f35b348015620001aa57600080fd5b507f00000000000000000000000000000000000000000000000000000000000000005b6040516001600160a01b03909116815260200162000194565b348015620001f357600080fd5b506200020b62000205366004620017b9565b62000546565b604051620001949190620017d3565b3480156200022757600080fd5b507f0000000000000000000000000000000000000000000000000000000000000000620001cd565b3480156200025c57600080fd5b50620002806200026e36600462001794565b609f6020526000908152604090205481565b60405190815260200162000194565b3480156200029c57600080fd5b50620002a7620005b4565b005b348015620002b657600080fd5b5062000280620002c8366004620017b9565b6000908152609a602052604090205490565b348015620002e757600080fd5b50620002807fa30ea5bbc51253dd4b2084cc667143b9061b9c64c48755d3f737376d6a848b3781565b3480156200031d57600080fd5b506033546001600160a01b0316620001cd565b3480156200033d57600080fd5b50620002a76200034f36600462001822565b620005cc565b3480156200036257600080fd5b50620002a76200037436600462001794565b6200068e565b3480156200038757600080fd5b5062000188620003993660046200184f565b62000807565b348015620003ac57600080fd5b5062000280620003be36600462001794565b609e6020526000908152604090205481565b348015620003dd57600080fd5b50609b54620001cd906001600160a01b031681565b348015620003ff57600080fd5b506200018862000411366004620017b9565b6000908152609c602052604090205460ff1690565b620001cd620004373660046200184f565b62000975565b3480156200044a57600080fd5b50620002a76200045c36600462001822565b62000fe4565b3480156200046f57600080fd5b50620002806200048136600462001794565b60a06020526000908152604090205481565b348015620004a057600080fd5b50620002a7620004b236600462001794565b620010a1565b348015620004c557600080fd5b506200028062001120565b348015620004dd57600080fd5b5062000188620004ef366004620017b9565b609c6020526000908152604090205460ff1681565b3480156200051157600080fd5b506200053760405180604001604052806005815260200164181718171960d91b81525081565b60405162000194919062001945565b6000818152609a6020908152604091829020805483518184028101840190945280845260609392830182828015620005a857602002820191906000526020600020905b81546001600160a01b0316815260019091019060200180831162000589575b50505050509050919050565b620005be62001131565b620005ca60006200118d565b565b336000908152609d602052604090205460ff16620006485760405162461bcd60e51b815260206004820152602e60248201527f4e6f7420617574686f72697a656420746f20696e6372656d656e7420746f6b6560448201526d1b9cd0dc99585d195910dbdd5b9d60921b60648201526084015b60405180910390fd5b6001600160a01b0382166000908152609f60205260409020546200066e90829062001970565b6001600160a01b039092166000908152609f602052604090209190915550565b600054610100900460ff1615808015620006af5750600054600160ff909116105b80620006cb5750303b158015620006cb575060005460ff166001145b620007305760405162461bcd60e51b815260206004820152602e60248201527f496e697469616c697a61626c653a20636f6e747261637420697320616c72656160448201526d191e481a5b9a5d1a585b1a5e995960921b60648201526084016200063f565b6000805460ff19166001179055801562000754576000805461ff0019166101001790555b609b80546001600160a01b0319166001600160a01b03841617905560408051606081019091526026808252620007b291906200249b602083013960405180604001604052806005815260200164181718171960d91b815250620011df565b620007bc62001215565b801562000803576000805461ff0019169055604051600181527f7f26b83ff96e1f2b6a682f133852f6798a09c465da95921460cefb38474024989060200160405180910390a15b5050565b6000806200093e84848080601f0160208091040260200160405190810160405280939291908181526020018383808284376000920191909152506200093792507fa30ea5bbc51253dd4b2084cc667143b9061b9c64c48755d3f737376d6a848b3791505088356200087c60208b018b6200198b565b6040516200088c929190620019d5565b60405180910390208a8060400190620008a691906200198b565b604051620008b6929190620019d5565b60405180910390208b606001358c608001358d60a0016020810190620008dd919062001794565b6040805160208101989098528701959095526060860193909352608085019190915260a084015260c08301526001600160a01b031660e082015261010001604051602081830303815290604052805190602001206200123f565b9062001296565b6001600160a01b037f0000000000000000000000000000000000000000000000000000000000000000811691161495945050505050565b60808301356000908152609c602052604081205460ff1615620009ce5760405162461bcd60e51b815260206004820152601060248201526f105b1c9958591e48195e1958dd5d195960821b60448201526064016200063f565b620009db84848462000807565b62000a1d5760405162461bcd60e51b8152602060048201526011602482015270494e56414c49445f5349474e415455524560781b60448201526064016200063f565b348460600135111562000a8f5760405162461bcd60e51b815260206004820152603360248201527f46696c65416363657373436f6c6c656374696f6e466163746f72795570677261604482015272191958589b194e88155b99195c9c1c9a58d959606a1b60648201526084016200063f565b62000a9e60208501856200198b565b8080601f01602080910402602001604051908101604052809392919081815260200183838082843760009201919091525050604051632eb0451960e21b815273__$8455419ec40c7f6091485c69e2c3eca116$__9363bac11464935062000b0a92509060040162001945565b60206040518083038186803b15801562000b2357600080fd5b505af415801562000b38573d6000803e3d6000fd5b505050506040513d601f19601f8201168201806040525081019062000b5e9190620019e5565b62000bd25760405162461bcd60e51b815260206004820152603760248201527f4e616d652063616e20636f6e7461696e20616c7068616e756d6572696320636860448201527f617261637465727320616e64207370616365206f6e6c7900000000000000000060648201526084016200063f565b3362000be560c0860160a0870162001794565b6001600160a01b03161462000c5a5760405162461bcd60e51b815260206004820152603460248201527f46696c65416363657373436f6c6c656374696f6e466163746f727955706772616044820152733232b0b136329d102bb937b7339039b2b73232b960611b60648201526084016200063f565b62000c6960408501856200198b565b1590508062000d42575062000c8260408501856200198b565b8080601f01602080910402602001604051908101604052809392919081815260200183838082843760009201919091525050604051632eb0451960e21b815273__$8455419ec40c7f6091485c69e2c3eca116$__9363bac11464935062000cee92509060040162001945565b60206040518083038186803b15801562000d0757600080fd5b505af415801562000d1c573d6000803e3d6000fd5b505050506040513d601f19601f8201168201806040525081019062000d429190620019e5565b62000db65760405162461bcd60e51b815260206004820152603e60248201527f4465736372697074696f6e2063616e20636f6e7461696e20616c7068616e756d60448201527f65726963206368617261637465727320616e64207370616365206f6e6c79000060648201526084016200063f565b60808401356000908152609c60205260408120805460ff19166001179055609b546001600160a01b0316639065714760e01b62000df03390565b62000dff60208901896200198b565b62000e0e60408b018b6200198b565b60405160240162000e2495949392919062001a32565b60408051601f198184030181529181526020820180516001600160e01b03166001600160e01b031990941693909317909252905162000e639062001769565b62000e7092919062001a7a565b604051809103906000f08015801562000e8d573d6000803e3d6000fd5b5085356000908152609a60209081526040822080546001818101835591845291832090910180546001600160a01b0385166001600160a01b031991821681179092556099805493840181559093527f72a152ddfb8e864297c917af52ea6c1c68aead0fee1a62673fcc7e0c94979d00909101805490921617905590508060608601351562000f205762000f2034620012be565b6001600160a01b0381166000908152609d60205260408120805460ff1916600117905560a09062000f4e3390565b6001600160a01b031681526020810191909152604001600090812080549162000f778362001aa8565b909155507fb04aed25560dca722c7d1edcb8ea4ed29cfb2160e22cd54c7d93064d48fb7dc9905081873562000fb060208a018a6200198b565b62000fbf60408c018c6200198b565b60405162000fd39695949392919062001ac6565b60405180910390a195945050505050565b336000908152609d602052604090205460ff166200105b5760405162461bcd60e51b815260206004820152602d60248201527f4e6f7420617574686f72697a656420746f20696e6372656d656e7420746f6b6560448201526c1b9cd35a5b9d195910dbdd5b9d609a1b60648201526084016200063f565b6001600160a01b0382166000908152609e60205260409020546200108190829062001970565b6001600160a01b039092166000908152609e602052604090209190915550565b620010ab62001131565b6001600160a01b038116620011125760405162461bcd60e51b815260206004820152602660248201527f4f776e61626c653a206e6577206f776e657220697320746865207a65726f206160448201526564647265737360d01b60648201526084016200063f565b6200111d816200118d565b50565b60006200112c620012ea565b905090565b6033546001600160a01b03163314620005ca5760405162461bcd60e51b815260206004820181905260248201527f4f776e61626c653a2063616c6c6572206973206e6f7420746865206f776e657260448201526064016200063f565b603380546001600160a01b038381166001600160a01b0319831681179093556040519116919082907f8be0079c531659141344cd1fd0a4f28419497f9722a3daafe3b4186f6b6457e090600090a35050565b600054610100900460ff16620012095760405162461bcd60e51b81526004016200063f9062001b12565b62000803828262001367565b600054610100900460ff16620005ca5760405162461bcd60e51b81526004016200063f9062001b12565b6000620012906200124f620012ea565b8360405161190160f01b6020820152602281018390526042810182905260009060620160405160208183030381529060405280519060200120905092915050565b92915050565b6000806000620012a78585620013ab565b91509150620012b681620013f5565b509392505050565b6200111d7f000000000000000000000000000000000000000000000000000000000000000082620015c8565b60006200112c7f8b73c3c69bb8fe3d512ecc4cf759cc79239f7b179b0ffacaa9a75d522b39400f6200131b60655490565b6066546040805160208101859052908101839052606081018290524660808201523060a082015260009060c0016040516020818303038152906040528051906020012090509392505050565b600054610100900460ff16620013915760405162461bcd60e51b81526004016200063f9062001b12565b815160209283012081519190920120606591909155606655565b600080825160411415620013e65760208301516040840151606085015160001a620013d98782858562001674565b94509450505050620013ee565b506000905060025b9250929050565b60008160048111156200140c576200140c62001b5d565b1415620014165750565b60018160048111156200142d576200142d62001b5d565b14156200147d5760405162461bcd60e51b815260206004820152601860248201527f45434453413a20696e76616c6964207369676e6174757265000000000000000060448201526064016200063f565b600281600481111562001494576200149462001b5d565b1415620014e45760405162461bcd60e51b815260206004820152601f60248201527f45434453413a20696e76616c6964207369676e6174757265206c656e6774680060448201526064016200063f565b6003816004811115620014fb57620014fb62001b5d565b1415620015565760405162461bcd60e51b815260206004820152602260248201527f45434453413a20696e76616c6964207369676e6174757265202773272076616c604482015261756560f01b60648201526084016200063f565b60048160048111156200156d576200156d62001b5d565b14156200111d5760405162461bcd60e51b815260206004820152602260248201527f45434453413a20696e76616c6964207369676e6174757265202776272076616c604482015261756560f01b60648201526084016200063f565b6000826001600160a01b03168260405160006040518083038185875af1925050503d806000811462001617576040519150601f19603f3d011682016040523d82523d6000602084013e6200161c565b606091505b50509050806200166f5760405162461bcd60e51b815260206004820181905260248201527f50616964416374696f6e733a20666565207472616e73666572206661696c656460448201526064016200063f565b505050565b6000807f7fffffffffffffffffffffffffffffff5d576e7357a4501ddfe92f46681b20a0831115620016ad575060009050600362001760565b8460ff16601b14158015620016c657508460ff16601c14155b15620016d9575060009050600462001760565b6040805160008082526020820180845289905260ff881692820192909252606081018690526080810185905260019060a0016020604051602081039080840390855afa1580156200172e573d6000803e3d6000fd5b5050604051601f1901519150506001600160a01b038116620017595760006001925092505062001760565b9150600090505b94509492505050565b6109278062001b7483390190565b80356001600160a01b03811681146200178f57600080fd5b919050565b600060208284031215620017a757600080fd5b620017b28262001777565b9392505050565b600060208284031215620017cc57600080fd5b5035919050565b6020808252825182820181905260009190848201906040850190845b81811015620018165783516001600160a01b031683529284019291840191600101620017ef565b50909695505050505050565b600080604083850312156200183657600080fd5b620018418362001777565b946020939093013593505050565b6000806000604084860312156200186557600080fd5b833567ffffffffffffffff808211156200187e57600080fd5b9085019060c082880312156200189357600080fd5b90935060208501359080821115620018aa57600080fd5b818601915086601f830112620018bf57600080fd5b813581811115620018cf57600080fd5b876020828501011115620018e257600080fd5b6020830194508093505050509250925092565b6000815180845260005b818110156200191d57602081850181015186830182015201620018ff565b8181111562001930576000602083870101525b50601f01601f19169290920160200192915050565b602081526000620017b26020830184620018f5565b634e487b7160e01b600052601160045260246000fd5b600082198211156200198657620019866200195a565b500190565b6000808335601e19843603018112620019a357600080fd5b83018035915067ffffffffffffffff821115620019bf57600080fd5b602001915036819003821315620013ee57600080fd5b8183823760009101908152919050565b600060208284031215620019f857600080fd5b81518015158114620017b257600080fd5b81835281816020850137506000828201602090810191909152601f909101601f19169091010190565b6001600160a01b038616815260606020820181905260009062001a59908301868862001a09565b828103604084015262001a6e81858762001a09565b98975050505050505050565b6001600160a01b038316815260406020820181905260009062001aa090830184620018f5565b949350505050565b600060001982141562001abf5762001abf6200195a565b5060010190565b60018060a01b038716815285602082015260806040820152600062001af060808301868862001a09565b828103606084015262001b0581858762001a09565b9998505050505050505050565b6020808252602b908201527f496e697469616c697a61626c653a20636f6e7472616374206973206e6f74206960408201526a6e697469616c697a696e6760a81b606082015260800190565b634e487b7160e01b600052602160045260246000fdfe608060405260405161092738038061092783398101604081905261002291610474565b61002e82826000610035565b505061059e565b61003e8361010f565b6040516001600160a01b038416907f1cf3b03a6cf19fa2baba4df148e9dcabedea7f8a5c07840e207e5c089be95d3e90600090a260008251118061007f5750805b1561010a57610108836001600160a01b0316635c60da1b6040518163ffffffff1660e01b815260040160206040518083038186803b1580156100c057600080fd5b505afa1580156100d4573d6000803e3d6000fd5b505050506040513d601f19601f820116820180604052508101906100f89190610534565b836102c160201b6100291760201c565b505b505050565b610122816102ed60201b6100551760201c565b6101815760405162461bcd60e51b815260206004820152602560248201527f455243313936373a206e657720626561636f6e206973206e6f74206120636f6e6044820152641d1c9858dd60da1b60648201526084015b60405180910390fd5b610204816001600160a01b0316635c60da1b6040518163ffffffff1660e01b815260040160206040518083038186803b1580156101bd57600080fd5b505afa1580156101d1573d6000803e3d6000fd5b505050506040513d601f19601f820116820180604052508101906101f59190610534565b6102ed60201b6100551760201c565b6102695760405162461bcd60e51b815260206004820152603060248201527f455243313936373a20626561636f6e20696d706c656d656e746174696f6e206960448201526f1cc81b9bdd08184818dbdb9d1c9858dd60821b6064820152608401610178565b806102a07fa3f0ad74e5423aebfd80d3ef4346578335a9a72aeaee59ff6cb3582b35133d5060001b6102fc60201b6100641760201c565b80546001600160a01b0319166001600160a01b039290921691909117905550565b60606102e68383604051806060016040528060278152602001610900602791396102ff565b9392505050565b6001600160a01b03163b151590565b90565b60606001600160a01b0384163b6103675760405162461bcd60e51b815260206004820152602660248201527f416464726573733a2064656c65676174652063616c6c20746f206e6f6e2d636f6044820152651b9d1c9858dd60d21b6064820152608401610178565b600080856001600160a01b031685604051610382919061054f565b600060405180830381855af49150503d80600081146103bd576040519150601f19603f3d011682016040523d82523d6000602084013e6103c2565b606091505b5090925090506103d38282866103dd565b9695505050505050565b606083156103ec5750816102e6565b8251156103fc5782518084602001fd5b8160405162461bcd60e51b8152600401610178919061056b565b80516001600160a01b038116811461042d57600080fd5b919050565b634e487b7160e01b600052604160045260246000fd5b60005b8381101561046357818101518382015260200161044b565b838111156101085750506000910152565b6000806040838503121561048757600080fd5b61049083610416565b60208401519092506001600160401b03808211156104ad57600080fd5b818501915085601f8301126104c157600080fd5b8151818111156104d3576104d3610432565b604051601f8201601f19908116603f011681019083821181831017156104fb576104fb610432565b8160405282815288602084870101111561051457600080fd5b610525836020830160208801610448565b80955050505050509250929050565b60006020828403121561054657600080fd5b6102e682610416565b60008251610561818460208701610448565b9190910192915050565b602081526000825180602084015261058a816040850160208701610448565b601f01601f19169190910160400192915050565b610353806105ad6000396000f3fe60806040523661001357610011610017565b005b6100115b610027610022610067565b61010f565b565b606061004e83836040518060600160405280602781526020016102f760279139610133565b9392505050565b6001600160a01b03163b151590565b90565b600061009a7fa3f0ad74e5423aebfd80d3ef4346578335a9a72aeaee59ff6cb3582b35133d50546001600160a01b031690565b6001600160a01b0316635c60da1b6040518163ffffffff1660e01b815260040160206040518083038186803b1580156100d257600080fd5b505afa1580156100e6573d6000803e3d6000fd5b505050506040513d601f19601f8201168201806040525081019061010a919061024e565b905090565b3660008037600080366000845af43d6000803e80801561012e573d6000f35b3d6000fd5b60606001600160a01b0384163b6101a05760405162461bcd60e51b815260206004820152602660248201527f416464726573733a2064656c65676174652063616c6c20746f206e6f6e2d636f6044820152651b9d1c9858dd60d21b60648201526084015b60405180910390fd5b600080856001600160a01b0316856040516101bb91906102a7565b600060405180830381855af49150503d80600081146101f6576040519150601f19603f3d011682016040523d82523d6000602084013e6101fb565b606091505b509150915061020b828286610215565b9695505050505050565b6060831561022457508161004e565b8251156102345782518084602001fd5b8160405162461bcd60e51b815260040161019791906102c3565b60006020828403121561026057600080fd5b81516001600160a01b038116811461004e57600080fd5b60005b8381101561029257818101518382015260200161027a565b838111156102a1576000848401525b50505050565b600082516102b9818460208701610277565b9190910192915050565b60208152600082518060208401526102e2816040850160208701610277565b601f01601f1916919091016040019291505056fe416464726573733a206c6f772d6c6576656c2064656c65676174652063616c6c206661696c6564a26469706673582212200ef9d27fce5798cd4a891ef88062917bde44c850e9656b8713f5943eca66c23564736f6c63430008090033416464726573733a206c6f772d6c6576656c2064656c65676174652063616c6c206661696c656446696c65416363657373436f6c6c656374696f6e466163746f72795570677261646561626c65a2646970667358221220a3158539b7c8fc8d818bc4b525c048ac7686df23a17e7a22cddad298b21de39464736f6c63430008090033",
  "libraries": {
    "Az09Space": "0x91eC10F414B2482Ca86C8cC1f3aC75C94b017f4a",
    "ECDSAUpgradeable": "0xD3b8C74aa7e4C43D7a1DbE0110F820200BBAdCcc"
  },
  "devdoc": {
    "kind": "dev",
    "methods": {
      "owner()": {
        "details": "Returns the address of the current owner."
      },
      "renounceOwnership()": {
        "details": "Leaves the contract without owner. It will not be possible to call `onlyOwner` functions anymore. Can only be called by the current owner. NOTE: Renouncing ownership will leave the contract without an owner, thereby removing any functionality that is only available to the owner."
      },
      "transferOwnership(address)": {
        "details": "Transfers ownership of the contract to a new account (`newOwner`). Can only be called by the current owner."
      }
    },
    "version": 1
  },
  "userdoc": {
    "kind": "user",
    "methods": {},
    "version": 1
  },
  "storageLayout": {
    "storage": [
      {
        "astId": 585,
        "contract": "contracts/TokenizedFiles/FileAccessCollectionFactoryUpgradeable.sol:FileAccessCollectionFactoryUpgradeable",
        "label": "_initialized",
        "offset": 0,
        "slot": "0",
        "type": "t_uint8"
      },
      {
        "astId": 588,
        "contract": "contracts/TokenizedFiles/FileAccessCollectionFactoryUpgradeable.sol:FileAccessCollectionFactoryUpgradeable",
        "label": "_initializing",
        "offset": 1,
        "slot": "0",
        "type": "t_bool"
      },
      {
        "astId": 2831,
        "contract": "contracts/TokenizedFiles/FileAccessCollectionFactoryUpgradeable.sol:FileAccessCollectionFactoryUpgradeable",
        "label": "__gap",
        "offset": 0,
        "slot": "1",
        "type": "t_array(t_uint256)50_storage"
      },
      {
        "astId": 438,
        "contract": "contracts/TokenizedFiles/FileAccessCollectionFactoryUpgradeable.sol:FileAccessCollectionFactoryUpgradeable",
        "label": "_owner",
        "offset": 0,
        "slot": "51",
        "type": "t_address"
      },
      {
        "astId": 558,
        "contract": "contracts/TokenizedFiles/FileAccessCollectionFactoryUpgradeable.sol:FileAccessCollectionFactoryUpgradeable",
        "label": "__gap",
        "offset": 0,
        "slot": "52",
        "type": "t_array(t_uint256)49_storage"
      },
      {
        "astId": 3455,
        "contract": "contracts/TokenizedFiles/FileAccessCollectionFactoryUpgradeable.sol:FileAccessCollectionFactoryUpgradeable",
        "label": "_HASHED_NAME",
        "offset": 0,
        "slot": "101",
        "type": "t_bytes32"
      },
      {
        "astId": 3457,
        "contract": "contracts/TokenizedFiles/FileAccessCollectionFactoryUpgradeable.sol:FileAccessCollectionFactoryUpgradeable",
        "label": "_HASHED_VERSION",
        "offset": 0,
        "slot": "102",
        "type": "t_bytes32"
      },
      {
        "astId": 3595,
        "contract": "contracts/TokenizedFiles/FileAccessCollectionFactoryUpgradeable.sol:FileAccessCollectionFactoryUpgradeable",
        "label": "__gap",
        "offset": 0,
        "slot": "103",
        "type": "t_array(t_uint256)50_storage"
      },
      {
        "astId": 5304,
        "contract": "contracts/TokenizedFiles/FileAccessCollectionFactoryUpgradeable.sol:FileAccessCollectionFactoryUpgradeable",
        "label": "contractsAddresses",
        "offset": 0,
        "slot": "153",
        "type": "t_array(t_address)dyn_storage"
      },
      {
        "astId": 5309,
        "contract": "contracts/TokenizedFiles/FileAccessCollectionFactoryUpgradeable.sol:FileAccessCollectionFactoryUpgradeable",
        "label": "workspaceCollections",
        "offset": 0,
        "slot": "154",
        "type": "t_mapping(t_uint256,t_array(t_address)dyn_storage)"
      },
      {
        "astId": 5311,
        "contract": "contracts/TokenizedFiles/FileAccessCollectionFactoryUpgradeable.sol:FileAccessCollectionFactoryUpgradeable",
        "label": "tokenBeacon",
        "offset": 0,
        "slot": "155",
        "type": "t_address"
      },
      {
        "astId": 5315,
        "contract": "contracts/TokenizedFiles/FileAccessCollectionFactoryUpgradeable.sol:FileAccessCollectionFactoryUpgradeable",
        "label": "executedMap",
        "offset": 0,
        "slot": "156",
        "type": "t_mapping(t_bytes32,t_bool)"
      },
      {
        "astId": 5319,
        "contract": "contracts/TokenizedFiles/FileAccessCollectionFactoryUpgradeable.sol:FileAccessCollectionFactoryUpgradeable",
        "label": "isFileAccessContract",
        "offset": 0,
        "slot": "157",
        "type": "t_mapping(t_address,t_bool)"
      },
      {
        "astId": 5323,
        "contract": "contracts/TokenizedFiles/FileAccessCollectionFactoryUpgradeable.sol:FileAccessCollectionFactoryUpgradeable",
        "label": "tokensMintedCount",
        "offset": 0,
        "slot": "158",
        "type": "t_mapping(t_address,t_uint256)"
      },
      {
        "astId": 5327,
        "contract": "contracts/TokenizedFiles/FileAccessCollectionFactoryUpgradeable.sol:FileAccessCollectionFactoryUpgradeable",
        "label": "tokensCreatedCount",
        "offset": 0,
        "slot": "159",
        "type": "t_mapping(t_address,t_uint256)"
      },
      {
        "astId": 5331,
        "contract": "contracts/TokenizedFiles/FileAccessCollectionFactoryUpgradeable.sol:FileAccessCollectionFactoryUpgradeable",
        "label": "tokensContractsCreatedCount",
        "offset": 0,
        "slot": "160",
        "type": "t_mapping(t_address,t_uint256)"
      }
    ],
    "types": {
      "t_address": {
        "encoding": "inplace",
        "label": "address",
        "numberOfBytes": "20"
      },
      "t_array(t_address)dyn_storage": {
        "base": "t_address",
        "encoding": "dynamic_array",
        "label": "address[]",
        "numberOfBytes": "32"
      },
      "t_array(t_uint256)49_storage": {
        "base": "t_uint256",
        "encoding": "inplace",
        "label": "uint256[49]",
        "numberOfBytes": "1568"
      },
      "t_array(t_uint256)50_storage": {
        "base": "t_uint256",
        "encoding": "inplace",
        "label": "uint256[50]",
        "numberOfBytes": "1600"
      },
      "t_bool": {
        "encoding": "inplace",
        "label": "bool",
        "numberOfBytes": "1"
      },
      "t_bytes32": {
        "encoding": "inplace",
        "label": "bytes32",
        "numberOfBytes": "32"
      },
      "t_mapping(t_address,t_bool)": {
        "encoding": "mapping",
        "key": "t_address",
        "label": "mapping(address => bool)",
        "numberOfBytes": "32",
        "value": "t_bool"
      },
      "t_mapping(t_address,t_uint256)": {
        "encoding": "mapping",
        "key": "t_address",
        "label": "mapping(address => uint256)",
        "numberOfBytes": "32",
        "value": "t_uint256"
      },
      "t_mapping(t_bytes32,t_bool)": {
        "encoding": "mapping",
        "key": "t_bytes32",
        "label": "mapping(bytes32 => bool)",
        "numberOfBytes": "32",
        "value": "t_bool"
      },
      "t_mapping(t_uint256,t_array(t_address)dyn_storage)": {
        "encoding": "mapping",
        "key": "t_uint256",
        "label": "mapping(uint256 => address[])",
        "numberOfBytes": "32",
        "value": "t_array(t_address)dyn_storage"
      },
      "t_uint256": {
        "encoding": "inplace",
        "label": "uint256",
        "numberOfBytes": "32"
      },
      "t_uint8": {
        "encoding": "inplace",
        "label": "uint8",
        "numberOfBytes": "1"
      }
    }
  }
}