{
  "address": "0xD57d6Aa0108B4572405bC98f149F9C8B21333A02",
  "abi": [
    {
      "inputs": [
        {
          "internalType": "address",
          "name": "signer_",
          "type": "address"
        },
        {
          "internalType": "address",
          "name": "feeCollector_",
          "type": "address"
        }
      ],
      "stateMutability": "nonpayable",
      "type": "constructor"
    },
    {
      "anonymous": false,
      "inputs": [
        {
          "indexed": false,
          "internalType": "address",
          "name": "contractAddress",
          "type": "address"
        },
        {
          "indexed": false,
          "internalType": "uint256",
          "name": "workspaceId",
          "type": "uint256"
        }
      ],
      "name": "AddNewWorkspaceAccessContract",
      "type": "event"
    },
    {
      "anonymous": false,
      "inputs": [
        {
          "indexed": false,
          "internalType": "uint8",
          "name": "version",
          "type": "uint8"
        }
      ],
      "name": "Initialized",
      "type": "event"
    },
    {
      "anonymous": false,
      "inputs": [
        {
          "indexed": true,
          "internalType": "address",
          "name": "previousOwner",
          "type": "address"
        },
        {
          "indexed": true,
          "internalType": "address",
          "name": "newOwner",
          "type": "address"
        }
      ],
      "name": "OwnershipTransferred",
      "type": "event"
    },
    {
      "inputs": [],
      "name": "SNewWSAccessCallTypeHash",
      "outputs": [
        {
          "internalType": "bytes32",
          "name": "",
          "type": "bytes32"
        }
      ],
      "stateMutability": "view",
      "type": "function"
    },
    {
      "inputs": [],
      "name": "VERSION",
      "outputs": [
        {
          "internalType": "string",
          "name": "",
          "type": "string"
        }
      ],
      "stateMutability": "view",
      "type": "function"
    },
    {
      "inputs": [],
      "name": "accessBeacon",
      "outputs": [
        {
          "internalType": "address",
          "name": "",
          "type": "address"
        }
      ],
      "stateMutability": "view",
      "type": "function"
    },
    {
      "inputs": [
        {
          "internalType": "uint256",
          "name": "",
          "type": "uint256"
        }
      ],
      "name": "contractsAddresses",
      "outputs": [
        {
          "internalType": "address",
          "name": "",
          "type": "address"
        }
      ],
      "stateMutability": "view",
      "type": "function"
    },
    {
      "inputs": [
        {
          "internalType": "bytes32",
          "name": "",
          "type": "bytes32"
        }
      ],
      "name": "executedMap",
      "outputs": [
        {
          "internalType": "bool",
          "name": "",
          "type": "bool"
        }
      ],
      "stateMutability": "view",
      "type": "function"
    },
    {
      "inputs": [],
      "name": "getFeeCollector",
      "outputs": [
        {
          "internalType": "address",
          "name": "",
          "type": "address"
        }
      ],
      "stateMutability": "view",
      "type": "function"
    },
    {
      "inputs": [
        {
          "internalType": "uint256",
          "name": "workspaceId",
          "type": "uint256"
        }
      ],
      "name": "getWorkspaceAccessContract",
      "outputs": [
        {
          "internalType": "address",
          "name": "",
          "type": "address"
        }
      ],
      "stateMutability": "view",
      "type": "function"
    },
    {
      "inputs": [
        {
          "internalType": "address",
          "name": "accessBeacon_",
          "type": "address"
        }
      ],
      "name": "initialize",
      "outputs": [],
      "stateMutability": "nonpayable",
      "type": "function"
    },
    {
      "inputs": [
        {
          "internalType": "bytes32",
          "name": "interactionId",
          "type": "bytes32"
        }
      ],
      "name": "isExecuted",
      "outputs": [
        {
          "internalType": "bool",
          "name": "",
          "type": "bool"
        }
      ],
      "stateMutability": "view",
      "type": "function"
    },
    {
      "inputs": [
        {
          "internalType": "address",
          "name": "",
          "type": "address"
        }
      ],
      "name": "isWorkspaceAccessContract",
      "outputs": [
        {
          "internalType": "bool",
          "name": "",
          "type": "bool"
        }
      ],
      "stateMutability": "view",
      "type": "function"
    },
    {
      "inputs": [
        {
          "components": [
            {
              "internalType": "uint256",
              "name": "workspaceId",
              "type": "uint256"
            },
            {
              "internalType": "uint256",
              "name": "accessCost",
              "type": "uint256"
            },
            {
              "internalType": "uint256",
              "name": "fee",
              "type": "uint256"
            },
            {
              "internalType": "bytes32",
              "name": "interactionId",
              "type": "bytes32"
            },
            {
              "internalType": "address",
              "name": "from",
              "type": "address"
            }
          ],
          "internalType": "struct WorkspaceAccessFactoryUpgradeable.SNewWSAccessCall",
          "name": "req",
          "type": "tuple"
        },
        {
          "internalType": "bytes",
          "name": "signature",
          "type": "bytes"
        }
      ],
      "name": "newWorkspaceAccessContract",
      "outputs": [
        {
          "internalType": "address",
          "name": "",
          "type": "address"
        }
      ],
      "stateMutability": "payable",
      "type": "function"
    },
    {
      "inputs": [],
      "name": "owner",
      "outputs": [
        {
          "internalType": "address",
          "name": "",
          "type": "address"
        }
      ],
      "stateMutability": "view",
      "type": "function"
    },
    {
      "inputs": [],
      "name": "renounceOwnership",
      "outputs": [],
      "stateMutability": "nonpayable",
      "type": "function"
    },
    {
      "inputs": [],
      "name": "signWallet",
      "outputs": [
        {
          "internalType": "address",
          "name": "",
          "type": "address"
        }
      ],
      "stateMutability": "view",
      "type": "function"
    },
    {
      "inputs": [
        {
          "internalType": "address",
          "name": "newOwner",
          "type": "address"
        }
      ],
      "name": "transferOwnership",
      "outputs": [],
      "stateMutability": "nonpayable",
      "type": "function"
    },
    {
      "inputs": [
        {
          "components": [
            {
              "internalType": "uint256",
              "name": "workspaceId",
              "type": "uint256"
            },
            {
              "internalType": "uint256",
              "name": "accessCost",
              "type": "uint256"
            },
            {
              "internalType": "uint256",
              "name": "fee",
              "type": "uint256"
            },
            {
              "internalType": "bytes32",
              "name": "interactionId",
              "type": "bytes32"
            },
            {
              "internalType": "address",
              "name": "from",
              "type": "address"
            }
          ],
          "internalType": "struct WorkspaceAccessFactoryUpgradeable.SNewWSAccessCall",
          "name": "req",
          "type": "tuple"
        },
        {
          "internalType": "bytes",
          "name": "signature",
          "type": "bytes"
        }
      ],
      "name": "verify",
      "outputs": [
        {
          "internalType": "bool",
          "name": "",
          "type": "bool"
        }
      ],
      "stateMutability": "view",
      "type": "function"
    }
  ],
  "transactionHash": "0xfe783e1f2a5f27b2a3a87cd1609ae67a17d9eb4c7b4904c53184a5fdb604e00d",
  "args": [
    "0x990ff3C0767ffA9192C88B2Cdc7fB50E5209EEf4",
    "0xc901001DcFf76992734C5d35629fD06eA94c7aA5"
  ],
  "numDeployments": 4,
  "solcInputHash": "d83fd3ec353d9cade58a18317e35e0b4",
  "bytecode": "0x60c060405234801561001057600080fd5b50604051611dfe380380611dfe83398101604081905261002f91610062565b6001600160a01b039182166080521660a052610095565b80516001600160a01b038116811461005d57600080fd5b919050565b6000806040838503121561007557600080fd5b61007e83610046565b915061008c60208401610046565b90509250929050565b60805160a051611d366100c86000396000818161011c0152610c800152600081816101d301526104f80152611d366000f3fe608060405260043610620001075760003560e01c80639e82498f1162000095578063e52cb36a1162000060578063e52cb36a1462000334578063f2fde38b1462000368578063f9aebda0146200038d578063ffa1ad7414620003c157600080fd5b80639e82498f14620002a2578063c4d66de814620002d6578063ca4949a114620002fb578063e49d0045146200031d57600080fd5b8063694c326811620000d6578063694c326814620001f8578063715018a614620002325780638b8bb3ab146200024c5780638da5cb5b146200028257600080fd5b806312fde4b7146200010c57806335b078e4146200015957806349c0d851146200019e5780634ce7485914620001c3575b600080fd5b3480156200011957600080fd5b507f00000000000000000000000000000000000000000000000000000000000000005b6040516001600160a01b0390911681526020015b60405180910390f35b3480156200016657600080fd5b506200018f7f1becc1319ea6649d8dda25d2f128127a5558f8d8ee2c917cdc338ed82b537ca081565b60405190815260200162000150565b348015620001ab57600080fd5b506200013c620001bd3660046200116d565b62000403565b348015620001d057600080fd5b507f00000000000000000000000000000000000000000000000000000000000000006200013c565b3480156200020557600080fd5b506200013c620002173660046200116d565b6000908152609a60205260409020546001600160a01b031690565b3480156200023f57600080fd5b506200024a6200042e565b005b3480156200025957600080fd5b50620002716200026b3660046200119d565b62000446565b604051901515815260200162000150565b3480156200028f57600080fd5b506033546001600160a01b03166200013c565b348015620002af57600080fd5b5062000271620002c136600462001272565b609d6020526000908152604090205460ff1681565b348015620002e357600080fd5b506200024a620002f536600462001272565b62000524565b3480156200030857600080fd5b50609b546200013c906001600160a01b031681565b6200013c6200032e3660046200119d565b620006a0565b3480156200034157600080fd5b5062000271620003533660046200116d565b6000908152609c602052604090205460ff1690565b3480156200037557600080fd5b506200024a6200038736600462001272565b62000a64565b3480156200039a57600080fd5b5062000271620003ac3660046200116d565b609c6020526000908152604090205460ff1681565b348015620003ce57600080fd5b50620003f460405180604001604052806005815260200164181718171960d91b81525081565b604051620001509190620012f4565b609981815481106200041457600080fd5b6000918252602090912001546001600160a01b0316905081565b6200043862000ae3565b62000444600062000b3f565b565b600080620004ee83620004e77f1becc1319ea6649d8dda25d2f128127a5558f8d8ee2c917cdc338ed82b537ca08735602089013560408a013560608b01356200049660a08d0160808e0162001272565b6040805160208101979097528601949094526060850192909252608084015260a08301526001600160a01b031660c082015260e0016040516020818303038152906040528051906020012062000b91565b9062000be8565b6001600160a01b037f00000000000000000000000000000000000000000000000000000000000000008116911614949350505050565b600054610100900460ff1615808015620005455750600054600160ff909116105b80620005615750303b15801562000561575060005460ff166001145b620005ca5760405162461bcd60e51b815260206004820152602e60248201527f496e697469616c697a61626c653a20636f6e747261637420697320616c72656160448201526d191e481a5b9a5d1a585b1a5e995960921b60648201526084015b60405180910390fd5b6000805460ff191660011790558015620005ee576000805461ff0019166101001790555b609b80546001600160a01b0319166001600160a01b0384161790556200061362000c10565b6200065560405180606001604052806021815260200162001ce06021913960405180604001604052806005815260200164181718171960d91b81525062000c44565b80156200069c576000805461ff0019169055604051600181527f7f26b83ff96e1f2b6a682f133852f6798a09c465da95921460cefb38474024989060200160405180910390a15b5050565b81356000908152609a60205260408120546001600160a01b031615620007125760405162461bcd60e51b8152602060048201526031602482015260008051602062001cc0833981519152604482015270653a20416c72656164792065786973747360781b6064820152608401620005c1565b60608301356000908152609c602052604090205460ff1615620007835760405162461bcd60e51b8152602060048201526033602482015260008051602062001cc0833981519152604482015272194e88105b1c9958591e48195e1958dd5d1959606a1b6064820152608401620005c1565b6200078f838362000446565b620007e95760405162461bcd60e51b8152602060048201526034602482015260008051602062001cc0833981519152604482015273653a20494e56414c49445f5349474e415455524560601b6064820152608401620005c1565b33620007fc60a085016080860162001272565b6001600160a01b0316146200085b5760405162461bcd60e51b815260206004820152602f602482015260008051602062001cc083398151915260448201526e329d102bb937b7339039b2b73232b960891b6064820152608401620005c1565b8260400135341015620008b45760405162461bcd60e51b815260206004820152602b602482015260008051602062001cc083398151915260448201526a653a20746f6f206c65737360a81b6064820152608401620005c1565b60608301356000908152609c60205260408120805460ff19166001179055609b546001600160a01b0316633d0d630f60e11b620008ee3390565b6040516001600160a01b039091166024820152602087013560448201528635606482015260840160408051601f198184030181529181526020820180516001600160e01b03166001600160e01b031990941693909317909252905162000954906200115f565b6200096192919062001309565b604051809103906000f0801580156200097e573d6000803e3d6000fd5b5084356000908152609a602052604080822080546001600160a01b0385166001600160a01b031991821681179092556099805460018101825594527f72a152ddfb8e864297c917af52ea6c1c68aead0fee1a62673fcc7e0c94979d00909301805490931617909155909150819085013515620009ff57620009ff3462000c7a565b6001600160a01b0381166000818152609d6020908152604091829020805460ff1916600117905581519283528735908301527f18648f3e5025d4ee15a007a5f99c5a2a98188c9acce1b3898a6ce1e0671fb932910160405180910390a1949350505050565b62000a6e62000ae3565b6001600160a01b03811662000ad55760405162461bcd60e51b815260206004820152602660248201527f4f776e61626c653a206e6577206f776e657220697320746865207a65726f206160448201526564647265737360d01b6064820152608401620005c1565b62000ae08162000b3f565b50565b6033546001600160a01b03163314620004445760405162461bcd60e51b815260206004820181905260248201527f4f776e61626c653a2063616c6c6572206973206e6f7420746865206f776e65726044820152606401620005c1565b603380546001600160a01b038381166001600160a01b0319831681179093556040519116919082907f8be0079c531659141344cd1fd0a4f28419497f9722a3daafe3b4186f6b6457e090600090a35050565b600062000be262000ba162000ca6565b8360405161190160f01b6020820152602281018390526042810182905260009060620160405160208183030381529060405280519060200120905092915050565b92915050565b600080600062000bf9858562000d28565b9150915062000c088162000d72565b509392505050565b600054610100900460ff1662000c3a5760405162461bcd60e51b8152600401620005c19062001337565b6200044462000f45565b600054610100900460ff1662000c6e5760405162461bcd60e51b8152600401620005c19062001337565b6200069c828262000f7a565b62000ae07f00000000000000000000000000000000000000000000000000000000000000008262000fbe565b600062000d237f8b73c3c69bb8fe3d512ecc4cf759cc79239f7b179b0ffacaa9a75d522b39400f62000cd760655490565b6066546040805160208101859052908101839052606081018290524660808201523060a082015260009060c0016040516020818303038152906040528051906020012090509392505050565b905090565b60008082516041141562000d635760208301516040840151606085015160001a62000d56878285856200106a565b9450945050505062000d6b565b506000905060025b9250929050565b600081600481111562000d895762000d8962001382565b141562000d935750565b600181600481111562000daa5762000daa62001382565b141562000dfa5760405162461bcd60e51b815260206004820152601860248201527f45434453413a20696e76616c6964207369676e617475726500000000000000006044820152606401620005c1565b600281600481111562000e115762000e1162001382565b141562000e615760405162461bcd60e51b815260206004820152601f60248201527f45434453413a20696e76616c6964207369676e6174757265206c656e677468006044820152606401620005c1565b600381600481111562000e785762000e7862001382565b141562000ed35760405162461bcd60e51b815260206004820152602260248201527f45434453413a20696e76616c6964207369676e6174757265202773272076616c604482015261756560f01b6064820152608401620005c1565b600481600481111562000eea5762000eea62001382565b141562000ae05760405162461bcd60e51b815260206004820152602260248201527f45434453413a20696e76616c6964207369676e6174757265202776272076616c604482015261756560f01b6064820152608401620005c1565b600054610100900460ff1662000f6f5760405162461bcd60e51b8152600401620005c19062001337565b620004443362000b3f565b600054610100900460ff1662000fa45760405162461bcd60e51b8152600401620005c19062001337565b815160209283012081519190920120606591909155606655565b6000826001600160a01b03168260405160006040518083038185875af1925050503d80600081146200100d576040519150601f19603f3d011682016040523d82523d6000602084013e62001012565b606091505b5050905080620010655760405162461bcd60e51b815260206004820181905260248201527f50616964416374696f6e733a20666565207472616e73666572206661696c65646044820152606401620005c1565b505050565b6000807f7fffffffffffffffffffffffffffffff5d576e7357a4501ddfe92f46681b20a0831115620010a3575060009050600362001156565b8460ff16601b14158015620010bc57508460ff16601c14155b15620010cf575060009050600462001156565b6040805160008082526020820180845289905260ff881692820192909252606081018690526080810185905260019060a0016020604051602081039080840390855afa15801562001124573d6000803e3d6000fd5b5050604051601f1901519150506001600160a01b0381166200114f5760006001925092505062001156565b9150600090505b94509492505050565b610927806200139983390190565b6000602082840312156200118057600080fd5b5035919050565b634e487b7160e01b600052604160045260246000fd5b60008082840360c0811215620011b257600080fd5b60a0811215620011c157600080fd5b5082915060a083013567ffffffffffffffff80821115620011e157600080fd5b818501915085601f830112620011f657600080fd5b8135818111156200120b576200120b62001187565b604051601f8201601f19908116603f0116810190838211818310171562001236576200123662001187565b816040528281528860208487010111156200125057600080fd5b8260208601602083013760006020848301015280955050505050509250929050565b6000602082840312156200128557600080fd5b81356001600160a01b03811681146200129d57600080fd5b9392505050565b6000815180845260005b81811015620012cc57602081850181015186830182015201620012ae565b81811115620012df576000602083870101525b50601f01601f19169290920160200192915050565b6020815260006200129d6020830184620012a4565b6001600160a01b03831681526040602082018190526000906200132f90830184620012a4565b949350505050565b6020808252602b908201527f496e697469616c697a61626c653a20636f6e7472616374206973206e6f74206960408201526a6e697469616c697a696e6760a81b606082015260800190565b634e487b7160e01b600052602160045260246000fdfe608060405260405161092738038061092783398101604081905261002291610474565b61002e82826000610035565b505061059e565b61003e8361010f565b6040516001600160a01b038416907f1cf3b03a6cf19fa2baba4df148e9dcabedea7f8a5c07840e207e5c089be95d3e90600090a260008251118061007f5750805b1561010a57610108836001600160a01b0316635c60da1b6040518163ffffffff1660e01b815260040160206040518083038186803b1580156100c057600080fd5b505afa1580156100d4573d6000803e3d6000fd5b505050506040513d601f19601f820116820180604052508101906100f89190610534565b836102c160201b6100291760201c565b505b505050565b610122816102ed60201b6100551760201c565b6101815760405162461bcd60e51b815260206004820152602560248201527f455243313936373a206e657720626561636f6e206973206e6f74206120636f6e6044820152641d1c9858dd60da1b60648201526084015b60405180910390fd5b610204816001600160a01b0316635c60da1b6040518163ffffffff1660e01b815260040160206040518083038186803b1580156101bd57600080fd5b505afa1580156101d1573d6000803e3d6000fd5b505050506040513d601f19601f820116820180604052508101906101f59190610534565b6102ed60201b6100551760201c565b6102695760405162461bcd60e51b815260206004820152603060248201527f455243313936373a20626561636f6e20696d706c656d656e746174696f6e206960448201526f1cc81b9bdd08184818dbdb9d1c9858dd60821b6064820152608401610178565b806102a07fa3f0ad74e5423aebfd80d3ef4346578335a9a72aeaee59ff6cb3582b35133d5060001b6102fc60201b6100641760201c565b80546001600160a01b0319166001600160a01b039290921691909117905550565b60606102e68383604051806060016040528060278152602001610900602791396102ff565b9392505050565b6001600160a01b03163b151590565b90565b60606001600160a01b0384163b6103675760405162461bcd60e51b815260206004820152602660248201527f416464726573733a2064656c65676174652063616c6c20746f206e6f6e2d636f6044820152651b9d1c9858dd60d21b6064820152608401610178565b600080856001600160a01b031685604051610382919061054f565b600060405180830381855af49150503d80600081146103bd576040519150601f19603f3d011682016040523d82523d6000602084013e6103c2565b606091505b5090925090506103d38282866103dd565b9695505050505050565b606083156103ec5750816102e6565b8251156103fc5782518084602001fd5b8160405162461bcd60e51b8152600401610178919061056b565b80516001600160a01b038116811461042d57600080fd5b919050565b634e487b7160e01b600052604160045260246000fd5b60005b8381101561046357818101518382015260200161044b565b838111156101085750506000910152565b6000806040838503121561048757600080fd5b61049083610416565b60208401519092506001600160401b03808211156104ad57600080fd5b818501915085601f8301126104c157600080fd5b8151818111156104d3576104d3610432565b604051601f8201601f19908116603f011681019083821181831017156104fb576104fb610432565b8160405282815288602084870101111561051457600080fd5b610525836020830160208801610448565b80955050505050509250929050565b60006020828403121561054657600080fd5b6102e682610416565b60008251610561818460208701610448565b9190910192915050565b602081526000825180602084015261058a816040850160208701610448565b601f01601f19169190910160400192915050565b610353806105ad6000396000f3fe60806040523661001357610011610017565b005b6100115b610027610022610067565b61010f565b565b606061004e83836040518060600160405280602781526020016102f760279139610133565b9392505050565b6001600160a01b03163b151590565b90565b600061009a7fa3f0ad74e5423aebfd80d3ef4346578335a9a72aeaee59ff6cb3582b35133d50546001600160a01b031690565b6001600160a01b0316635c60da1b6040518163ffffffff1660e01b815260040160206040518083038186803b1580156100d257600080fd5b505afa1580156100e6573d6000803e3d6000fd5b505050506040513d601f19601f8201168201806040525081019061010a919061024e565b905090565b3660008037600080366000845af43d6000803e80801561012e573d6000f35b3d6000fd5b60606001600160a01b0384163b6101a05760405162461bcd60e51b815260206004820152602660248201527f416464726573733a2064656c65676174652063616c6c20746f206e6f6e2d636f6044820152651b9d1c9858dd60d21b60648201526084015b60405180910390fd5b600080856001600160a01b0316856040516101bb91906102a7565b600060405180830381855af49150503d80600081146101f6576040519150601f19603f3d011682016040523d82523d6000602084013e6101fb565b606091505b509150915061020b828286610215565b9695505050505050565b6060831561022457508161004e565b8251156102345782518084602001fd5b8160405162461bcd60e51b815260040161019791906102c3565b60006020828403121561026057600080fd5b81516001600160a01b038116811461004e57600080fd5b60005b8381101561029257818101518382015260200161027a565b838111156102a1576000848401525b50505050565b600082516102b9818460208701610277565b9190910192915050565b60208152600082518060208401526102e2816040850160208701610277565b601f01601f1916919091016040019291505056fe416464726573733a206c6f772d6c6576656c2064656c65676174652063616c6c206661696c6564a26469706673582212200ef9d27fce5798cd4a891ef88062917bde44c850e9656b8713f5943eca66c23564736f6c63430008090033416464726573733a206c6f772d6c6576656c2064656c65676174652063616c6c206661696c6564576f726b7370616365416363657373466163746f72795570677261646561626c576f726b7370616365416363657373466163746f72795570677261646561626c65a264697066735822122068ee3d95258c01da85b13111950c1613399ec3983c9a77877cf77b74a41542c764736f6c63430008090033",
  "devdoc": {
    "kind": "dev",
    "methods": {
      "owner()": {
        "details": "Returns the address of the current owner."
      },
      "renounceOwnership()": {
        "details": "Leaves the contract without owner. It will not be possible to call `onlyOwner` functions anymore. Can only be called by the current owner. NOTE: Renouncing ownership will leave the contract without an owner, thereby removing any functionality that is only available to the owner."
      },
      "transferOwnership(address)": {
        "details": "Transfers ownership of the contract to a new account (`newOwner`). Can only be called by the current owner."
      }
    },
    "version": 1
  },
  "userdoc": {
    "kind": "user",
    "methods": {},
    "version": 1
  },
  "storageLayout": {
    "storage": [
      {
        "astId": 585,
        "contract": "contracts/WorkspaceAccess/WorkspaceAccessFactoryUpgradeable.sol:WorkspaceAccessFactoryUpgradeable",
        "label": "_initialized",
        "offset": 0,
        "slot": "0",
        "type": "t_uint8"
      },
      {
        "astId": 588,
        "contract": "contracts/WorkspaceAccess/WorkspaceAccessFactoryUpgradeable.sol:WorkspaceAccessFactoryUpgradeable",
        "label": "_initializing",
        "offset": 1,
        "slot": "0",
        "type": "t_bool"
      },
      {
        "astId": 2831,
        "contract": "contracts/WorkspaceAccess/WorkspaceAccessFactoryUpgradeable.sol:WorkspaceAccessFactoryUpgradeable",
        "label": "__gap",
        "offset": 0,
        "slot": "1",
        "type": "t_array(t_uint256)50_storage"
      },
      {
        "astId": 438,
        "contract": "contracts/WorkspaceAccess/WorkspaceAccessFactoryUpgradeable.sol:WorkspaceAccessFactoryUpgradeable",
        "label": "_owner",
        "offset": 0,
        "slot": "51",
        "type": "t_address"
      },
      {
        "astId": 558,
        "contract": "contracts/WorkspaceAccess/WorkspaceAccessFactoryUpgradeable.sol:WorkspaceAccessFactoryUpgradeable",
        "label": "__gap",
        "offset": 0,
        "slot": "52",
        "type": "t_array(t_uint256)49_storage"
      },
      {
        "astId": 3455,
        "contract": "contracts/WorkspaceAccess/WorkspaceAccessFactoryUpgradeable.sol:WorkspaceAccessFactoryUpgradeable",
        "label": "_HASHED_NAME",
        "offset": 0,
        "slot": "101",
        "type": "t_bytes32"
      },
      {
        "astId": 3457,
        "contract": "contracts/WorkspaceAccess/WorkspaceAccessFactoryUpgradeable.sol:WorkspaceAccessFactoryUpgradeable",
        "label": "_HASHED_VERSION",
        "offset": 0,
        "slot": "102",
        "type": "t_bytes32"
      },
      {
        "astId": 3595,
        "contract": "contracts/WorkspaceAccess/WorkspaceAccessFactoryUpgradeable.sol:WorkspaceAccessFactoryUpgradeable",
        "label": "__gap",
        "offset": 0,
        "slot": "103",
        "type": "t_array(t_uint256)50_storage"
      },
      {
        "astId": 8314,
        "contract": "contracts/WorkspaceAccess/WorkspaceAccessFactoryUpgradeable.sol:WorkspaceAccessFactoryUpgradeable",
        "label": "contractsAddresses",
        "offset": 0,
        "slot": "153",
        "type": "t_array(t_address)dyn_storage"
      },
      {
        "astId": 8318,
        "contract": "contracts/WorkspaceAccess/WorkspaceAccessFactoryUpgradeable.sol:WorkspaceAccessFactoryUpgradeable",
        "label": "workspaceAccessContracts",
        "offset": 0,
        "slot": "154",
        "type": "t_mapping(t_uint256,t_address)"
      },
      {
        "astId": 8320,
        "contract": "contracts/WorkspaceAccess/WorkspaceAccessFactoryUpgradeable.sol:WorkspaceAccessFactoryUpgradeable",
        "label": "accessBeacon",
        "offset": 0,
        "slot": "155",
        "type": "t_address"
      },
      {
        "astId": 8324,
        "contract": "contracts/WorkspaceAccess/WorkspaceAccessFactoryUpgradeable.sol:WorkspaceAccessFactoryUpgradeable",
        "label": "executedMap",
        "offset": 0,
        "slot": "156",
        "type": "t_mapping(t_bytes32,t_bool)"
      },
      {
        "astId": 8328,
        "contract": "contracts/WorkspaceAccess/WorkspaceAccessFactoryUpgradeable.sol:WorkspaceAccessFactoryUpgradeable",
        "label": "isWorkspaceAccessContract",
        "offset": 0,
        "slot": "157",
        "type": "t_mapping(t_address,t_bool)"
      }
    ],
    "types": {
      "t_address": {
        "encoding": "inplace",
        "label": "address",
        "numberOfBytes": "20"
      },
      "t_array(t_address)dyn_storage": {
        "base": "t_address",
        "encoding": "dynamic_array",
        "label": "address[]",
        "numberOfBytes": "32"
      },
      "t_array(t_uint256)49_storage": {
        "base": "t_uint256",
        "encoding": "inplace",
        "label": "uint256[49]",
        "numberOfBytes": "1568"
      },
      "t_array(t_uint256)50_storage": {
        "base": "t_uint256",
        "encoding": "inplace",
        "label": "uint256[50]",
        "numberOfBytes": "1600"
      },
      "t_bool": {
        "encoding": "inplace",
        "label": "bool",
        "numberOfBytes": "1"
      },
      "t_bytes32": {
        "encoding": "inplace",
        "label": "bytes32",
        "numberOfBytes": "32"
      },
      "t_mapping(t_address,t_bool)": {
        "encoding": "mapping",
        "key": "t_address",
        "label": "mapping(address => bool)",
        "numberOfBytes": "32",
        "value": "t_bool"
      },
      "t_mapping(t_bytes32,t_bool)": {
        "encoding": "mapping",
        "key": "t_bytes32",
        "label": "mapping(bytes32 => bool)",
        "numberOfBytes": "32",
        "value": "t_bool"
      },
      "t_mapping(t_uint256,t_address)": {
        "encoding": "mapping",
        "key": "t_uint256",
        "label": "mapping(uint256 => address)",
        "numberOfBytes": "32",
        "value": "t_address"
      },
      "t_uint256": {
        "encoding": "inplace",
        "label": "uint256",
        "numberOfBytes": "32"
      },
      "t_uint8": {
        "encoding": "inplace",
        "label": "uint8",
        "numberOfBytes": "1"
      }
    }
  }
}