{
  "address": "0x305f4c9852D78bC6080B4aEADa262112babf981C",
  "abi": [
    {
      "inputs": [
        {
          "internalType": "address",
          "name": "account",
          "type": "address"
        }
      ],
      "name": "toString",
      "outputs": [
        {
          "internalType": "string",
          "name": "",
          "type": "string"
        }
      ],
      "stateMutability": "pure",
      "type": "function"
    },
    {
      "inputs": [
        {
          "internalType": "bytes",
          "name": "data",
          "type": "bytes"
        }
      ],
      "name": "toString",
      "outputs": [
        {
          "internalType": "string",
          "name": "",
          "type": "string"
        }
      ],
      "stateMutability": "pure",
      "type": "function"
    },
    {
      "inputs": [
        {
          "internalType": "bytes32",
          "name": "source",
          "type": "bytes32"
        }
      ],
      "name": "toString",
      "outputs": [
        {
          "internalType": "string",
          "name": "result",
          "type": "string"
        }
      ],
      "stateMutability": "pure",
      "type": "function"
    }
  ],
  "transactionHash": "0x2c0f8034723adca422dba3fe6a1ca8ce3d1035a1a487af4195e9966ee222e207",
  "args": [],
  "numDeployments": 1,
  "solcInputHash": "5501522db605839705b32f707765afb0",
  "bytecode": "0x61059a61003a600b82828239805160001a60731461002d57634e487b7160e01b600052600060045260246000fd5b30600052607381538281f3fe730000000000000000000000000000000000000000301460806040526004361061004b5760003560e01c806356ca623e1461005057806371aad10d14610079578063b11a19e81461008c575b600080fd5b61006361005e366004610361565b61009f565b6040516100709190610391565b60405180910390f35b6100636100873660046103fc565b6100dd565b61006361009a3660046104ad565b6102f6565b604051606082811b6bffffffffffffffffffffffff19166020830152906100d7906034016040516020818303038152906040526100dd565b92915050565b60408051808201909152601081526f181899199a1a9b1b9c1cb0b131b232b360811b60208201528151606091906000906101189060026104dc565b6101239060026104fb565b67ffffffffffffffff81111561013b5761013b6103e6565b6040519080825280601f01601f191660200182016040528015610165576020820181803683370190505b509050600360fc1b8160008151811061018057610180610513565b60200101906001600160f81b031916908160001a905350600f60fb1b816001815181106101af576101af610513565b60200101906001600160f81b031916908160001a90535060005b84518110156102ee578260048683815181106101e7576101e7610513565b016020015182516001600160f81b031990911690911c60f81c90811061020f5761020f610513565b01602001516001600160f81b0319168261022a8360026104dc565b6102359060026104fb565b8151811061024557610245610513565b60200101906001600160f81b031916908160001a9053508285828151811061026f5761026f610513565b602091010151815160f89190911c600f1690811061028f5761028f610513565b01602001516001600160f81b031916826102aa8360026104dc565b6102b59060036104fb565b815181106102c5576102c5610513565b60200101906001600160f81b031916908160001a905350806102e681610529565b9150506101c9565b509392505050565b606060005b828160ff166020811061031057610310610513565b1a60f81b6001600160f81b0319161580159061032f575060208160ff16105b15610346578061033e81610544565b9150506102fb565b60405191506040820160405280825282602083015250919050565b60006020828403121561037357600080fd5b81356001600160a01b038116811461038a57600080fd5b9392505050565b600060208083528351808285015260005b818110156103be578581018301518582016040015282016103a2565b818111156103d0576000604083870101525b50601f01601f1916929092016040019392505050565b634e487b7160e01b600052604160045260246000fd5b60006020828403121561040e57600080fd5b813567ffffffffffffffff8082111561042657600080fd5b818401915084601f83011261043a57600080fd5b81358181111561044c5761044c6103e6565b604051601f8201601f19908116603f01168101908382118183101715610474576104746103e6565b8160405282815287602084870101111561048d57600080fd5b826020860160208301376000928101602001929092525095945050505050565b6000602082840312156104bf57600080fd5b5035919050565b634e487b7160e01b600052601160045260246000fd5b60008160001904831182151516156104f6576104f66104c6565b500290565b6000821982111561050e5761050e6104c6565b500190565b634e487b7160e01b600052603260045260246000fd5b600060001982141561053d5761053d6104c6565b5060010190565b600060ff821660ff81141561055b5761055b6104c6565b6001019291505056fea2646970667358221220da6aff783ebbc4620725243158bc5edcd1edde80bc414c53da2e25f27292100064736f6c63430008090033",
  "devdoc": {
    "kind": "dev",
    "methods": {},
    "version": 1
  },
  "userdoc": {
    "kind": "user",
    "methods": {},
    "version": 1
  },
  "storageLayout": {
    "storage": [],
    "types": null
  }
}