{
  "address": "0xB3bAe082EE1A4132C5930F229f972f3001E21c91",
  "abi": [
    {
      "inputs": [
        {
          "internalType": "address",
          "name": "signer_",
          "type": "address"
        },
        {
          "internalType": "uint256",
          "name": "feePercentage_",
          "type": "uint256"
        },
        {
          "internalType": "address",
          "name": "feeCollector_",
          "type": "address"
        }
      ],
      "stateMutability": "nonpayable",
      "type": "constructor"
    },
    {
      "anonymous": false,
      "inputs": [
        {
          "indexed": false,
          "internalType": "uint8",
          "name": "plan",
          "type": "uint8"
        },
        {
          "indexed": false,
          "internalType": "uint256",
          "name": "accessCost",
          "type": "uint256"
        }
      ],
      "name": "AccessCost",
      "type": "event"
    },
    {
      "anonymous": false,
      "inputs": [
        {
          "indexed": false,
          "internalType": "uint8",
          "name": "plan",
          "type": "uint8"
        },
        {
          "indexed": false,
          "internalType": "uint256",
          "name": "amountPaid",
          "type": "uint256"
        },
        {
          "indexed": false,
          "internalType": "address",
          "name": "user",
          "type": "address"
        },
        {
          "indexed": false,
          "internalType": "uint256",
          "name": "expireAt",
          "type": "uint256"
        }
      ],
      "name": "AccessPaid",
      "type": "event"
    },
    {
      "anonymous": false,
      "inputs": [
        {
          "indexed": false,
          "internalType": "uint8",
          "name": "version",
          "type": "uint8"
        }
      ],
      "name": "Initialized",
      "type": "event"
    },
    {
      "anonymous": false,
      "inputs": [
        {
          "indexed": false,
          "internalType": "uint8",
          "name": "plan",
          "type": "uint8"
        },
        {
          "indexed": false,
          "internalType": "bool",
          "name": "isActive",
          "type": "bool"
        }
      ],
      "name": "PlanIsActive",
      "type": "event"
    },
    {
      "inputs": [],
      "name": "SSetCostCallTypeHash",
      "outputs": [
        {
          "internalType": "bytes32",
          "name": "",
          "type": "bytes32"
        }
      ],
      "stateMutability": "view",
      "type": "function"
    },
    {
      "inputs": [],
      "name": "VERSION",
      "outputs": [
        {
          "internalType": "string",
          "name": "",
          "type": "string"
        }
      ],
      "stateMutability": "view",
      "type": "function"
    },
    {
      "inputs": [],
      "name": "accessCost",
      "outputs": [
        {
          "internalType": "uint256",
          "name": "",
          "type": "uint256"
        }
      ],
      "stateMutability": "view",
      "type": "function"
    },
    {
      "inputs": [
        {
          "internalType": "address",
          "name": "",
          "type": "address"
        }
      ],
      "name": "accessPaidAt",
      "outputs": [
        {
          "internalType": "uint256",
          "name": "",
          "type": "uint256"
        }
      ],
      "stateMutability": "view",
      "type": "function"
    },
    {
      "inputs": [],
      "name": "beneficiary",
      "outputs": [
        {
          "internalType": "address",
          "name": "",
          "type": "address"
        }
      ],
      "stateMutability": "view",
      "type": "function"
    },
    {
      "inputs": [
        {
          "internalType": "bytes32",
          "name": "",
          "type": "bytes32"
        }
      ],
      "name": "executedMap",
      "outputs": [
        {
          "internalType": "bool",
          "name": "",
          "type": "bool"
        }
      ],
      "stateMutability": "view",
      "type": "function"
    },
    {
      "inputs": [
        {
          "internalType": "uint8",
          "name": "plan",
          "type": "uint8"
        }
      ],
      "name": "getCost",
      "outputs": [
        {
          "internalType": "uint256",
          "name": "",
          "type": "uint256"
        }
      ],
      "stateMutability": "view",
      "type": "function"
    },
    {
      "inputs": [],
      "name": "getFeeCollector",
      "outputs": [
        {
          "internalType": "address",
          "name": "",
          "type": "address"
        }
      ],
      "stateMutability": "view",
      "type": "function"
    },
    {
      "inputs": [],
      "name": "getFeePercentage",
      "outputs": [
        {
          "internalType": "uint256",
          "name": "",
          "type": "uint256"
        }
      ],
      "stateMutability": "view",
      "type": "function"
    },
    {
      "inputs": [
        {
          "internalType": "address[]",
          "name": "accounts",
          "type": "address[]"
        }
      ],
      "name": "hasAccessBatch",
      "outputs": [
        {
          "internalType": "bool[]",
          "name": "",
          "type": "bool[]"
        }
      ],
      "stateMutability": "view",
      "type": "function"
    },
    {
      "inputs": [
        {
          "internalType": "address",
          "name": "beneficiary_",
          "type": "address"
        },
        {
          "internalType": "uint256",
          "name": "accessCost_",
          "type": "uint256"
        },
        {
          "internalType": "uint256",
          "name": "workspaceId_",
          "type": "uint256"
        }
      ],
      "name": "initialize",
      "outputs": [],
      "stateMutability": "nonpayable",
      "type": "function"
    },
    {
      "inputs": [
        {
          "internalType": "bytes32",
          "name": "interactionId",
          "type": "bytes32"
        }
      ],
      "name": "isExecuted",
      "outputs": [
        {
          "internalType": "bool",
          "name": "",
          "type": "bool"
        }
      ],
      "stateMutability": "view",
      "type": "function"
    },
    {
      "inputs": [
        {
          "internalType": "uint8",
          "name": "plan",
          "type": "uint8"
        }
      ],
      "name": "pay",
      "outputs": [],
      "stateMutability": "payable",
      "type": "function"
    },
    {
      "inputs": [
        {
          "components": [
            {
              "internalType": "uint8",
              "name": "plan",
              "type": "uint8"
            },
            {
              "internalType": "bool",
              "name": "isActive",
              "type": "bool"
            },
            {
              "internalType": "bytes32",
              "name": "interactionId",
              "type": "bytes32"
            },
            {
              "internalType": "address",
              "name": "from",
              "type": "address"
            }
          ],
          "internalType": "struct WorkspaceAccessUpgradeable.SPlanActivationCall",
          "name": "req",
          "type": "tuple"
        },
        {
          "internalType": "bytes",
          "name": "signature",
          "type": "bytes"
        }
      ],
      "name": "planActivation",
      "outputs": [],
      "stateMutability": "nonpayable",
      "type": "function"
    },
    {
      "inputs": [
        {
          "internalType": "uint8",
          "name": "",
          "type": "uint8"
        }
      ],
      "name": "planIsActive",
      "outputs": [
        {
          "internalType": "bool",
          "name": "",
          "type": "bool"
        }
      ],
      "stateMutability": "view",
      "type": "function"
    },
    {
      "inputs": [
        {
          "components": [
            {
              "internalType": "uint8",
              "name": "plan",
              "type": "uint8"
            },
            {
              "internalType": "uint256",
              "name": "accessCost",
              "type": "uint256"
            },
            {
              "internalType": "bytes32",
              "name": "interactionId",
              "type": "bytes32"
            },
            {
              "internalType": "address",
              "name": "from",
              "type": "address"
            }
          ],
          "internalType": "struct WorkspaceAccessUpgradeable.SSetCostCall",
          "name": "req",
          "type": "tuple"
        },
        {
          "internalType": "bytes",
          "name": "signature",
          "type": "bytes"
        }
      ],
      "name": "setCost",
      "outputs": [],
      "stateMutability": "nonpayable",
      "type": "function"
    },
    {
      "inputs": [],
      "name": "signWallet",
      "outputs": [
        {
          "internalType": "address",
          "name": "",
          "type": "address"
        }
      ],
      "stateMutability": "view",
      "type": "function"
    },
    {
      "inputs": [
        {
          "components": [
            {
              "internalType": "uint8",
              "name": "plan",
              "type": "uint8"
            },
            {
              "internalType": "bool",
              "name": "isActive",
              "type": "bool"
            },
            {
              "internalType": "bytes32",
              "name": "interactionId",
              "type": "bytes32"
            },
            {
              "internalType": "address",
              "name": "from",
              "type": "address"
            }
          ],
          "internalType": "struct WorkspaceAccessUpgradeable.SPlanActivationCall",
          "name": "req",
          "type": "tuple"
        },
        {
          "internalType": "bytes",
          "name": "signature",
          "type": "bytes"
        }
      ],
      "name": "verifyPlanActivationCall",
      "outputs": [
        {
          "internalType": "bool",
          "name": "",
          "type": "bool"
        }
      ],
      "stateMutability": "view",
      "type": "function"
    },
    {
      "inputs": [
        {
          "components": [
            {
              "internalType": "uint8",
              "name": "plan",
              "type": "uint8"
            },
            {
              "internalType": "uint256",
              "name": "accessCost",
              "type": "uint256"
            },
            {
              "internalType": "bytes32",
              "name": "interactionId",
              "type": "bytes32"
            },
            {
              "internalType": "address",
              "name": "from",
              "type": "address"
            }
          ],
          "internalType": "struct WorkspaceAccessUpgradeable.SSetCostCall",
          "name": "req",
          "type": "tuple"
        },
        {
          "internalType": "bytes",
          "name": "signature",
          "type": "bytes"
        }
      ],
      "name": "verifySetCostCall",
      "outputs": [
        {
          "internalType": "bool",
          "name": "",
          "type": "bool"
        }
      ],
      "stateMutability": "view",
      "type": "function"
    },
    {
      "inputs": [],
      "name": "workspaceId",
      "outputs": [
        {
          "internalType": "uint256",
          "name": "",
          "type": "uint256"
        }
      ],
      "stateMutability": "view",
      "type": "function"
    }
  ],
  "transactionHash": "0x561e988771b2d411d3fe8fd08e0db3b0a5144c6cee6aa7b3f5c08f54825ebbe4",
  "args": [
    "0xF0D8C6284a1305fe5359Cf26C194cE6Fc6a05041",
    500,
    "0x2F60BfC3dE718391eE068eE7Ff34AFD0Cd2376dE"
  ],
  "numDeployments": 3,
  "solcInputHash": "361eb17248f4e5cd7c2040e0e2cb3318",
  "bytecode": "0x60e060405234801561001057600080fd5b5060405162001685380380620016858339810160408190526100319161006a565b6001600160a01b0392831660805260c0919091521660a0526100a6565b80516001600160a01b038116811461006557600080fd5b919050565b60008060006060848603121561007f57600080fd5b6100888461004e565b92506020840151915061009d6040850161004e565b90509250925092565b60805160a05160c0516115a8620000dd600039600061013301526000610175015260008181610293015261066e01526115a86000f3fe60806040526004361061011f5760003560e01c806365da645f116100a0578063e058420211610064578063e058420214610391578063e52cb36a146103be578063f0c9325e146103ee578063f9aebda014610401578063ffa1ad741461043157600080fd5b806365da645f146102e7578063687ae514146103075780637a1ac61e146103275780639747653914610347578063d367d89e1461037b57600080fd5b8063375f2b96116100e7578063375f2b9614610212578063381761231461023457806338af3eed146102645780634ce7485914610284578063653b1ce8146102b757600080fd5b806311efbf611461012457806312fde4b714610166578063186759b2146101ad5780631e0b502c146101c357806322bcb3f7146101e5575b600080fd5b34801561013057600080fd5b507f00000000000000000000000000000000000000000000000000000000000000005b6040519081526020015b60405180910390f35b34801561017257600080fd5b507f00000000000000000000000000000000000000000000000000000000000000005b6040516001600160a01b03909116815260200161015d565b3480156101b957600080fd5b5061015360685481565b3480156101cf57600080fd5b506101e36101de36600461121f565b61046f565b005b3480156101f157600080fd5b5061015361020036600461128a565b606b6020526000908152604090205481565b34801561021e57600080fd5b5061015361022d3660046112ac565b5060685490565b34801561024057600080fd5b5061025461024f36600461121f565b6105af565b604051901515815260200161015d565b34801561027057600080fd5b50606754610195906001600160a01b031681565b34801561029057600080fd5b507f0000000000000000000000000000000000000000000000000000000000000000610195565b3480156102c357600080fd5b506102546102d23660046112ac565b606a6020526000908152604090205460ff1681565b3480156102f357600080fd5b5061025461030236600461121f565b61069a565b34801561031357600080fd5b506101e361032236600461121f565b610727565b34801561033357600080fd5b506101e36103423660046112cf565b610887565b34801561035357600080fd5b506101537f148353f3ba4ccd3787209c2471b44b6ce21a2676446da21a4a594dc743d7d70f81565b34801561038757600080fd5b5061015360695481565b34801561039d57600080fd5b506103b16103ac366004611302565b610a4b565b60405161015d91906113af565b3480156103ca57600080fd5b506102546103d93660046113f5565b6000908152606c602052604090205460ff1690565b6101e36103fc3660046112ac565b610b1c565b34801561040d57600080fd5b5061025461041c3660046113f5565b606c6020526000908152604090205460ff1681565b34801561043d57600080fd5b5061046260405180604001604052806005815260200164181718171960d91b81525081565b60405161015d919061140e565b6040808301356000908152606c602052205460ff16156104c95760405162461bcd60e51b815260206004820152601060248201526f105b1c9958591e48195e1958dd5d195960821b60448201526064015b60405180910390fd5b6104d382826105af565b6104ef5760405162461bcd60e51b81526004016104c090611463565b604080830180356000908152606c6020908152929020805460ff1916600117905561051b9184016114b0565b606a600061052c60208601866112ac565b60ff168152602080820192909252604001600020805460ff1916921515929092179091557ff3143aec5ab45d3ea21b4d2dcc6ee660346de04f5221ff3f28bb6ba0d9b8c9dd9061057e908401846112ac565b61058e60408501602086016114b0565b6040805160ff90931683529015156020830152015b60405180910390a15050565b6000806106648361065e7f707806a2ec791f6651777a55e222131c2d48a42a7092ede76a351c504d78453c6105e760208901896112ac565b6105f760408a0160208b016114b0565b60408a013561060c60808c0160608d0161128a565b60408051602081019690965260ff90941693850193909352901515606084015260808301526001600160a01b031660a082015260c0015b60405160208183030381529060405280519060200120610cb7565b90610d0b565b6001600160a01b037f00000000000000000000000000000000000000000000000000000000000000008116911614949350505050565b6000806106648361065e7f148353f3ba4ccd3787209c2471b44b6ce21a2676446da21a4a594dc743d7d70f6106d260208901896112ac565b602089013560408a01356106ec60808c0160608d0161128a565b60408051602081019690965260ff90941693850193909352606084019190915260808301526001600160a01b031660a082015260c001610643565b6040808301356000908152606c602052205460ff161561079e5760405162461bcd60e51b815260206004820152602c60248201527f576f726b73706163654163636573735570677261646561626c653a20416c726560448201526b18591e48195e1958dd5d195960a21b60648201526084016104c0565b6107ab60208301836112ac565b60ff166001146108235760405162461bcd60e51b815260206004820152603d60248201527f576f726b73706163654163636573735570677261646561626c653a204f6e6c7960448201527f20706c616e203d20312063757272656e746c7920737570706f7274656400000060648201526084016104c0565b61082d828261069a565b6108495760405162461bcd60e51b81526004016104c090611463565b6040808301356000908152606c6020908152919020805460ff1916600117905561088390610879908401846112ac565b8360200135610d2f565b5050565b600054610100900460ff16158080156108a75750600054600160ff909116105b806108c15750303b1580156108c1575060005460ff166001145b6109245760405162461bcd60e51b815260206004820152602e60248201527f496e697469616c697a61626c653a20636f6e747261637420697320616c72656160448201526d191e481a5b9a5d1a585b1a5e995960921b60648201526084016104c0565b6000805460ff191660011790558015610947576000805461ff0019166101001790555b606780546001600160a01b0319166001600160a01b0386161790556068839055606982905560016000819052606a60209081527ff585789965ba69220d5ce3dc1b444eb22ff546f2650694fef8fafe9c26560af9805460ff1916909217909155604080518082018252601a81527f576f726b73706163654163636573735570677261646561626c650000000000008184015281518083019092526005825264181718171960d91b928201929092526109ff9190610d6d565b8015610a45576000805461ff0019169055604051600181527f7f26b83ff96e1f2b6a682f133852f6798a09c465da95921460cefb38474024989060200160405180910390a15b50505050565b60606000825167ffffffffffffffff811115610a6957610a69611168565b604051908082528060200260200182016040528015610a92578160200160208202803683370190505b50905060005b8351811015610b15576000606b6000868481518110610ab957610ab96114d2565b60200260200101516001600160a01b03166001600160a01b031681526020019081526020016000205411828281518110610af557610af56114d2565b91151560209283029190910190910152610b0e816114e8565b9050610a98565b5092915050565b60ff8082166000908152606a602052604090205416610b6b5760405162461bcd60e51b815260206004820152600b60248201526a11195858dd1a5d985d195960aa1b60448201526064016104c0565b606854341015610baa5760405162461bcd60e51b815260206004820152600a60248201526909cdee840cadcdeeaced60b31b60448201526064016104c0565b60675460405160009182916001600160a01b039091169034908381818185875af1925050503d8060008114610bfb576040519150601f19603f3d011682016040523d82523d6000602084013e610c00565b606091505b509150915081610c525760405162461bcd60e51b815260206004820152601d60248201527f4661696c656420746f2073656e6420746f2062656e656669636961727900000060448201526064016104c0565b336000818152606b60209081526040808320429055805160ff88168152349281019290925281810193909352606081019190915290517fc931145a2e47efbb52a5e6b634230efac31af20a7558fb869c6bbc23dbbdafc79181900360800190a1505050565b6000610d05610cc4610d9e565b8360405161190160f01b6020820152602281018390526042810182905260009060620160405160208183030381529060405280519060200120905092915050565b92915050565b6000806000610d1a8585610e1e565b91509150610d2781610e64565b509392505050565b60688190556040805160ff84168152602081018390527f909c5b08c1c080752354ed2a148da49eb3bbb93e73bd894e2af499eab5414b4091016105a3565b600054610100900460ff16610d945760405162461bcd60e51b81526004016104c090611511565b6108838282611022565b6000610e197f8b73c3c69bb8fe3d512ecc4cf759cc79239f7b179b0ffacaa9a75d522b39400f610dcd60015490565b6002546040805160208101859052908101839052606081018290524660808201523060a082015260009060c0016040516020818303038152906040528051906020012090509392505050565b905090565b600080825160411415610e555760208301516040840151606085015160001a610e4987828585611063565b94509450505050610e5d565b506000905060025b9250929050565b6000816004811115610e7857610e7861155c565b1415610e815750565b6001816004811115610e9557610e9561155c565b1415610ee35760405162461bcd60e51b815260206004820152601860248201527f45434453413a20696e76616c6964207369676e6174757265000000000000000060448201526064016104c0565b6002816004811115610ef757610ef761155c565b1415610f455760405162461bcd60e51b815260206004820152601f60248201527f45434453413a20696e76616c6964207369676e6174757265206c656e6774680060448201526064016104c0565b6003816004811115610f5957610f5961155c565b1415610fb25760405162461bcd60e51b815260206004820152602260248201527f45434453413a20696e76616c6964207369676e6174757265202773272076616c604482015261756560f01b60648201526084016104c0565b6004816004811115610fc657610fc661155c565b141561101f5760405162461bcd60e51b815260206004820152602260248201527f45434453413a20696e76616c6964207369676e6174757265202776272076616c604482015261756560f01b60648201526084016104c0565b50565b600054610100900460ff166110495760405162461bcd60e51b81526004016104c090611511565b815160209283012081519190920120600191909155600255565b6000807f7fffffffffffffffffffffffffffffff5d576e7357a4501ddfe92f46681b20a083111561109a5750600090506003611147565b8460ff16601b141580156110b257508460ff16601c14155b156110c35750600090506004611147565b6040805160008082526020820180845289905260ff881692820192909252606081018690526080810185905260019060a0016020604051602081039080840390855afa158015611117573d6000803e3d6000fd5b5050604051601f1901519150506001600160a01b03811661114057600060019250925050611147565b9150600090505b94509492505050565b60006080828403121561116257600080fd5b50919050565b634e487b7160e01b600052604160045260246000fd5b604051601f8201601f1916810167ffffffffffffffff811182821017156111a7576111a7611168565b604052919050565b600082601f8301126111c057600080fd5b813567ffffffffffffffff8111156111da576111da611168565b6111ed601f8201601f191660200161117e565b81815284602083860101111561120257600080fd5b816020850160208301376000918101602001919091529392505050565b60008060a0838503121561123257600080fd5b61123c8484611150565b9150608083013567ffffffffffffffff81111561125857600080fd5b611264858286016111af565b9150509250929050565b80356001600160a01b038116811461128557600080fd5b919050565b60006020828403121561129c57600080fd5b6112a58261126e565b9392505050565b6000602082840312156112be57600080fd5b813560ff811681146112a557600080fd5b6000806000606084860312156112e457600080fd5b6112ed8461126e565b95602085013595506040909401359392505050565b6000602080838503121561131557600080fd5b823567ffffffffffffffff8082111561132d57600080fd5b818501915085601f83011261134157600080fd5b81358181111561135357611353611168565b8060051b915061136484830161117e565b818152918301840191848101908884111561137e57600080fd5b938501935b838510156113a3576113948561126e565b82529385019390850190611383565b98975050505050505050565b6020808252825182820181905260009190848201906040850190845b818110156113e95783511515835292840192918401916001016113cb565b50909695505050505050565b60006020828403121561140757600080fd5b5035919050565b600060208083528351808285015260005b8181101561143b5785810183015185820160400152820161141f565b8181111561144d576000604083870101525b50601f01601f1916929092016040019392505050565b6020808252602d908201527f576f726b73706163654163636573735570677261646561626c653a20494e564160408201526c4c49445f5349474e415455524560981b606082015260800190565b6000602082840312156114c257600080fd5b813580151581146112a557600080fd5b634e487b7160e01b600052603260045260246000fd5b600060001982141561150a57634e487b7160e01b600052601160045260246000fd5b5060010190565b6020808252602b908201527f496e697469616c697a61626c653a20636f6e7472616374206973206e6f74206960408201526a6e697469616c697a696e6760a81b606082015260800190565b634e487b7160e01b600052602160045260246000fdfea2646970667358221220dc5eeb40df24fbf98881587282bc2871dab531fe57f9f801b0a8d2b94f7f629f64736f6c63430008090033",
  "libraries": {
    "ECDSAUpgradeable": "0x26886b318972eC55034012356539eFCa7458c01f"
  },
  "devdoc": {
    "kind": "dev",
    "methods": {},
    "stateVariables": {
      "_feeCollector": {
        "custom:oz-upgrades-unsafe-allow": "state-variable-immutable"
      },
      "_feePercentage": {
        "custom:oz-upgrades-unsafe-allow": "state-variable-immutable"
      },
      "_signer": {
        "custom:oz-upgrades-unsafe-allow": "state-variable-immutable"
      }
    },
    "version": 1
  },
  "userdoc": {
    "kind": "user",
    "methods": {},
    "version": 1
  },
  "storageLayout": {
    "storage": [
      {
        "astId": 585,
        "contract": "contracts/WorkspaceAccess/WorkspaceAccessUpgradeable.sol:WorkspaceAccessUpgradeable",
        "label": "_initialized",
        "offset": 0,
        "slot": "0",
        "type": "t_uint8"
      },
      {
        "astId": 588,
        "contract": "contracts/WorkspaceAccess/WorkspaceAccessUpgradeable.sol:WorkspaceAccessUpgradeable",
        "label": "_initializing",
        "offset": 1,
        "slot": "0",
        "type": "t_bool"
      },
      {
        "astId": 3455,
        "contract": "contracts/WorkspaceAccess/WorkspaceAccessUpgradeable.sol:WorkspaceAccessUpgradeable",
        "label": "_HASHED_NAME",
        "offset": 0,
        "slot": "1",
        "type": "t_bytes32"
      },
      {
        "astId": 3457,
        "contract": "contracts/WorkspaceAccess/WorkspaceAccessUpgradeable.sol:WorkspaceAccessUpgradeable",
        "label": "_HASHED_VERSION",
        "offset": 0,
        "slot": "2",
        "type": "t_bytes32"
      },
      {
        "astId": 3595,
        "contract": "contracts/WorkspaceAccess/WorkspaceAccessUpgradeable.sol:WorkspaceAccessUpgradeable",
        "label": "__gap",
        "offset": 0,
        "slot": "3",
        "type": "t_array(t_uint256)50_storage"
      },
      {
        "astId": 2831,
        "contract": "contracts/WorkspaceAccess/WorkspaceAccessUpgradeable.sol:WorkspaceAccessUpgradeable",
        "label": "__gap",
        "offset": 0,
        "slot": "53",
        "type": "t_array(t_uint256)50_storage"
      },
      {
        "astId": 8349,
        "contract": "contracts/WorkspaceAccess/WorkspaceAccessUpgradeable.sol:WorkspaceAccessUpgradeable",
        "label": "beneficiary",
        "offset": 0,
        "slot": "103",
        "type": "t_address"
      },
      {
        "astId": 8351,
        "contract": "contracts/WorkspaceAccess/WorkspaceAccessUpgradeable.sol:WorkspaceAccessUpgradeable",
        "label": "accessCost",
        "offset": 0,
        "slot": "104",
        "type": "t_uint256"
      },
      {
        "astId": 8353,
        "contract": "contracts/WorkspaceAccess/WorkspaceAccessUpgradeable.sol:WorkspaceAccessUpgradeable",
        "label": "workspaceId",
        "offset": 0,
        "slot": "105",
        "type": "t_uint256"
      },
      {
        "astId": 8357,
        "contract": "contracts/WorkspaceAccess/WorkspaceAccessUpgradeable.sol:WorkspaceAccessUpgradeable",
        "label": "planIsActive",
        "offset": 0,
        "slot": "106",
        "type": "t_mapping(t_uint8,t_bool)"
      },
      {
        "astId": 8361,
        "contract": "contracts/WorkspaceAccess/WorkspaceAccessUpgradeable.sol:WorkspaceAccessUpgradeable",
        "label": "accessPaidAt",
        "offset": 0,
        "slot": "107",
        "type": "t_mapping(t_address,t_uint256)"
      },
      {
        "astId": 8365,
        "contract": "contracts/WorkspaceAccess/WorkspaceAccessUpgradeable.sol:WorkspaceAccessUpgradeable",
        "label": "executedMap",
        "offset": 0,
        "slot": "108",
        "type": "t_mapping(t_bytes32,t_bool)"
      }
    ],
    "types": {
      "t_address": {
        "encoding": "inplace",
        "label": "address",
        "numberOfBytes": "20"
      },
      "t_array(t_uint256)50_storage": {
        "base": "t_uint256",
        "encoding": "inplace",
        "label": "uint256[50]",
        "numberOfBytes": "1600"
      },
      "t_bool": {
        "encoding": "inplace",
        "label": "bool",
        "numberOfBytes": "1"
      },
      "t_bytes32": {
        "encoding": "inplace",
        "label": "bytes32",
        "numberOfBytes": "32"
      },
      "t_mapping(t_address,t_uint256)": {
        "encoding": "mapping",
        "key": "t_address",
        "label": "mapping(address => uint256)",
        "numberOfBytes": "32",
        "value": "t_uint256"
      },
      "t_mapping(t_bytes32,t_bool)": {
        "encoding": "mapping",
        "key": "t_bytes32",
        "label": "mapping(bytes32 => bool)",
        "numberOfBytes": "32",
        "value": "t_bool"
      },
      "t_mapping(t_uint8,t_bool)": {
        "encoding": "mapping",
        "key": "t_uint8",
        "label": "mapping(uint8 => bool)",
        "numberOfBytes": "32",
        "value": "t_bool"
      },
      "t_uint256": {
        "encoding": "inplace",
        "label": "uint256",
        "numberOfBytes": "32"
      },
      "t_uint8": {
        "encoding": "inplace",
        "label": "uint8",
        "numberOfBytes": "1"
      }
    }
  }
}