{
  "address": "0xDB3F05Bd08B10FBC89fbfeb01Ef88bD9C8805Ae5",
  "abi": [
    {
      "inputs": [
        {
          "internalType": "string",
          "name": "tokenDomain_",
          "type": "string"
        },
        {
          "internalType": "address",
          "name": "signer_",
          "type": "address"
        },
        {
          "internalType": "uint256",
          "name": "addTokenFee_",
          "type": "uint256"
        },
        {
          "internalType": "uint256",
          "name": "mintTokenFee_",
          "type": "uint256"
        },
        {
          "internalType": "address",
          "name": "feeCollector_",
          "type": "address"
        },
        {
          "internalType": "address",
          "name": "actionCounter_",
          "type": "address"
        }
      ],
      "stateMutability": "nonpayable",
      "type": "constructor"
    },
    {
      "anonymous": false,
      "inputs": [
        {
          "indexed": true,
          "internalType": "address",
          "name": "account",
          "type": "address"
        },
        {
          "indexed": true,
          "internalType": "address",
          "name": "operator",
          "type": "address"
        },
        {
          "indexed": false,
          "internalType": "bool",
          "name": "approved",
          "type": "bool"
        }
      ],
      "name": "ApprovalForAll",
      "type": "event"
    },
    {
      "anonymous": false,
      "inputs": [
        {
          "indexed": false,
          "internalType": "uint8",
          "name": "version",
          "type": "uint8"
        }
      ],
      "name": "Initialized",
      "type": "event"
    },
    {
      "anonymous": false,
      "inputs": [
        {
          "indexed": true,
          "internalType": "address",
          "name": "operator",
          "type": "address"
        },
        {
          "indexed": true,
          "internalType": "address",
          "name": "from",
          "type": "address"
        },
        {
          "indexed": true,
          "internalType": "address",
          "name": "to",
          "type": "address"
        },
        {
          "indexed": false,
          "internalType": "uint256[]",
          "name": "ids",
          "type": "uint256[]"
        },
        {
          "indexed": false,
          "internalType": "uint256[]",
          "name": "values",
          "type": "uint256[]"
        }
      ],
      "name": "TransferBatch",
      "type": "event"
    },
    {
      "anonymous": false,
      "inputs": [
        {
          "indexed": true,
          "internalType": "address",
          "name": "operator",
          "type": "address"
        },
        {
          "indexed": true,
          "internalType": "address",
          "name": "from",
          "type": "address"
        },
        {
          "indexed": true,
          "internalType": "address",
          "name": "to",
          "type": "address"
        },
        {
          "indexed": false,
          "internalType": "uint256",
          "name": "id",
          "type": "uint256"
        },
        {
          "indexed": false,
          "internalType": "uint256",
          "name": "value",
          "type": "uint256"
        }
      ],
      "name": "TransferSingle",
      "type": "event"
    },
    {
      "anonymous": false,
      "inputs": [
        {
          "indexed": false,
          "internalType": "string",
          "name": "value",
          "type": "string"
        },
        {
          "indexed": true,
          "internalType": "uint256",
          "name": "id",
          "type": "uint256"
        }
      ],
      "name": "URI",
      "type": "event"
    },
    {
      "inputs": [],
      "name": "VERSION",
      "outputs": [
        {
          "internalType": "string",
          "name": "",
          "type": "string"
        }
      ],
      "stateMutability": "view",
      "type": "function"
    },
    {
      "inputs": [],
      "name": "actionCounter",
      "outputs": [
        {
          "internalType": "contract INotesActionCounter",
          "name": "",
          "type": "address"
        }
      ],
      "stateMutability": "view",
      "type": "function"
    },
    {
      "inputs": [
        {
          "components": [
            {
              "internalType": "string",
              "name": "slug",
              "type": "string"
            },
            {
              "internalType": "uint96",
              "name": "royalties",
              "type": "uint96"
            },
            {
              "internalType": "bool",
              "name": "isTransferable",
              "type": "bool"
            },
            {
              "internalType": "bool",
              "name": "isOneTimeView",
              "type": "bool"
            },
            {
              "internalType": "uint256",
              "name": "callCost",
              "type": "uint256"
            },
            {
              "internalType": "bytes32",
              "name": "interactionId",
              "type": "bytes32"
            },
            {
              "internalType": "address",
              "name": "from",
              "type": "address"
            }
          ],
          "internalType": "struct NotesCollectionUpgradeable.SAddTokenCall",
          "name": "req",
          "type": "tuple"
        },
        {
          "internalType": "bytes",
          "name": "signature",
          "type": "bytes"
        }
      ],
      "name": "addToken",
      "outputs": [],
      "stateMutability": "payable",
      "type": "function"
    },
    {
      "inputs": [],
      "name": "addTokenFee",
      "outputs": [
        {
          "internalType": "uint256",
          "name": "",
          "type": "uint256"
        }
      ],
      "stateMutability": "view",
      "type": "function"
    },
    {
      "inputs": [
        {
          "internalType": "address",
          "name": "account",
          "type": "address"
        },
        {
          "internalType": "uint256",
          "name": "id",
          "type": "uint256"
        }
      ],
      "name": "balanceOf",
      "outputs": [
        {
          "internalType": "uint256",
          "name": "",
          "type": "uint256"
        }
      ],
      "stateMutability": "view",
      "type": "function"
    },
    {
      "inputs": [
        {
          "internalType": "address[]",
          "name": "accounts",
          "type": "address[]"
        },
        {
          "internalType": "uint256[]",
          "name": "ids",
          "type": "uint256[]"
        }
      ],
      "name": "balanceOfBatch",
      "outputs": [
        {
          "internalType": "uint256[]",
          "name": "",
          "type": "uint256[]"
        }
      ],
      "stateMutability": "view",
      "type": "function"
    },
    {
      "inputs": [
        {
          "internalType": "address",
          "name": "account",
          "type": "address"
        },
        {
          "internalType": "uint256",
          "name": "id",
          "type": "uint256"
        },
        {
          "internalType": "uint256",
          "name": "value",
          "type": "uint256"
        }
      ],
      "name": "burn",
      "outputs": [],
      "stateMutability": "nonpayable",
      "type": "function"
    },
    {
      "inputs": [],
      "name": "domainSeparator",
      "outputs": [
        {
          "internalType": "bytes32",
          "name": "",
          "type": "bytes32"
        }
      ],
      "stateMutability": "view",
      "type": "function"
    },
    {
      "inputs": [
        {
          "internalType": "bytes32",
          "name": "",
          "type": "bytes32"
        }
      ],
      "name": "executedMap",
      "outputs": [
        {
          "internalType": "bool",
          "name": "",
          "type": "bool"
        }
      ],
      "stateMutability": "view",
      "type": "function"
    },
    {
      "inputs": [
        {
          "internalType": "uint256",
          "name": "id",
          "type": "uint256"
        }
      ],
      "name": "exists",
      "outputs": [
        {
          "internalType": "bool",
          "name": "",
          "type": "bool"
        }
      ],
      "stateMutability": "view",
      "type": "function"
    },
    {
      "inputs": [],
      "name": "getFeeCollector",
      "outputs": [
        {
          "internalType": "address",
          "name": "",
          "type": "address"
        }
      ],
      "stateMutability": "view",
      "type": "function"
    },
    {
      "inputs": [
        {
          "internalType": "address",
          "name": "creator_",
          "type": "address"
        },
        {
          "internalType": "string",
          "name": "name_",
          "type": "string"
        },
        {
          "internalType": "uint256",
          "name": "workspaceId_",
          "type": "uint256"
        }
      ],
      "name": "initialize",
      "outputs": [],
      "stateMutability": "nonpayable",
      "type": "function"
    },
    {
      "inputs": [
        {
          "internalType": "address",
          "name": "account",
          "type": "address"
        },
        {
          "internalType": "address",
          "name": "operator",
          "type": "address"
        }
      ],
      "name": "isApprovedForAll",
      "outputs": [
        {
          "internalType": "bool",
          "name": "",
          "type": "bool"
        }
      ],
      "stateMutability": "view",
      "type": "function"
    },
    {
      "inputs": [
        {
          "internalType": "bytes32",
          "name": "interactionId",
          "type": "bytes32"
        }
      ],
      "name": "isExecuted",
      "outputs": [
        {
          "internalType": "bool",
          "name": "",
          "type": "bool"
        }
      ],
      "stateMutability": "view",
      "type": "function"
    },
    {
      "inputs": [
        {
          "internalType": "uint256",
          "name": "",
          "type": "uint256"
        }
      ],
      "name": "isOneTimeView",
      "outputs": [
        {
          "internalType": "bool",
          "name": "",
          "type": "bool"
        }
      ],
      "stateMutability": "view",
      "type": "function"
    },
    {
      "inputs": [
        {
          "internalType": "uint256",
          "name": "",
          "type": "uint256"
        }
      ],
      "name": "isTransferable",
      "outputs": [
        {
          "internalType": "bool",
          "name": "",
          "type": "bool"
        }
      ],
      "stateMutability": "view",
      "type": "function"
    },
    {
      "inputs": [],
      "name": "latestTokenId",
      "outputs": [
        {
          "internalType": "uint256",
          "name": "",
          "type": "uint256"
        }
      ],
      "stateMutability": "view",
      "type": "function"
    },
    {
      "inputs": [
        {
          "components": [
            {
              "internalType": "uint256",
              "name": "id",
              "type": "uint256"
            },
            {
              "internalType": "address[]",
              "name": "to",
              "type": "address[]"
            },
            {
              "internalType": "uint256[]",
              "name": "amounts",
              "type": "uint256[]"
            },
            {
              "internalType": "uint256",
              "name": "callCost",
              "type": "uint256"
            },
            {
              "internalType": "bytes32",
              "name": "interactionId",
              "type": "bytes32"
            },
            {
              "internalType": "address",
              "name": "from",
              "type": "address"
            }
          ],
          "internalType": "struct NotesCollectionUpgradeable.SMintMultipleCall",
          "name": "req",
          "type": "tuple"
        },
        {
          "internalType": "bytes",
          "name": "signature",
          "type": "bytes"
        }
      ],
      "name": "mintMultiple",
      "outputs": [],
      "stateMutability": "payable",
      "type": "function"
    },
    {
      "inputs": [],
      "name": "mintTokenFee",
      "outputs": [
        {
          "internalType": "uint256",
          "name": "",
          "type": "uint256"
        }
      ],
      "stateMutability": "view",
      "type": "function"
    },
    {
      "inputs": [],
      "name": "name",
      "outputs": [
        {
          "internalType": "string",
          "name": "",
          "type": "string"
        }
      ],
      "stateMutability": "view",
      "type": "function"
    },
    {
      "inputs": [
        {
          "internalType": "string",
          "name": "",
          "type": "string"
        },
        {
          "internalType": "uint256",
          "name": "",
          "type": "uint256"
        }
      ],
      "name": "noteToTokens",
      "outputs": [
        {
          "internalType": "uint256",
          "name": "",
          "type": "uint256"
        }
      ],
      "stateMutability": "view",
      "type": "function"
    },
    {
      "inputs": [
        {
          "internalType": "uint256",
          "name": "_tokenId",
          "type": "uint256"
        },
        {
          "internalType": "uint256",
          "name": "_salePrice",
          "type": "uint256"
        }
      ],
      "name": "royaltyInfo",
      "outputs": [
        {
          "internalType": "address",
          "name": "",
          "type": "address"
        },
        {
          "internalType": "uint256",
          "name": "",
          "type": "uint256"
        }
      ],
      "stateMutability": "view",
      "type": "function"
    },
    {
      "inputs": [],
      "name": "royaltyReceiver",
      "outputs": [
        {
          "internalType": "address",
          "name": "",
          "type": "address"
        }
      ],
      "stateMutability": "view",
      "type": "function"
    },
    {
      "inputs": [
        {
          "internalType": "address",
          "name": "from",
          "type": "address"
        },
        {
          "internalType": "address",
          "name": "to",
          "type": "address"
        },
        {
          "internalType": "uint256[]",
          "name": "ids",
          "type": "uint256[]"
        },
        {
          "internalType": "uint256[]",
          "name": "amounts",
          "type": "uint256[]"
        },
        {
          "internalType": "bytes",
          "name": "data",
          "type": "bytes"
        }
      ],
      "name": "safeBatchTransferFrom",
      "outputs": [],
      "stateMutability": "nonpayable",
      "type": "function"
    },
    {
      "inputs": [
        {
          "internalType": "address",
          "name": "from",
          "type": "address"
        },
        {
          "internalType": "address",
          "name": "to",
          "type": "address"
        },
        {
          "internalType": "uint256",
          "name": "id",
          "type": "uint256"
        },
        {
          "internalType": "uint256",
          "name": "amount",
          "type": "uint256"
        },
        {
          "internalType": "bytes",
          "name": "data",
          "type": "bytes"
        }
      ],
      "name": "safeTransferFrom",
      "outputs": [],
      "stateMutability": "nonpayable",
      "type": "function"
    },
    {
      "inputs": [
        {
          "internalType": "address",
          "name": "operator",
          "type": "address"
        },
        {
          "internalType": "bool",
          "name": "approved",
          "type": "bool"
        }
      ],
      "name": "setApprovalForAll",
      "outputs": [],
      "stateMutability": "nonpayable",
      "type": "function"
    },
    {
      "inputs": [
        {
          "components": [
            {
              "internalType": "uint256",
              "name": "tokenId",
              "type": "uint256"
            },
            {
              "internalType": "uint96",
              "name": "fee",
              "type": "uint96"
            },
            {
              "internalType": "bytes32",
              "name": "interactionId",
              "type": "bytes32"
            },
            {
              "internalType": "address",
              "name": "from",
              "type": "address"
            }
          ],
          "internalType": "struct NotesCollectionUpgradeable.CTokenRoyaltyCall",
          "name": "req",
          "type": "tuple"
        },
        {
          "internalType": "bytes",
          "name": "signature",
          "type": "bytes"
        }
      ],
      "name": "setTokenRoyalty",
      "outputs": [],
      "stateMutability": "nonpayable",
      "type": "function"
    },
    {
      "inputs": [],
      "name": "signWallet",
      "outputs": [
        {
          "internalType": "address",
          "name": "",
          "type": "address"
        }
      ],
      "stateMutability": "view",
      "type": "function"
    },
    {
      "inputs": [
        {
          "internalType": "bytes4",
          "name": "interfaceId",
          "type": "bytes4"
        }
      ],
      "name": "supportsInterface",
      "outputs": [
        {
          "internalType": "bool",
          "name": "",
          "type": "bool"
        }
      ],
      "stateMutability": "view",
      "type": "function"
    },
    {
      "inputs": [
        {
          "internalType": "uint256",
          "name": "",
          "type": "uint256"
        }
      ],
      "name": "tokenToNote",
      "outputs": [
        {
          "internalType": "string",
          "name": "",
          "type": "string"
        }
      ],
      "stateMutability": "view",
      "type": "function"
    },
    {
      "inputs": [
        {
          "internalType": "uint256",
          "name": "id",
          "type": "uint256"
        }
      ],
      "name": "totalSupply",
      "outputs": [
        {
          "internalType": "uint256",
          "name": "",
          "type": "uint256"
        }
      ],
      "stateMutability": "view",
      "type": "function"
    },
    {
      "inputs": [
        {
          "internalType": "uint256",
          "name": "",
          "type": "uint256"
        }
      ],
      "name": "uri",
      "outputs": [
        {
          "internalType": "string",
          "name": "",
          "type": "string"
        }
      ],
      "stateMutability": "view",
      "type": "function"
    },
    {
      "inputs": [
        {
          "components": [
            {
              "internalType": "string",
              "name": "slug",
              "type": "string"
            },
            {
              "internalType": "uint96",
              "name": "royalties",
              "type": "uint96"
            },
            {
              "internalType": "bool",
              "name": "isTransferable",
              "type": "bool"
            },
            {
              "internalType": "bool",
              "name": "isOneTimeView",
              "type": "bool"
            },
            {
              "internalType": "uint256",
              "name": "callCost",
              "type": "uint256"
            },
            {
              "internalType": "bytes32",
              "name": "interactionId",
              "type": "bytes32"
            },
            {
              "internalType": "address",
              "name": "from",
              "type": "address"
            }
          ],
          "internalType": "struct NotesCollectionUpgradeable.SAddTokenCall",
          "name": "req",
          "type": "tuple"
        },
        {
          "internalType": "bytes",
          "name": "signature",
          "type": "bytes"
        }
      ],
      "name": "verifyAddToken",
      "outputs": [
        {
          "internalType": "bool",
          "name": "",
          "type": "bool"
        }
      ],
      "stateMutability": "view",
      "type": "function"
    },
    {
      "inputs": [
        {
          "components": [
            {
              "internalType": "uint256",
              "name": "id",
              "type": "uint256"
            },
            {
              "internalType": "address[]",
              "name": "to",
              "type": "address[]"
            },
            {
              "internalType": "uint256[]",
              "name": "amounts",
              "type": "uint256[]"
            },
            {
              "internalType": "uint256",
              "name": "callCost",
              "type": "uint256"
            },
            {
              "internalType": "bytes32",
              "name": "interactionId",
              "type": "bytes32"
            },
            {
              "internalType": "address",
              "name": "from",
              "type": "address"
            }
          ],
          "internalType": "struct NotesCollectionUpgradeable.SMintMultipleCall",
          "name": "req",
          "type": "tuple"
        },
        {
          "internalType": "bytes",
          "name": "signature",
          "type": "bytes"
        }
      ],
      "name": "verifyMint",
      "outputs": [
        {
          "internalType": "bool",
          "name": "",
          "type": "bool"
        }
      ],
      "stateMutability": "view",
      "type": "function"
    },
    {
      "inputs": [
        {
          "components": [
            {
              "internalType": "uint256",
              "name": "tokenId",
              "type": "uint256"
            },
            {
              "internalType": "uint96",
              "name": "fee",
              "type": "uint96"
            },
            {
              "internalType": "bytes32",
              "name": "interactionId",
              "type": "bytes32"
            },
            {
              "internalType": "address",
              "name": "from",
              "type": "address"
            }
          ],
          "internalType": "struct NotesCollectionUpgradeable.CTokenRoyaltyCall",
          "name": "req",
          "type": "tuple"
        },
        {
          "internalType": "bytes",
          "name": "signature",
          "type": "bytes"
        }
      ],
      "name": "verifyRoyalty",
      "outputs": [
        {
          "internalType": "bool",
          "name": "",
          "type": "bool"
        }
      ],
      "stateMutability": "view",
      "type": "function"
    },
    {
      "inputs": [],
      "name": "workspaceId",
      "outputs": [
        {
          "internalType": "uint256",
          "name": "",
          "type": "uint256"
        }
      ],
      "stateMutability": "view",
      "type": "function"
    }
  ],
  "transactionHash": "0x9daf6872e8e73670b292bc2f10e058b6f940aa4d9e194705a13ab647a14b03b1",
  "args": [
    "filenft.gxdtoken.io",
    "0xF0D8C6284a1305fe5359Cf26C194cE6Fc6a05041",
    "1800000000000000",
    "1800000000000000",
    "0x2F60BfC3dE718391eE068eE7Ff34AFD0Cd2376dE",
    "0x1078139cB2840D3B2EEc6c6665DE8a47B6086481"
  ],
  "numDeployments": 3,
  "solcInputHash": "361eb17248f4e5cd7c2040e0e2cb3318",
  "bytecode": "0x6101406040523480156200001257600080fd5b5060405162004164380380620041648339810160408190526200003591620000a2565b6200004086620001ca565b60e0526001600160a01b0394851660805260a09390935260c091909152821661010052166101205250620001f2565b634e487b7160e01b600052604160045260246000fd5b80516001600160a01b03811681146200009d57600080fd5b919050565b60008060008060008060c08789031215620000bc57600080fd5b86516001600160401b0380821115620000d457600080fd5b818901915089601f830112620000e957600080fd5b815181811115620000fe57620000fe6200006f565b604051601f8201601f19908116603f011681019083821181831017156200012957620001296200006f565b81604052828152602093508c848487010111156200014657600080fd5b600091505b828210156200016a57848201840151818301850152908301906200014b565b828211156200017c5760008484830101525b99506200018e91505089820162000085565b965050506040870151935060608701519250620001ae6080880162000085565b9150620001be60a0880162000085565b90509295509295509295565b80516020808301519190811015620001ec576000198160200360031b1b821691505b50919050565b60805160a05160c05160e0516101005161012051613f066200025e6000396000818161076d01528181611340015261235b0152600081816102e701526121a901526000610948015260006103c6015260006103310152600081816104170152610de10152613f066000f3fe60806040526004361061020e5760003560e01c8063a22cb46511610118578063e160d1fe116100a0578063f5298aca1161006f578063f5298aca146106f5578063f698da2514610715578063f9aebda01461072a578063fdbd98b01461075b578063ffa1ad741461078f57600080fd5b8063e160d1fe1461063b578063e52cb36a1461065b578063e985e9c51461068c578063f242432a146106d557600080fd5b8063bd85b039116100e7578063bd85b039146105a4578063cb519d8c146105d1578063ceaa8686146105e4578063d367d89e14610604578063e09314ad1461061b57600080fd5b8063a22cb4651461050f578063a87a9f911461052f578063ae1e982b14610560578063b25645691461057357600080fd5b80633744cc681161019b5780634f558e791161016a5780634f558e791461046857806382b3c777146104975780638c0e8349146104b75780638dac9bbc146104ce5780639fbc8713146104ee57600080fd5b80633744cc68146103b457806341fdd546146103e85780634ce74859146104085780634e1273f41461043b57600080fd5b80630e89341c116101e25780630e89341c146102b857806312fde4b7146102d85780632617fe381461031f5780632a55205a146103535780632eb2c2d61461039257600080fd5b8062fdd58e1461021357806301ffc9a71461024657806306fdde03146102765780630e79703b14610298575b600080fd5b34801561021f57600080fd5b5061023361022e366004613135565b6107c0565b6040519081526020015b60405180910390f35b34801561025257600080fd5b50610266610261366004613175565b610858565b604051901515815260200161023d565b34801561028257600080fd5b5061028b610869565b60405161023d91906131f1565b3480156102a457600080fd5b506102336102b33660046132c9565b6108f8565b3480156102c457600080fd5b5061028b6102d336600461330d565b610939565b3480156102e457600080fd5b507f00000000000000000000000000000000000000000000000000000000000000005b6040516001600160a01b03909116815260200161023d565b34801561032b57600080fd5b506102337f000000000000000000000000000000000000000000000000000000000000000081565b34801561035f57600080fd5b5061037361036e366004613326565b610a8f565b604080516001600160a01b03909316835260208301919091520161023d565b34801561039e57600080fd5b506103b26103ad3660046133dc565b610b3d565b005b3480156103c057600080fd5b506102337f000000000000000000000000000000000000000000000000000000000000000081565b3480156103f457600080fd5b5061028b61040336600461330d565b610b89565b34801561041457600080fd5b507f0000000000000000000000000000000000000000000000000000000000000000610307565b34801561044757600080fd5b5061045b610456366004613485565b610ba3565b60405161023d919061358a565b34801561047457600080fd5b5061026661048336600461330d565b600090815260c96020526040902054151590565b3480156104a357600080fd5b506102666104b236600461359d565b610ccc565b3480156104c357600080fd5b506102336101315481565b3480156104da57600080fd5b506103b26104e93660046135fe565b610e0d565b3480156104fa57600080fd5b5061013354610307906001600160a01b031681565b34801561051b57600080fd5b506103b261052a366004613662565b610fcc565b34801561053b57600080fd5b5061026661054a36600461330d565b6101376020526000908152604090205460ff1681565b6103b261056e36600461359d565b610fdb565b34801561057f57600080fd5b5061026661058e36600461330d565b6101366020526000908152604090205460ff1681565b3480156105b057600080fd5b506102336105bf36600461330d565b600090815260c9602052604090205490565b6103b26105df366004613699565b6113ca565b3480156105f057600080fd5b506102666105ff3660046136d7565b6115b4565b34801561061057600080fd5b506102336101305481565b34801561062757600080fd5b50610266610636366004613699565b611643565b34801561064757600080fd5b506103b26106563660046136d7565b61173a565b34801561066757600080fd5b5061026661067636600461330d565b6000908152610132602052604090205460ff1690565b34801561069857600080fd5b506102666106a7366004613722565b6001600160a01b03918216600090815260986020908152604080832093909416825291909152205460ff1690565b3480156106e157600080fd5b506103b26106f0366004613755565b611853565b34801561070157600080fd5b506103b26107103660046137b9565b6118d4565b34801561072157600080fd5b50610233611a14565b34801561073657600080fd5b5061026661074536600461330d565b6101326020526000908152604090205460ff1681565b34801561076757600080fd5b506103077f000000000000000000000000000000000000000000000000000000000000000081565b34801561079b57600080fd5b5061028b60405180604001604052806005815260200164181718171960d91b81525081565b60006001600160a01b0383166108305760405162461bcd60e51b815260206004820152602a60248201527f455243313135353a2061646472657373207a65726f206973206e6f742061207660448201526930b634b21037bbb732b960b11b60648201526084015b60405180910390fd5b5060009081526097602090815260408083206001600160a01b03949094168352929052205490565b600061086382611a23565b92915050565b61012f8054610877906137ec565b80601f01602080910402602001604051908101604052809291908181526020018280546108a3906137ec565b80156108f05780601f106108c5576101008083540402835291602001916108f0565b820191906000526020600020905b8154815290600101906020018083116108d357829003601f168201915b505050505081565b815160208184018101805161013582529282019185019190912091905280548290811061092457600080fd5b90600052602060002001600091509150505481565b604051631623433d60e31b81527f000000000000000000000000000000000000000000000000000000000000000060048201526060907326886b318972eC55034012356539eFCa7458c01f9063b11a19e89060240160006040518083038186803b1580156109a657600080fd5b505af41580156109ba573d6000803e3d6000fd5b505050506040513d6000823e601f3d908101601f191682016040526109e29190810190613827565b604051632b65311f60e11b81523060048201527326886b318972eC55034012356539eFCa7458c01f906356ca623e9060240160006040518083038186803b158015610a2c57600080fd5b505af4158015610a40573d6000803e3d6000fd5b505050506040513d6000823e601f3d908101601f19168201604052610a689190810190613827565b604051602001610a799291906138a8565b6040516020818303038152906040529050919050565b60008281526066602090815260408083208151808301909252546001600160a01b038116808352600160a01b9091046001600160601b0316928201929092528291610b045750604080518082019091526065546001600160a01b0381168252600160a01b90046001600160601b031660208201525b602081015160009061271090610b23906001600160601b031687613925565b610b2d9190613944565b91519350909150505b9250929050565b6001600160a01b038516331480610b595750610b5985336106a7565b610b755760405162461bcd60e51b815260040161082790613966565b610b828585858585611a63565b5050505050565b6101346020526000908152604090208054610877906137ec565b60608151835114610c085760405162461bcd60e51b815260206004820152602960248201527f455243313135353a206163636f756e747320616e6420696473206c656e677468604482015268040dad2e6dac2e8c6d60bb1b6064820152608401610827565b600083516001600160401b03811115610c2357610c23613204565b604051908082528060200260200182016040528015610c4c578160200160208202803683370190505b50905060005b8451811015610cc457610c97858281518110610c7057610c706139b5565b6020026020010151858381518110610c8a57610c8a6139b5565b60200260200101516107c0565b828281518110610ca957610ca96139b5565b6020908102919091010152610cbd816139cb565b9050610c52565b509392505050565b600080610dd783610dd17f3506834689ad1841c5100a9b04b02b48f674e7ba1c33e93733b970cb5fb777a4610d0188806139e6565b604051610d0f929190613a2c565b6040518091039020886020016020810190610d2a9190613a3c565b610d3a60608b0160408c01613a65565b610d4a60808c0160608d01613a65565b8b608001358c60a001358d60c0016020810190610d679190613a82565b6040805160208101999099528801969096526001600160601b0390941660608701529115156080860152151560a085015260c084015260e08301526001600160a01b0316610100820152610120015b60405160208183030381529060405280519060200120611c49565b90611c97565b6001600160a01b037f00000000000000000000000000000000000000000000000000000000000000008116911614949350505050565b600054610100900460ff1615808015610e2d5750600054600160ff909116105b80610e475750303b158015610e47575060005460ff166001145b610eaa5760405162461bcd60e51b815260206004820152602e60248201527f496e697469616c697a61626c653a20636f6e747261637420697320616c72656160448201526d191e481a5b9a5d1a585b1a5e995960921b6064820152608401610827565b6000805460ff191660011790558015610ecd576000805461ff0019166101001790555b8251610ee19061012f906020860190613080565b5061013380546001600160a01b0319166001600160a01b038616179055610130829055604080516020810190915260008152610f1c90611cb3565b610f24611ce6565b610f806040518060400160405280601a81526020017f4e6f746573436f6c6c656374696f6e5570677261646561626c6500000000000081525060405180604001604052806005815260200164181718171960d91b815250611d0f565b8015610fc6576000805461ff0019169055604051600181527f7f26b83ff96e1f2b6a682f133852f6798a09c465da95921460cefb38474024989060200160405180910390a15b50505050565b610fd7338383611d40565b5050565b348260800135111561101d5760405162461bcd60e51b815260206004820152600b60248201526a155b99195c9c1c9a58d95960aa1b6044820152606401610827565b60a08201356000908152610132602052604090205460ff16156110975760405162461bcd60e51b815260206004820152602c60248201527f4e6f746573436f6c6c656374696f6e5570677261646561626c653a20416c726560448201526b18591e48195e1958dd5d195960a21b6064820152608401610827565b336110a860e0840160c08501613a82565b6001600160a01b0316146111115760405162461bcd60e51b815260206004820152602a60248201527f4e6f746573436f6c6c656374696f6e5570677261646561626c653a20494e56416044820152692624a22fa9a2a72222a960b11b6064820152608401610827565b61111b82806139e6565b8080601f01602080910402602001604051908101604052809392919081815260200183838082843760009201919091525050604051637b7acf8960e01b81527357142f1F8f77bD65cb0926Efb0B0853C05e841ea93637b7acf8993506111859250906004016131f1565b60206040518083038186803b15801561119d57600080fd5b505af41580156111b1573d6000803e3d6000fd5b505050506040513d601f19601f820116820180604052508101906111d59190613a9d565b61123a5760405162461bcd60e51b815260206004820152603060248201527f4e6f746573436f6c6c656374696f6e5570677261646561626c653a20536c756760448201526f040ccdee4dac2e840dad2e6dac2e8c6d60831b6064820152608401610827565b6112448282610ccc565b6112605760405162461bcd60e51b815260040161082790613aba565b60a0820135600090815261013260205260409020805460ff191660011790556112e661128c83806139e6565b8080601f0160208091040260200160405190810160405280939291908181526020018383808284376000920191909152506112d1925050506060850160408601613a65565b6112e16080860160608701613a65565b611e21565b610133546001600160a01b03161561132357610131546101335461132391906001600160a01b031661131e6040860160208701613a3c565b612096565b60808201351561133657611336346121a4565b6001600160a01b037f00000000000000000000000000000000000000000000000000000000000000001663b42c0019336040516001600160e01b031960e084901b1681526001600160a01b03909116600482015260016024820152604401600060405180830381600087803b1580156113ae57600080fd5b505af11580156113c2573d6000803e3d6000fd5b505050505050565b60808201356000908152610132602052604090205460ff16156114225760405162461bcd60e51b815260206004820152601060248201526f105b1c9958591e48195e1958dd5d195960821b6044820152606401610827565b34826060013511156114645760405162461bcd60e51b815260206004820152600b60248201526a155b99195c9c1c9a58d95960aa1b6044820152606401610827565b61146e8282611643565b6114ae5760405162461bcd60e51b8152602060048201526011602482015270494e56414c49445f5349474e415455524560781b6044820152606401610827565b6080820135600090815261013260209081526040909120805460ff19166001179055611559906114e090840184613b07565b80806020026020016040519081016040528093929190818152602001838360200280828437600092019190915250508535915061152290506040860186613b07565b808060200260200160405190810160405280939291908181526020018383602002808284376000920191909152506121ce92505050565b60608201351561156c5761156c346121a4565b610fd73361157d6040850185613b07565b808060200260200160405190810160405280939291908181526020018383602002808284376000920191909152506122ee92505050565b600080610dd783610dd17f83d60c017c89ace7d1c8ea6f057f480338ce73e156650228f00b96696b32d68887356115f160408a0160208b01613a3c565b60408a013561160660808c0160608d01613a82565b6040805160208101969096528501939093526001600160601b03909116606084015260808301526001600160a01b031660a082015260c001610db6565b600080610dd783610dd17fab248fd20764e7aaff2889234a247b3c201544ee877b210e3fdd000110ac7064873561167d60208a018a613b07565b60405160200161168e929190613b50565b604051602081830303815290604052805190602001208980604001906116b49190613b07565b6040516020016116c5929190613b90565b60408051601f19818403018152919052805160209091012060608b013560808c01356116f760c08e0160a08f01613a82565b6040805160208101989098528701959095526060860193909352608085019190915260a084015260c08301526001600160a01b031660e082015261010001610db6565b610133546001600160a01b03166117935760405162461bcd60e51b815260206004820152601860248201527f556e6b6e6f776e20726f79616c747920726563656976657200000000000000006044820152606401610827565b6040808301356000908152610132602052205460ff16156117e95760405162461bcd60e51b815260206004820152601060248201526f105b1c9958591e48195e1958dd5d195960821b6044820152606401610827565b6117f382826115b4565b61180f5760405162461bcd60e51b815260040161082790613aba565b6040808301803560009081526101326020908152929020805460ff1916600117905561013354610fd7928535926001600160a01b039092169161131e918701613a3c565b6000838152610136602052604090205460ff166118c75760405162461bcd60e51b815260206004820152602c60248201527f4e6f746573436f6c6c656374696f6e5570677261646561626c653a206e6f6e2d60448201526b7472616e7366657261626c6560a01b6064820152608401610827565b610b8285858585856123bc565b6000828152610137602052604090205460ff1661196b5760405162461bcd60e51b815260206004820152604960248201527f4e6f746573436f6c6c656374696f6e5570677261646561626c653a204e6f742060448201527f61206f6e652d74696d652d7669657720746f6b656e20636f756c64206e6f7420606482015268189948189d5c9b995960ba1b608482015260a401610827565b6001600160a01b038316331480611987575061198783336106a7565b611a045760405162461bcd60e51b815260206004820152604260248201527f4e6f746573436f6c6c656374696f6e5570677261646561626c653a2063616c6c60448201527f6572206973206e6f7420746f6b656e206f776e6572206e6f7220617070726f76606482015261195960f21b608482015260a401610827565b611a0f838383612401565b505050565b6000611a1e612583565b905090565b60006001600160e01b03198216636cdb3d1360e11b1480611a5457506001600160e01b031982166303a24d0760e21b145b806108635750610863826125fe565b8151835114611ac55760405162461bcd60e51b815260206004820152602860248201527f455243313135353a2069647320616e6420616d6f756e7473206c656e677468206044820152670dad2e6dac2e8c6d60c31b6064820152608401610827565b6001600160a01b038416611aeb5760405162461bcd60e51b815260040161082790613bbc565b33611afa818787878787612633565b60005b8451811015611be3576000858281518110611b1a57611b1a6139b5565b602002602001015190506000858381518110611b3857611b386139b5565b60209081029190910181015160008481526097835260408082206001600160a01b038e168352909352919091205490915081811015611b895760405162461bcd60e51b815260040161082790613c01565b60008381526097602090815260408083206001600160a01b038e8116855292528083208585039055908b16825281208054849290611bc8908490613c4b565b9250508190555050505080611bdc906139cb565b9050611afd565b50846001600160a01b0316866001600160a01b0316826001600160a01b03167f4a39dc06d4c0dbc64b70af90fd698a233a518aa5d07e595d983b8c0526c8f7fb8787604051611c33929190613c63565b60405180910390a46113c2818787878787612641565b6000610863611c56612583565b8360405161190160f01b6020820152602281018390526042810182905260009060620160405160208183030381529060405280519060200120905092915050565b6000806000611ca685856127ac565b91509150610cc4816127ef565b600054610100900460ff16611cda5760405162461bcd60e51b815260040161082790613c91565b611ce3816129aa565b50565b600054610100900460ff16611d0d5760405162461bcd60e51b815260040161082790613c91565b565b600054610100900460ff16611d365760405162461bcd60e51b815260040161082790613c91565b610fd782826129da565b816001600160a01b0316836001600160a01b03161415611db45760405162461bcd60e51b815260206004820152602960248201527f455243313135353a2073657474696e6720617070726f76616c20737461747573604482015268103337b91039b2b63360b91b6064820152608401610827565b6001600160a01b03838116600081815260986020908152604080832094871680845294825291829020805460ff191686151590811790915591519182527f17307eab39ab6107e8899845ad3d59bd9653f200f220920489ca2b5937696c31910160405180910390a3505050565b6000835111611e625760405162461bcd60e51b815260206004820152600d60248201526c115b5c1d1e48199a5b19481a59609a1b6044820152606401610827565b60005b61013584604051611e769190613cdc565b90815260405190819003602001902054811015611f8657600061013585604051611ea09190613cdc565b90815260200160405180910390208281548110611ebf57611ebf6139b5565b600091825260208083209091015480835261013690915260409091205490915060ff161515841515141580611f0a57506000818152610137602052604090205460ff16151583151514155b611f735760405162461bcd60e51b815260206004820152603460248201527f546f6b656e20666f7220746869732066696c6520776974682073756368206f7060448201527374696f6e7320616c72656164792065786973747360601b6064820152608401610827565b5080611f7e816139cb565b915050611e65565b5061013154611f96906001613c4b565b6101318190556000908152610134602090815260409091208451611fbc92860190613080565b5061013583604051611fce9190613cdc565b90815260408051602092819003830181206101318054825460018101845560009384528684200155805482526101368552838220805460ff1990811689151517909155815483526101378652848320805490911687151517905554825292810183905282913391600080516020613eb1833981519152910160405180910390a4610131547f6bb7ff708619ba0610cba295a58592e0451dee2622938c8755667688daf3529b61207c82610939565b60405161208991906131f1565b60405180910390a2505050565b6127106001600160601b03821611156121045760405162461bcd60e51b815260206004820152602a60248201527f455243323938313a20726f79616c7479206665652077696c6c206578636565646044820152692073616c65507269636560b01b6064820152608401610827565b6001600160a01b03821661215a5760405162461bcd60e51b815260206004820152601b60248201527f455243323938313a20496e76616c696420706172616d657465727300000000006044820152606401610827565b6040805180820182526001600160a01b0393841681526001600160601b0392831660208083019182526000968752606690529190942093519051909116600160a01b029116179055565b611ce37f000000000000000000000000000000000000000000000000000000000000000082612a1b565b60008281526101346020526040812080546121e8906137ec565b90501161222e5760405162461bcd60e51b8152602060048201526014602482015273151bdad95b88191bd95cc81b9bdd08195e1a5cdd60621b6044820152606401610827565b80518351146122785760405162461bcd60e51b8152602060048201526016602482015275088d2cccccae4cadce840c2e4e4c2f240d8cadccee8d60531b6044820152606401610827565b60005b8351811015610fc6576122dc848281518110612299576122996139b5565b6020026020010151848484815181106122b4576122b46139b5565b602002602001015160405180604001604052806002815260200161060f60f31b815250612abe565b806122e6816139cb565b91505061227b565b6000805b82518110156123345782818151811061230d5761230d6139b5565b6020026020010151826123209190613c4b565b91508061232c816139cb565b9150506122f2565b5060405163ec7d1fc960e01b81526001600160a01b038481166004830152602482018390527f0000000000000000000000000000000000000000000000000000000000000000169063ec7d1fc990604401600060405180830381600087803b15801561239f57600080fd5b505af11580156123b3573d6000803e3d6000fd5b50505050505050565b6001600160a01b0385163314806123d857506123d885336106a7565b6123f45760405162461bcd60e51b815260040161082790613966565b610b828585858585612bc8565b6001600160a01b0383166124635760405162461bcd60e51b815260206004820152602360248201527f455243313135353a206275726e2066726f6d20746865207a65726f206164647260448201526265737360e81b6064820152608401610827565b33600061246f84612cf2565b9050600061247c84612cf2565b905061249c83876000858560405180602001604052806000815250612633565b60008581526097602090815260408083206001600160a01b038a1684529091529020548481101561251b5760405162461bcd60e51b8152602060048201526024808201527f455243313135353a206275726e20616d6f756e7420657863656564732062616c604482015263616e636560e01b6064820152608401610827565b60008681526097602090815260408083206001600160a01b038b81168086529184528285208a8703905582518b81529384018a9052909290881691600080516020613eb1833981519152910160405180910390a46040805160208101909152600090526123b3565b6000611a1e7f8b73c3c69bb8fe3d512ecc4cf759cc79239f7b179b0ffacaa9a75d522b39400f6125b260fb5490565b60fc546040805160208101859052908101839052606081018290524660808201523060a082015260009060c0016040516020818303038152906040528051906020012090509392505050565b60006001600160e01b0319821663152a902d60e11b148061086357506301ffc9a760e01b6001600160e01b0319831614610863565b6113c2868686868686612d3d565b6001600160a01b0384163b156113c25760405163bc197c8160e01b81526001600160a01b0385169063bc197c81906126859089908990889088908890600401613cf8565b602060405180830381600087803b15801561269f57600080fd5b505af19250505080156126cf575060408051601f3d908101601f191682019092526126cc91810190613d56565b60015b61277c576126db613d73565b806308c379a0141561271557506126f0613d8f565b806126fb5750612717565b8060405162461bcd60e51b815260040161082791906131f1565b505b60405162461bcd60e51b815260206004820152603460248201527f455243313135353a207472616e7366657220746f206e6f6e20455243313135356044820152732932b1b2b4bb32b91034b6b83632b6b2b73a32b960611b6064820152608401610827565b6001600160e01b0319811663bc197c8160e01b146123b35760405162461bcd60e51b815260040161082790613e0d565b6000808251604114156127e35760208301516040840151606085015160001a6127d787828585612eb6565b94509450505050610b36565b50600090506002610b36565b600081600481111561280357612803613e55565b141561280c5750565b600181600481111561282057612820613e55565b141561286e5760405162461bcd60e51b815260206004820152601860248201527f45434453413a20696e76616c6964207369676e617475726500000000000000006044820152606401610827565b600281600481111561288257612882613e55565b14156128d05760405162461bcd60e51b815260206004820152601f60248201527f45434453413a20696e76616c6964207369676e6174757265206c656e677468006044820152606401610827565b60038160048111156128e4576128e4613e55565b141561293d5760405162461bcd60e51b815260206004820152602260248201527f45434453413a20696e76616c6964207369676e6174757265202773272076616c604482015261756560f01b6064820152608401610827565b600481600481111561295157612951613e55565b1415611ce35760405162461bcd60e51b815260206004820152602260248201527f45434453413a20696e76616c6964207369676e6174757265202776272076616c604482015261756560f01b6064820152608401610827565b600054610100900460ff166129d15760405162461bcd60e51b815260040161082790613c91565b611ce381612fa3565b600054610100900460ff16612a015760405162461bcd60e51b815260040161082790613c91565b81516020928301208151919092012060fb9190915560fc55565b6000826001600160a01b03168260405160006040518083038185875af1925050503d8060008114612a68576040519150601f19603f3d011682016040523d82523d6000602084013e612a6d565b606091505b5050905080611a0f5760405162461bcd60e51b815260206004820181905260248201527f50616964416374696f6e733a20666565207472616e73666572206661696c65646044820152606401610827565b6001600160a01b038416612b1e5760405162461bcd60e51b815260206004820152602160248201527f455243313135353a206d696e7420746f20746865207a65726f206164647265736044820152607360f81b6064820152608401610827565b336000612b2a85612cf2565b90506000612b3785612cf2565b9050612b4883600089858589612633565b60008681526097602090815260408083206001600160a01b038b16845290915281208054879290612b7a908490613c4b565b909155505060408051878152602081018790526001600160a01b03808a169260009291871691600080516020613eb1833981519152910160405180910390a46123b383600089898989612fb6565b6001600160a01b038416612bee5760405162461bcd60e51b815260040161082790613bbc565b336000612bfa85612cf2565b90506000612c0785612cf2565b9050612c17838989858589612633565b60008681526097602090815260408083206001600160a01b038c16845290915290205485811015612c5a5760405162461bcd60e51b815260040161082790613c01565b60008781526097602090815260408083206001600160a01b038d8116855292528083208985039055908a16825281208054889290612c99908490613c4b565b909155505060408051888152602081018890526001600160a01b03808b16928c82169291881691600080516020613eb1833981519152910160405180910390a4612ce7848a8a8a8a8a612fb6565b505050505050505050565b60408051600180825281830190925260609160009190602080830190803683370190505090508281600081518110612d2c57612d2c6139b5565b602090810291909101015292915050565b6001600160a01b038516612dc45760005b8351811015612dc257828181518110612d6957612d696139b5565b602002602001015160c96000868481518110612d8757612d876139b5565b602002602001015181526020019081526020016000206000828254612dac9190613c4b565b90915550612dbb9050816139cb565b9050612d4e565b505b6001600160a01b0384166113c25760005b83518110156123b3576000848281518110612df257612df26139b5565b602002602001015190506000848381518110612e1057612e106139b5565b60200260200101519050600060c9600084815260200190815260200160002054905081811015612e935760405162461bcd60e51b815260206004820152602860248201527f455243313135353a206275726e20616d6f756e74206578636565647320746f74604482015267616c537570706c7960c01b6064820152608401610827565b600092835260c9602052604090922091039055612eaf816139cb565b9050612dd5565b6000807f7fffffffffffffffffffffffffffffff5d576e7357a4501ddfe92f46681b20a0831115612eed5750600090506003612f9a565b8460ff16601b14158015612f0557508460ff16601c14155b15612f165750600090506004612f9a565b6040805160008082526020820180845289905260ff881692820192909252606081018690526080810185905260019060a0016020604051602081039080840390855afa158015612f6a573d6000803e3d6000fd5b5050604051601f1901519150506001600160a01b038116612f9357600060019250925050612f9a565b9150600090505b94509492505050565b8051610fd7906099906020840190613080565b6001600160a01b0384163b156113c25760405163f23a6e6160e01b81526001600160a01b0385169063f23a6e6190612ffa9089908990889088908890600401613e6b565b602060405180830381600087803b15801561301457600080fd5b505af1925050508015613044575060408051601f3d908101601f1916820190925261304191810190613d56565b60015b613050576126db613d73565b6001600160e01b0319811663f23a6e6160e01b146123b35760405162461bcd60e51b815260040161082790613e0d565b82805461308c906137ec565b90600052602060002090601f0160209004810192826130ae57600085556130f4565b82601f106130c757805160ff19168380011785556130f4565b828001600101855582156130f4579182015b828111156130f45782518255916020019190600101906130d9565b50613100929150613104565b5090565b5b808211156131005760008155600101613105565b80356001600160a01b038116811461313057600080fd5b919050565b6000806040838503121561314857600080fd5b61315183613119565b946020939093013593505050565b6001600160e01b031981168114611ce357600080fd5b60006020828403121561318757600080fd5b81356131928161315f565b9392505050565b60005b838110156131b457818101518382015260200161319c565b83811115610fc65750506000910152565b600081518084526131dd816020860160208601613199565b601f01601f19169290920160200192915050565b60208152600061319260208301846131c5565b634e487b7160e01b600052604160045260246000fd5b601f8201601f191681016001600160401b038111828210171561323f5761323f613204565b6040525050565b60006001600160401b0382111561325f5761325f613204565b50601f01601f191660200190565b600082601f83011261327e57600080fd5b813561328981613246565b604051613296828261321a565b8281528560208487010111156132ab57600080fd5b82602086016020830137600092810160200192909252509392505050565b600080604083850312156132dc57600080fd5b82356001600160401b038111156132f257600080fd5b6132fe8582860161326d565b95602094909401359450505050565b60006020828403121561331f57600080fd5b5035919050565b6000806040838503121561333957600080fd5b50508035926020909101359150565b60006001600160401b0382111561336157613361613204565b5060051b60200190565b600082601f83011261337c57600080fd5b8135602061338982613348565b604051613396828261321a565b83815260059390931b85018201928281019150868411156133b657600080fd5b8286015b848110156133d157803583529183019183016133ba565b509695505050505050565b600080600080600060a086880312156133f457600080fd5b6133fd86613119565b945061340b60208701613119565b935060408601356001600160401b038082111561342757600080fd5b61343389838a0161336b565b9450606088013591508082111561344957600080fd5b61345589838a0161336b565b9350608088013591508082111561346b57600080fd5b506134788882890161326d565b9150509295509295909350565b6000806040838503121561349857600080fd5b82356001600160401b03808211156134af57600080fd5b818501915085601f8301126134c357600080fd5b813560206134d082613348565b6040516134dd828261321a565b83815260059390931b85018201928281019150898411156134fd57600080fd5b948201945b838610156135225761351386613119565b82529482019490820190613502565b9650508601359250508082111561353857600080fd5b506135458582860161336b565b9150509250929050565b600081518084526020808501945080840160005b8381101561357f57815187529582019590820190600101613563565b509495945050505050565b602081526000613192602083018461354f565b600080604083850312156135b057600080fd5b82356001600160401b03808211156135c757600080fd5b9084019060e082870312156135db57600080fd5b909250602084013590808211156135f157600080fd5b506135458582860161326d565b60008060006060848603121561361357600080fd5b61361c84613119565b925060208401356001600160401b0381111561363757600080fd5b6136438682870161326d565b925050604084013590509250925092565b8015158114611ce357600080fd5b6000806040838503121561367557600080fd5b61367e83613119565b9150602083013561368e81613654565b809150509250929050565b600080604083850312156136ac57600080fd5b82356001600160401b03808211156136c357600080fd5b9084019060c082870312156135db57600080fd5b60008082840360a08112156136eb57600080fd5b60808112156136f957600080fd5b5082915060808301356001600160401b0381111561371657600080fd5b6135458582860161326d565b6000806040838503121561373557600080fd5b61373e83613119565b915061374c60208401613119565b90509250929050565b600080600080600060a0868803121561376d57600080fd5b61377686613119565b945061378460208701613119565b9350604086013592506060860135915060808601356001600160401b038111156137ad57600080fd5b6134788882890161326d565b6000806000606084860312156137ce57600080fd5b6137d784613119565b95602085013595506040909401359392505050565b600181811c9082168061380057607f821691505b6020821081141561382157634e487b7160e01b600052602260045260246000fd5b50919050565b60006020828403121561383957600080fd5b81516001600160401b0381111561384f57600080fd5b8201601f8101841361386057600080fd5b805161386b81613246565b604051613878828261321a565b82815286602084860101111561388d57600080fd5b61389e836020830160208701613199565b9695505050505050565b6768747470733a2f2f60c01b8152600083516138cb816008850160208801613199565b602f60f81b60089184019182015283516138ec816009840160208801613199565b6917bdb4b23e973539b7b760b11b60099290910191820152601301949350505050565b634e487b7160e01b600052601160045260246000fd5b600081600019048311821515161561393f5761393f61390f565b500290565b60008261396157634e487b7160e01b600052601260045260246000fd5b500490565b6020808252602f908201527f455243313135353a2063616c6c6572206973206e6f7420746f6b656e206f776e60408201526e195c881b9bdc88185c1c1c9bdd9959608a1b606082015260800190565b634e487b7160e01b600052603260045260246000fd5b60006000198214156139df576139df61390f565b5060010190565b6000808335601e198436030181126139fd57600080fd5b8301803591506001600160401b03821115613a1757600080fd5b602001915036819003821315610b3657600080fd5b8183823760009101908152919050565b600060208284031215613a4e57600080fd5b81356001600160601b038116811461319257600080fd5b600060208284031215613a7757600080fd5b813561319281613654565b600060208284031215613a9457600080fd5b61319282613119565b600060208284031215613aaf57600080fd5b815161319281613654565b6020808252602d908201527f4e6f746573436f6c6c656374696f6e5570677261646561626c653a20494e564160408201526c4c49445f5349474e415455524560981b606082015260800190565b6000808335601e19843603018112613b1e57600080fd5b8301803591506001600160401b03821115613b3857600080fd5b6020019150600581901b3603821315610b3657600080fd5b60008184825b85811015613b85576001600160a01b03613b6f83613119565b1683526020928301929190910190600101613b56565b509095945050505050565b60006001600160fb1b03831115613ba657600080fd5b8260051b80858437600092019182525092915050565b60208082526025908201527f455243313135353a207472616e7366657220746f20746865207a65726f206164604082015264647265737360d81b606082015260800190565b6020808252602a908201527f455243313135353a20696e73756666696369656e742062616c616e636520666f60408201526939103a3930b739b332b960b11b606082015260800190565b60008219821115613c5e57613c5e61390f565b500190565b604081526000613c76604083018561354f565b8281036020840152613c88818561354f565b95945050505050565b6020808252602b908201527f496e697469616c697a61626c653a20636f6e7472616374206973206e6f74206960408201526a6e697469616c697a696e6760a81b606082015260800190565b60008251613cee818460208701613199565b9190910192915050565b6001600160a01b0386811682528516602082015260a060408201819052600090613d249083018661354f565b8281036060840152613d36818661354f565b90508281036080840152613d4a81856131c5565b98975050505050505050565b600060208284031215613d6857600080fd5b81516131928161315f565b600060033d1115613d8c5760046000803e5060005160e01c5b90565b600060443d1015613d9d5790565b6040516003193d81016004833e81513d6001600160401b038160248401118184111715613dcc57505050505090565b8285019150815181811115613de45750505050505090565b843d8701016020828501011115613dfe5750505050505090565b613b856020828601018761321a565b60208082526028908201527f455243313135353a204552433131353552656365697665722072656a656374656040820152676420746f6b656e7360c01b606082015260800190565b634e487b7160e01b600052602160045260246000fd5b6001600160a01b03868116825285166020820152604081018490526060810183905260a060808201819052600090613ea5908301846131c5565b97965050505050505056fec3d58168c5ae7397731d063d5bbf3d657854427343f4c083240f7aacaa2d0f62a2646970667358221220b2902fcf6db050fe3082a76f1b761b9e92ba8eed404df69b528a9d7071d4212764736f6c63430008090033",
  "deployedBytecode": "0x60806040526004361061020e5760003560e01c8063a22cb46511610118578063e160d1fe116100a0578063f5298aca1161006f578063f5298aca146106f5578063f698da2514610715578063f9aebda01461072a578063fdbd98b01461075b578063ffa1ad741461078f57600080fd5b8063e160d1fe1461063b578063e52cb36a1461065b578063e985e9c51461068c578063f242432a146106d557600080fd5b8063bd85b039116100e7578063bd85b039146105a4578063cb519d8c146105d1578063ceaa8686146105e4578063d367d89e14610604578063e09314ad1461061b57600080fd5b8063a22cb4651461050f578063a87a9f911461052f578063ae1e982b14610560578063b25645691461057357600080fd5b80633744cc681161019b5780634f558e791161016a5780634f558e791461046857806382b3c777146104975780638c0e8349146104b75780638dac9bbc146104ce5780639fbc8713146104ee57600080fd5b80633744cc68146103b457806341fdd546146103e85780634ce74859146104085780634e1273f41461043b57600080fd5b80630e89341c116101e25780630e89341c146102b857806312fde4b7146102d85780632617fe381461031f5780632a55205a146103535780632eb2c2d61461039257600080fd5b8062fdd58e1461021357806301ffc9a71461024657806306fdde03146102765780630e79703b14610298575b600080fd5b34801561021f57600080fd5b5061023361022e366004613135565b6107c0565b6040519081526020015b60405180910390f35b34801561025257600080fd5b50610266610261366004613175565b610858565b604051901515815260200161023d565b34801561028257600080fd5b5061028b610869565b60405161023d91906131f1565b3480156102a457600080fd5b506102336102b33660046132c9565b6108f8565b3480156102c457600080fd5b5061028b6102d336600461330d565b610939565b3480156102e457600080fd5b507f00000000000000000000000000000000000000000000000000000000000000005b6040516001600160a01b03909116815260200161023d565b34801561032b57600080fd5b506102337f000000000000000000000000000000000000000000000000000000000000000081565b34801561035f57600080fd5b5061037361036e366004613326565b610a8f565b604080516001600160a01b03909316835260208301919091520161023d565b34801561039e57600080fd5b506103b26103ad3660046133dc565b610b3d565b005b3480156103c057600080fd5b506102337f000000000000000000000000000000000000000000000000000000000000000081565b3480156103f457600080fd5b5061028b61040336600461330d565b610b89565b34801561041457600080fd5b507f0000000000000000000000000000000000000000000000000000000000000000610307565b34801561044757600080fd5b5061045b610456366004613485565b610ba3565b60405161023d919061358a565b34801561047457600080fd5b5061026661048336600461330d565b600090815260c96020526040902054151590565b3480156104a357600080fd5b506102666104b236600461359d565b610ccc565b3480156104c357600080fd5b506102336101315481565b3480156104da57600080fd5b506103b26104e93660046135fe565b610e0d565b3480156104fa57600080fd5b5061013354610307906001600160a01b031681565b34801561051b57600080fd5b506103b261052a366004613662565b610fcc565b34801561053b57600080fd5b5061026661054a36600461330d565b6101376020526000908152604090205460ff1681565b6103b261056e36600461359d565b610fdb565b34801561057f57600080fd5b5061026661058e36600461330d565b6101366020526000908152604090205460ff1681565b3480156105b057600080fd5b506102336105bf36600461330d565b600090815260c9602052604090205490565b6103b26105df366004613699565b6113ca565b3480156105f057600080fd5b506102666105ff3660046136d7565b6115b4565b34801561061057600080fd5b506102336101305481565b34801561062757600080fd5b50610266610636366004613699565b611643565b34801561064757600080fd5b506103b26106563660046136d7565b61173a565b34801561066757600080fd5b5061026661067636600461330d565b6000908152610132602052604090205460ff1690565b34801561069857600080fd5b506102666106a7366004613722565b6001600160a01b03918216600090815260986020908152604080832093909416825291909152205460ff1690565b3480156106e157600080fd5b506103b26106f0366004613755565b611853565b34801561070157600080fd5b506103b26107103660046137b9565b6118d4565b34801561072157600080fd5b50610233611a14565b34801561073657600080fd5b5061026661074536600461330d565b6101326020526000908152604090205460ff1681565b34801561076757600080fd5b506103077f000000000000000000000000000000000000000000000000000000000000000081565b34801561079b57600080fd5b5061028b60405180604001604052806005815260200164181718171960d91b81525081565b60006001600160a01b0383166108305760405162461bcd60e51b815260206004820152602a60248201527f455243313135353a2061646472657373207a65726f206973206e6f742061207660448201526930b634b21037bbb732b960b11b60648201526084015b60405180910390fd5b5060009081526097602090815260408083206001600160a01b03949094168352929052205490565b600061086382611a23565b92915050565b61012f8054610877906137ec565b80601f01602080910402602001604051908101604052809291908181526020018280546108a3906137ec565b80156108f05780601f106108c5576101008083540402835291602001916108f0565b820191906000526020600020905b8154815290600101906020018083116108d357829003601f168201915b505050505081565b815160208184018101805161013582529282019185019190912091905280548290811061092457600080fd5b90600052602060002001600091509150505481565b604051631623433d60e31b81527f0000000000000000000000000000000000000000000000000000000000000000600482015260609073__$51669e1cb9fcb524e61b1b12a5e865aabb$__9063b11a19e89060240160006040518083038186803b1580156109a657600080fd5b505af41580156109ba573d6000803e3d6000fd5b505050506040513d6000823e601f3d908101601f191682016040526109e29190810190613827565b604051632b65311f60e11b815230600482015273__$51669e1cb9fcb524e61b1b12a5e865aabb$__906356ca623e9060240160006040518083038186803b158015610a2c57600080fd5b505af4158015610a40573d6000803e3d6000fd5b505050506040513d6000823e601f3d908101601f19168201604052610a689190810190613827565b604051602001610a799291906138a8565b6040516020818303038152906040529050919050565b60008281526066602090815260408083208151808301909252546001600160a01b038116808352600160a01b9091046001600160601b0316928201929092528291610b045750604080518082019091526065546001600160a01b0381168252600160a01b90046001600160601b031660208201525b602081015160009061271090610b23906001600160601b031687613925565b610b2d9190613944565b91519350909150505b9250929050565b6001600160a01b038516331480610b595750610b5985336106a7565b610b755760405162461bcd60e51b815260040161082790613966565b610b828585858585611a63565b5050505050565b6101346020526000908152604090208054610877906137ec565b60608151835114610c085760405162461bcd60e51b815260206004820152602960248201527f455243313135353a206163636f756e747320616e6420696473206c656e677468604482015268040dad2e6dac2e8c6d60bb1b6064820152608401610827565b600083516001600160401b03811115610c2357610c23613204565b604051908082528060200260200182016040528015610c4c578160200160208202803683370190505b50905060005b8451811015610cc457610c97858281518110610c7057610c706139b5565b6020026020010151858381518110610c8a57610c8a6139b5565b60200260200101516107c0565b828281518110610ca957610ca96139b5565b6020908102919091010152610cbd816139cb565b9050610c52565b509392505050565b600080610dd783610dd17f3506834689ad1841c5100a9b04b02b48f674e7ba1c33e93733b970cb5fb777a4610d0188806139e6565b604051610d0f929190613a2c565b6040518091039020886020016020810190610d2a9190613a3c565b610d3a60608b0160408c01613a65565b610d4a60808c0160608d01613a65565b8b608001358c60a001358d60c0016020810190610d679190613a82565b6040805160208101999099528801969096526001600160601b0390941660608701529115156080860152151560a085015260c084015260e08301526001600160a01b0316610100820152610120015b60405160208183030381529060405280519060200120611c49565b90611c97565b6001600160a01b037f00000000000000000000000000000000000000000000000000000000000000008116911614949350505050565b600054610100900460ff1615808015610e2d5750600054600160ff909116105b80610e475750303b158015610e47575060005460ff166001145b610eaa5760405162461bcd60e51b815260206004820152602e60248201527f496e697469616c697a61626c653a20636f6e747261637420697320616c72656160448201526d191e481a5b9a5d1a585b1a5e995960921b6064820152608401610827565b6000805460ff191660011790558015610ecd576000805461ff0019166101001790555b8251610ee19061012f906020860190613080565b5061013380546001600160a01b0319166001600160a01b038616179055610130829055604080516020810190915260008152610f1c90611cb3565b610f24611ce6565b610f806040518060400160405280601a81526020017f4e6f746573436f6c6c656374696f6e5570677261646561626c6500000000000081525060405180604001604052806005815260200164181718171960d91b815250611d0f565b8015610fc6576000805461ff0019169055604051600181527f7f26b83ff96e1f2b6a682f133852f6798a09c465da95921460cefb38474024989060200160405180910390a15b50505050565b610fd7338383611d40565b5050565b348260800135111561101d5760405162461bcd60e51b815260206004820152600b60248201526a155b99195c9c1c9a58d95960aa1b6044820152606401610827565b60a08201356000908152610132602052604090205460ff16156110975760405162461bcd60e51b815260206004820152602c60248201527f4e6f746573436f6c6c656374696f6e5570677261646561626c653a20416c726560448201526b18591e48195e1958dd5d195960a21b6064820152608401610827565b336110a860e0840160c08501613a82565b6001600160a01b0316146111115760405162461bcd60e51b815260206004820152602a60248201527f4e6f746573436f6c6c656374696f6e5570677261646561626c653a20494e56416044820152692624a22fa9a2a72222a960b11b6064820152608401610827565b61111b82806139e6565b8080601f01602080910402602001604051908101604052809392919081815260200183838082843760009201919091525050604051637b7acf8960e01b815273__$2bb727cc0ef0ded9e2da0b5e05e5e30641$__93637b7acf8993506111859250906004016131f1565b60206040518083038186803b15801561119d57600080fd5b505af41580156111b1573d6000803e3d6000fd5b505050506040513d601f19601f820116820180604052508101906111d59190613a9d565b61123a5760405162461bcd60e51b815260206004820152603060248201527f4e6f746573436f6c6c656374696f6e5570677261646561626c653a20536c756760448201526f040ccdee4dac2e840dad2e6dac2e8c6d60831b6064820152608401610827565b6112448282610ccc565b6112605760405162461bcd60e51b815260040161082790613aba565b60a0820135600090815261013260205260409020805460ff191660011790556112e661128c83806139e6565b8080601f0160208091040260200160405190810160405280939291908181526020018383808284376000920191909152506112d1925050506060850160408601613a65565b6112e16080860160608701613a65565b611e21565b610133546001600160a01b03161561132357610131546101335461132391906001600160a01b031661131e6040860160208701613a3c565b612096565b60808201351561133657611336346121a4565b6001600160a01b037f00000000000000000000000000000000000000000000000000000000000000001663b42c0019336040516001600160e01b031960e084901b1681526001600160a01b03909116600482015260016024820152604401600060405180830381600087803b1580156113ae57600080fd5b505af11580156113c2573d6000803e3d6000fd5b505050505050565b60808201356000908152610132602052604090205460ff16156114225760405162461bcd60e51b815260206004820152601060248201526f105b1c9958591e48195e1958dd5d195960821b6044820152606401610827565b34826060013511156114645760405162461bcd60e51b815260206004820152600b60248201526a155b99195c9c1c9a58d95960aa1b6044820152606401610827565b61146e8282611643565b6114ae5760405162461bcd60e51b8152602060048201526011602482015270494e56414c49445f5349474e415455524560781b6044820152606401610827565b6080820135600090815261013260209081526040909120805460ff19166001179055611559906114e090840184613b07565b80806020026020016040519081016040528093929190818152602001838360200280828437600092019190915250508535915061152290506040860186613b07565b808060200260200160405190810160405280939291908181526020018383602002808284376000920191909152506121ce92505050565b60608201351561156c5761156c346121a4565b610fd73361157d6040850185613b07565b808060200260200160405190810160405280939291908181526020018383602002808284376000920191909152506122ee92505050565b600080610dd783610dd17f83d60c017c89ace7d1c8ea6f057f480338ce73e156650228f00b96696b32d68887356115f160408a0160208b01613a3c565b60408a013561160660808c0160608d01613a82565b6040805160208101969096528501939093526001600160601b03909116606084015260808301526001600160a01b031660a082015260c001610db6565b600080610dd783610dd17fab248fd20764e7aaff2889234a247b3c201544ee877b210e3fdd000110ac7064873561167d60208a018a613b07565b60405160200161168e929190613b50565b604051602081830303815290604052805190602001208980604001906116b49190613b07565b6040516020016116c5929190613b90565b60408051601f19818403018152919052805160209091012060608b013560808c01356116f760c08e0160a08f01613a82565b6040805160208101989098528701959095526060860193909352608085019190915260a084015260c08301526001600160a01b031660e082015261010001610db6565b610133546001600160a01b03166117935760405162461bcd60e51b815260206004820152601860248201527f556e6b6e6f776e20726f79616c747920726563656976657200000000000000006044820152606401610827565b6040808301356000908152610132602052205460ff16156117e95760405162461bcd60e51b815260206004820152601060248201526f105b1c9958591e48195e1958dd5d195960821b6044820152606401610827565b6117f382826115b4565b61180f5760405162461bcd60e51b815260040161082790613aba565b6040808301803560009081526101326020908152929020805460ff1916600117905561013354610fd7928535926001600160a01b039092169161131e918701613a3c565b6000838152610136602052604090205460ff166118c75760405162461bcd60e51b815260206004820152602c60248201527f4e6f746573436f6c6c656374696f6e5570677261646561626c653a206e6f6e2d60448201526b7472616e7366657261626c6560a01b6064820152608401610827565b610b8285858585856123bc565b6000828152610137602052604090205460ff1661196b5760405162461bcd60e51b815260206004820152604960248201527f4e6f746573436f6c6c656374696f6e5570677261646561626c653a204e6f742060448201527f61206f6e652d74696d652d7669657720746f6b656e20636f756c64206e6f7420606482015268189948189d5c9b995960ba1b608482015260a401610827565b6001600160a01b038316331480611987575061198783336106a7565b611a045760405162461bcd60e51b815260206004820152604260248201527f4e6f746573436f6c6c656374696f6e5570677261646561626c653a2063616c6c60448201527f6572206973206e6f7420746f6b656e206f776e6572206e6f7220617070726f76606482015261195960f21b608482015260a401610827565b611a0f838383612401565b505050565b6000611a1e612583565b905090565b60006001600160e01b03198216636cdb3d1360e11b1480611a5457506001600160e01b031982166303a24d0760e21b145b806108635750610863826125fe565b8151835114611ac55760405162461bcd60e51b815260206004820152602860248201527f455243313135353a2069647320616e6420616d6f756e7473206c656e677468206044820152670dad2e6dac2e8c6d60c31b6064820152608401610827565b6001600160a01b038416611aeb5760405162461bcd60e51b815260040161082790613bbc565b33611afa818787878787612633565b60005b8451811015611be3576000858281518110611b1a57611b1a6139b5565b602002602001015190506000858381518110611b3857611b386139b5565b60209081029190910181015160008481526097835260408082206001600160a01b038e168352909352919091205490915081811015611b895760405162461bcd60e51b815260040161082790613c01565b60008381526097602090815260408083206001600160a01b038e8116855292528083208585039055908b16825281208054849290611bc8908490613c4b565b9250508190555050505080611bdc906139cb565b9050611afd565b50846001600160a01b0316866001600160a01b0316826001600160a01b03167f4a39dc06d4c0dbc64b70af90fd698a233a518aa5d07e595d983b8c0526c8f7fb8787604051611c33929190613c63565b60405180910390a46113c2818787878787612641565b6000610863611c56612583565b8360405161190160f01b6020820152602281018390526042810182905260009060620160405160208183030381529060405280519060200120905092915050565b6000806000611ca685856127ac565b91509150610cc4816127ef565b600054610100900460ff16611cda5760405162461bcd60e51b815260040161082790613c91565b611ce3816129aa565b50565b600054610100900460ff16611d0d5760405162461bcd60e51b815260040161082790613c91565b565b600054610100900460ff16611d365760405162461bcd60e51b815260040161082790613c91565b610fd782826129da565b816001600160a01b0316836001600160a01b03161415611db45760405162461bcd60e51b815260206004820152602960248201527f455243313135353a2073657474696e6720617070726f76616c20737461747573604482015268103337b91039b2b63360b91b6064820152608401610827565b6001600160a01b03838116600081815260986020908152604080832094871680845294825291829020805460ff191686151590811790915591519182527f17307eab39ab6107e8899845ad3d59bd9653f200f220920489ca2b5937696c31910160405180910390a3505050565b6000835111611e625760405162461bcd60e51b815260206004820152600d60248201526c115b5c1d1e48199a5b19481a59609a1b6044820152606401610827565b60005b61013584604051611e769190613cdc565b90815260405190819003602001902054811015611f8657600061013585604051611ea09190613cdc565b90815260200160405180910390208281548110611ebf57611ebf6139b5565b600091825260208083209091015480835261013690915260409091205490915060ff161515841515141580611f0a57506000818152610137602052604090205460ff16151583151514155b611f735760405162461bcd60e51b815260206004820152603460248201527f546f6b656e20666f7220746869732066696c6520776974682073756368206f7060448201527374696f6e7320616c72656164792065786973747360601b6064820152608401610827565b5080611f7e816139cb565b915050611e65565b5061013154611f96906001613c4b565b6101318190556000908152610134602090815260409091208451611fbc92860190613080565b5061013583604051611fce9190613cdc565b90815260408051602092819003830181206101318054825460018101845560009384528684200155805482526101368552838220805460ff1990811689151517909155815483526101378652848320805490911687151517905554825292810183905282913391600080516020613eb1833981519152910160405180910390a4610131547f6bb7ff708619ba0610cba295a58592e0451dee2622938c8755667688daf3529b61207c82610939565b60405161208991906131f1565b60405180910390a2505050565b6127106001600160601b03821611156121045760405162461bcd60e51b815260206004820152602a60248201527f455243323938313a20726f79616c7479206665652077696c6c206578636565646044820152692073616c65507269636560b01b6064820152608401610827565b6001600160a01b03821661215a5760405162461bcd60e51b815260206004820152601b60248201527f455243323938313a20496e76616c696420706172616d657465727300000000006044820152606401610827565b6040805180820182526001600160a01b0393841681526001600160601b0392831660208083019182526000968752606690529190942093519051909116600160a01b029116179055565b611ce37f000000000000000000000000000000000000000000000000000000000000000082612a1b565b60008281526101346020526040812080546121e8906137ec565b90501161222e5760405162461bcd60e51b8152602060048201526014602482015273151bdad95b88191bd95cc81b9bdd08195e1a5cdd60621b6044820152606401610827565b80518351146122785760405162461bcd60e51b8152602060048201526016602482015275088d2cccccae4cadce840c2e4e4c2f240d8cadccee8d60531b6044820152606401610827565b60005b8351811015610fc6576122dc848281518110612299576122996139b5565b6020026020010151848484815181106122b4576122b46139b5565b602002602001015160405180604001604052806002815260200161060f60f31b815250612abe565b806122e6816139cb565b91505061227b565b6000805b82518110156123345782818151811061230d5761230d6139b5565b6020026020010151826123209190613c4b565b91508061232c816139cb565b9150506122f2565b5060405163ec7d1fc960e01b81526001600160a01b038481166004830152602482018390527f0000000000000000000000000000000000000000000000000000000000000000169063ec7d1fc990604401600060405180830381600087803b15801561239f57600080fd5b505af11580156123b3573d6000803e3d6000fd5b50505050505050565b6001600160a01b0385163314806123d857506123d885336106a7565b6123f45760405162461bcd60e51b815260040161082790613966565b610b828585858585612bc8565b6001600160a01b0383166124635760405162461bcd60e51b815260206004820152602360248201527f455243313135353a206275726e2066726f6d20746865207a65726f206164647260448201526265737360e81b6064820152608401610827565b33600061246f84612cf2565b9050600061247c84612cf2565b905061249c83876000858560405180602001604052806000815250612633565b60008581526097602090815260408083206001600160a01b038a1684529091529020548481101561251b5760405162461bcd60e51b8152602060048201526024808201527f455243313135353a206275726e20616d6f756e7420657863656564732062616c604482015263616e636560e01b6064820152608401610827565b60008681526097602090815260408083206001600160a01b038b81168086529184528285208a8703905582518b81529384018a9052909290881691600080516020613eb1833981519152910160405180910390a46040805160208101909152600090526123b3565b6000611a1e7f8b73c3c69bb8fe3d512ecc4cf759cc79239f7b179b0ffacaa9a75d522b39400f6125b260fb5490565b60fc546040805160208101859052908101839052606081018290524660808201523060a082015260009060c0016040516020818303038152906040528051906020012090509392505050565b60006001600160e01b0319821663152a902d60e11b148061086357506301ffc9a760e01b6001600160e01b0319831614610863565b6113c2868686868686612d3d565b6001600160a01b0384163b156113c25760405163bc197c8160e01b81526001600160a01b0385169063bc197c81906126859089908990889088908890600401613cf8565b602060405180830381600087803b15801561269f57600080fd5b505af19250505080156126cf575060408051601f3d908101601f191682019092526126cc91810190613d56565b60015b61277c576126db613d73565b806308c379a0141561271557506126f0613d8f565b806126fb5750612717565b8060405162461bcd60e51b815260040161082791906131f1565b505b60405162461bcd60e51b815260206004820152603460248201527f455243313135353a207472616e7366657220746f206e6f6e20455243313135356044820152732932b1b2b4bb32b91034b6b83632b6b2b73a32b960611b6064820152608401610827565b6001600160e01b0319811663bc197c8160e01b146123b35760405162461bcd60e51b815260040161082790613e0d565b6000808251604114156127e35760208301516040840151606085015160001a6127d787828585612eb6565b94509450505050610b36565b50600090506002610b36565b600081600481111561280357612803613e55565b141561280c5750565b600181600481111561282057612820613e55565b141561286e5760405162461bcd60e51b815260206004820152601860248201527f45434453413a20696e76616c6964207369676e617475726500000000000000006044820152606401610827565b600281600481111561288257612882613e55565b14156128d05760405162461bcd60e51b815260206004820152601f60248201527f45434453413a20696e76616c6964207369676e6174757265206c656e677468006044820152606401610827565b60038160048111156128e4576128e4613e55565b141561293d5760405162461bcd60e51b815260206004820152602260248201527f45434453413a20696e76616c6964207369676e6174757265202773272076616c604482015261756560f01b6064820152608401610827565b600481600481111561295157612951613e55565b1415611ce35760405162461bcd60e51b815260206004820152602260248201527f45434453413a20696e76616c6964207369676e6174757265202776272076616c604482015261756560f01b6064820152608401610827565b600054610100900460ff166129d15760405162461bcd60e51b815260040161082790613c91565b611ce381612fa3565b600054610100900460ff16612a015760405162461bcd60e51b815260040161082790613c91565b81516020928301208151919092012060fb9190915560fc55565b6000826001600160a01b03168260405160006040518083038185875af1925050503d8060008114612a68576040519150601f19603f3d011682016040523d82523d6000602084013e612a6d565b606091505b5050905080611a0f5760405162461bcd60e51b815260206004820181905260248201527f50616964416374696f6e733a20666565207472616e73666572206661696c65646044820152606401610827565b6001600160a01b038416612b1e5760405162461bcd60e51b815260206004820152602160248201527f455243313135353a206d696e7420746f20746865207a65726f206164647265736044820152607360f81b6064820152608401610827565b336000612b2a85612cf2565b90506000612b3785612cf2565b9050612b4883600089858589612633565b60008681526097602090815260408083206001600160a01b038b16845290915281208054879290612b7a908490613c4b565b909155505060408051878152602081018790526001600160a01b03808a169260009291871691600080516020613eb1833981519152910160405180910390a46123b383600089898989612fb6565b6001600160a01b038416612bee5760405162461bcd60e51b815260040161082790613bbc565b336000612bfa85612cf2565b90506000612c0785612cf2565b9050612c17838989858589612633565b60008681526097602090815260408083206001600160a01b038c16845290915290205485811015612c5a5760405162461bcd60e51b815260040161082790613c01565b60008781526097602090815260408083206001600160a01b038d8116855292528083208985039055908a16825281208054889290612c99908490613c4b565b909155505060408051888152602081018890526001600160a01b03808b16928c82169291881691600080516020613eb1833981519152910160405180910390a4612ce7848a8a8a8a8a612fb6565b505050505050505050565b60408051600180825281830190925260609160009190602080830190803683370190505090508281600081518110612d2c57612d2c6139b5565b602090810291909101015292915050565b6001600160a01b038516612dc45760005b8351811015612dc257828181518110612d6957612d696139b5565b602002602001015160c96000868481518110612d8757612d876139b5565b602002602001015181526020019081526020016000206000828254612dac9190613c4b565b90915550612dbb9050816139cb565b9050612d4e565b505b6001600160a01b0384166113c25760005b83518110156123b3576000848281518110612df257612df26139b5565b602002602001015190506000848381518110612e1057612e106139b5565b60200260200101519050600060c9600084815260200190815260200160002054905081811015612e935760405162461bcd60e51b815260206004820152602860248201527f455243313135353a206275726e20616d6f756e74206578636565647320746f74604482015267616c537570706c7960c01b6064820152608401610827565b600092835260c9602052604090922091039055612eaf816139cb565b9050612dd5565b6000807f7fffffffffffffffffffffffffffffff5d576e7357a4501ddfe92f46681b20a0831115612eed5750600090506003612f9a565b8460ff16601b14158015612f0557508460ff16601c14155b15612f165750600090506004612f9a565b6040805160008082526020820180845289905260ff881692820192909252606081018690526080810185905260019060a0016020604051602081039080840390855afa158015612f6a573d6000803e3d6000fd5b5050604051601f1901519150506001600160a01b038116612f9357600060019250925050612f9a565b9150600090505b94509492505050565b8051610fd7906099906020840190613080565b6001600160a01b0384163b156113c25760405163f23a6e6160e01b81526001600160a01b0385169063f23a6e6190612ffa9089908990889088908890600401613e6b565b602060405180830381600087803b15801561301457600080fd5b505af1925050508015613044575060408051601f3d908101601f1916820190925261304191810190613d56565b60015b613050576126db613d73565b6001600160e01b0319811663f23a6e6160e01b146123b35760405162461bcd60e51b815260040161082790613e0d565b82805461308c906137ec565b90600052602060002090601f0160209004810192826130ae57600085556130f4565b82601f106130c757805160ff19168380011785556130f4565b828001600101855582156130f4579182015b828111156130f45782518255916020019190600101906130d9565b50613100929150613104565b5090565b5b808211156131005760008155600101613105565b80356001600160a01b038116811461313057600080fd5b919050565b6000806040838503121561314857600080fd5b61315183613119565b946020939093013593505050565b6001600160e01b031981168114611ce357600080fd5b60006020828403121561318757600080fd5b81356131928161315f565b9392505050565b60005b838110156131b457818101518382015260200161319c565b83811115610fc65750506000910152565b600081518084526131dd816020860160208601613199565b601f01601f19169290920160200192915050565b60208152600061319260208301846131c5565b634e487b7160e01b600052604160045260246000fd5b601f8201601f191681016001600160401b038111828210171561323f5761323f613204565b6040525050565b60006001600160401b0382111561325f5761325f613204565b50601f01601f191660200190565b600082601f83011261327e57600080fd5b813561328981613246565b604051613296828261321a565b8281528560208487010111156132ab57600080fd5b82602086016020830137600092810160200192909252509392505050565b600080604083850312156132dc57600080fd5b82356001600160401b038111156132f257600080fd5b6132fe8582860161326d565b95602094909401359450505050565b60006020828403121561331f57600080fd5b5035919050565b6000806040838503121561333957600080fd5b50508035926020909101359150565b60006001600160401b0382111561336157613361613204565b5060051b60200190565b600082601f83011261337c57600080fd5b8135602061338982613348565b604051613396828261321a565b83815260059390931b85018201928281019150868411156133b657600080fd5b8286015b848110156133d157803583529183019183016133ba565b509695505050505050565b600080600080600060a086880312156133f457600080fd5b6133fd86613119565b945061340b60208701613119565b935060408601356001600160401b038082111561342757600080fd5b61343389838a0161336b565b9450606088013591508082111561344957600080fd5b61345589838a0161336b565b9350608088013591508082111561346b57600080fd5b506134788882890161326d565b9150509295509295909350565b6000806040838503121561349857600080fd5b82356001600160401b03808211156134af57600080fd5b818501915085601f8301126134c357600080fd5b813560206134d082613348565b6040516134dd828261321a565b83815260059390931b85018201928281019150898411156134fd57600080fd5b948201945b838610156135225761351386613119565b82529482019490820190613502565b9650508601359250508082111561353857600080fd5b506135458582860161336b565b9150509250929050565b600081518084526020808501945080840160005b8381101561357f57815187529582019590820190600101613563565b509495945050505050565b602081526000613192602083018461354f565b600080604083850312156135b057600080fd5b82356001600160401b03808211156135c757600080fd5b9084019060e082870312156135db57600080fd5b909250602084013590808211156135f157600080fd5b506135458582860161326d565b60008060006060848603121561361357600080fd5b61361c84613119565b925060208401356001600160401b0381111561363757600080fd5b6136438682870161326d565b925050604084013590509250925092565b8015158114611ce357600080fd5b6000806040838503121561367557600080fd5b61367e83613119565b9150602083013561368e81613654565b809150509250929050565b600080604083850312156136ac57600080fd5b82356001600160401b03808211156136c357600080fd5b9084019060c082870312156135db57600080fd5b60008082840360a08112156136eb57600080fd5b60808112156136f957600080fd5b5082915060808301356001600160401b0381111561371657600080fd5b6135458582860161326d565b6000806040838503121561373557600080fd5b61373e83613119565b915061374c60208401613119565b90509250929050565b600080600080600060a0868803121561376d57600080fd5b61377686613119565b945061378460208701613119565b9350604086013592506060860135915060808601356001600160401b038111156137ad57600080fd5b6134788882890161326d565b6000806000606084860312156137ce57600080fd5b6137d784613119565b95602085013595506040909401359392505050565b600181811c9082168061380057607f821691505b6020821081141561382157634e487b7160e01b600052602260045260246000fd5b50919050565b60006020828403121561383957600080fd5b81516001600160401b0381111561384f57600080fd5b8201601f8101841361386057600080fd5b805161386b81613246565b604051613878828261321a565b82815286602084860101111561388d57600080fd5b61389e836020830160208701613199565b9695505050505050565b6768747470733a2f2f60c01b8152600083516138cb816008850160208801613199565b602f60f81b60089184019182015283516138ec816009840160208801613199565b6917bdb4b23e973539b7b760b11b60099290910191820152601301949350505050565b634e487b7160e01b600052601160045260246000fd5b600081600019048311821515161561393f5761393f61390f565b500290565b60008261396157634e487b7160e01b600052601260045260246000fd5b500490565b6020808252602f908201527f455243313135353a2063616c6c6572206973206e6f7420746f6b656e206f776e60408201526e195c881b9bdc88185c1c1c9bdd9959608a1b606082015260800190565b634e487b7160e01b600052603260045260246000fd5b60006000198214156139df576139df61390f565b5060010190565b6000808335601e198436030181126139fd57600080fd5b8301803591506001600160401b03821115613a1757600080fd5b602001915036819003821315610b3657600080fd5b8183823760009101908152919050565b600060208284031215613a4e57600080fd5b81356001600160601b038116811461319257600080fd5b600060208284031215613a7757600080fd5b813561319281613654565b600060208284031215613a9457600080fd5b61319282613119565b600060208284031215613aaf57600080fd5b815161319281613654565b6020808252602d908201527f4e6f746573436f6c6c656374696f6e5570677261646561626c653a20494e564160408201526c4c49445f5349474e415455524560981b606082015260800190565b6000808335601e19843603018112613b1e57600080fd5b8301803591506001600160401b03821115613b3857600080fd5b6020019150600581901b3603821315610b3657600080fd5b60008184825b85811015613b85576001600160a01b03613b6f83613119565b1683526020928301929190910190600101613b56565b509095945050505050565b60006001600160fb1b03831115613ba657600080fd5b8260051b80858437600092019182525092915050565b60208082526025908201527f455243313135353a207472616e7366657220746f20746865207a65726f206164604082015264647265737360d81b606082015260800190565b6020808252602a908201527f455243313135353a20696e73756666696369656e742062616c616e636520666f60408201526939103a3930b739b332b960b11b606082015260800190565b60008219821115613c5e57613c5e61390f565b500190565b604081526000613c76604083018561354f565b8281036020840152613c88818561354f565b95945050505050565b6020808252602b908201527f496e697469616c697a61626c653a20636f6e7472616374206973206e6f74206960408201526a6e697469616c697a696e6760a81b606082015260800190565b60008251613cee818460208701613199565b9190910192915050565b6001600160a01b0386811682528516602082015260a060408201819052600090613d249083018661354f565b8281036060840152613d36818661354f565b90508281036080840152613d4a81856131c5565b98975050505050505050565b600060208284031215613d6857600080fd5b81516131928161315f565b600060033d1115613d8c5760046000803e5060005160e01c5b90565b600060443d1015613d9d5790565b6040516003193d81016004833e81513d6001600160401b038160248401118184111715613dcc57505050505090565b8285019150815181811115613de45750505050505090565b843d8701016020828501011115613dfe5750505050505090565b613b856020828601018761321a565b60208082526028908201527f455243313135353a204552433131353552656365697665722072656a656374656040820152676420746f6b656e7360c01b606082015260800190565b634e487b7160e01b600052602160045260246000fd5b6001600160a01b03868116825285166020820152604081018490526060810183905260a060808201819052600090613ea5908301846131c5565b97965050505050505056fec3d58168c5ae7397731d063d5bbf3d657854427343f4c083240f7aacaa2d0f62a2646970667358221220b2902fcf6db050fe3082a76f1b761b9e92ba8eed404df69b528a9d7071d4212764736f6c63430008090033",
  "libraries": {
    "az09Dash": "0x57142f1F8f77bD65cb0926Efb0B0853C05e841ea",
    "ECDSAUpgradeable": "0x6cf4D293d7DFBDC4fBdEF869111b9F4b4A9A95f5",
    "ToString": "0x26886b318972eC55034012356539eFCa7458c01f"
  },
  "devdoc": {
    "kind": "dev",
    "methods": {
      "balanceOf(address,uint256)": {
        "details": "See {IERC1155-balanceOf}. Requirements: - `account` cannot be the zero address."
      },
      "balanceOfBatch(address[],uint256[])": {
        "details": "See {IERC1155-balanceOfBatch}. Requirements: - `accounts` and `ids` must have the same length."
      },
      "exists(uint256)": {
        "details": "Indicates whether any token exist with a given id, or not."
      },
      "isApprovedForAll(address,address)": {
        "details": "See {IERC1155-isApprovedForAll}."
      },
      "royaltyInfo(uint256,uint256)": {
        "details": "Returns how much royalty is owed and to whom, based on a sale price that may be denominated in any unit of exchange. The royalty amount is denominated and should be paid in that same unit of exchange."
      },
      "safeBatchTransferFrom(address,address,uint256[],uint256[],bytes)": {
        "details": "See {IERC1155-safeBatchTransferFrom}."
      },
      "safeTransferFrom(address,address,uint256,uint256,bytes)": {
        "details": "See {IERC1155-safeTransferFrom}."
      },
      "setApprovalForAll(address,bool)": {
        "details": "See {IERC1155-setApprovalForAll}."
      },
      "totalSupply(uint256)": {
        "details": "Total amount of tokens in with a given id."
      },
      "uri(uint256)": {
        "details": "See {IERC1155MetadataURI-uri}. This implementation returns the same URI for *all* token types. It relies on the token type ID substitution mechanism https://eips.ethereum.org/EIPS/eip-1155#metadata[defined in the EIP]. Clients calling this function must replace the `\\{id\\}` substring with the actual token type ID."
      }
    },
    "version": 1
  },
  "userdoc": {
    "kind": "user",
    "methods": {},
    "version": 1
  },
  "storageLayout": {
    "storage": [
      {
        "astId": 585,
        "contract": "contracts/TokenizedNotes/NotesCollectionUpgradeable.sol:NotesCollectionUpgradeable",
        "label": "_initialized",
        "offset": 0,
        "slot": "0",
        "type": "t_uint8"
      },
      {
        "astId": 588,
        "contract": "contracts/TokenizedNotes/NotesCollectionUpgradeable.sol:NotesCollectionUpgradeable",
        "label": "_initializing",
        "offset": 1,
        "slot": "0",
        "type": "t_bool"
      },
      {
        "astId": 2831,
        "contract": "contracts/TokenizedNotes/NotesCollectionUpgradeable.sol:NotesCollectionUpgradeable",
        "label": "__gap",
        "offset": 0,
        "slot": "1",
        "type": "t_array(t_uint256)50_storage"
      },
      {
        "astId": 3639,
        "contract": "contracts/TokenizedNotes/NotesCollectionUpgradeable.sol:NotesCollectionUpgradeable",
        "label": "__gap",
        "offset": 0,
        "slot": "51",
        "type": "t_array(t_uint256)50_storage"
      },
      {
        "astId": 2361,
        "contract": "contracts/TokenizedNotes/NotesCollectionUpgradeable.sol:NotesCollectionUpgradeable",
        "label": "_defaultRoyaltyInfo",
        "offset": 0,
        "slot": "101",
        "type": "t_struct(RoyaltyInfo)2358_storage"
      },
      {
        "astId": 2366,
        "contract": "contracts/TokenizedNotes/NotesCollectionUpgradeable.sol:NotesCollectionUpgradeable",
        "label": "_tokenRoyaltyInfo",
        "offset": 0,
        "slot": "102",
        "type": "t_mapping(t_uint256,t_struct(RoyaltyInfo)2358_storage)"
      },
      {
        "astId": 2546,
        "contract": "contracts/TokenizedNotes/NotesCollectionUpgradeable.sol:NotesCollectionUpgradeable",
        "label": "__gap",
        "offset": 0,
        "slot": "103",
        "type": "t_array(t_uint256)48_storage"
      },
      {
        "astId": 758,
        "contract": "contracts/TokenizedNotes/NotesCollectionUpgradeable.sol:NotesCollectionUpgradeable",
        "label": "_balances",
        "offset": 0,
        "slot": "151",
        "type": "t_mapping(t_uint256,t_mapping(t_address,t_uint256))"
      },
      {
        "astId": 764,
        "contract": "contracts/TokenizedNotes/NotesCollectionUpgradeable.sol:NotesCollectionUpgradeable",
        "label": "_operatorApprovals",
        "offset": 0,
        "slot": "152",
        "type": "t_mapping(t_address,t_mapping(t_address,t_bool))"
      },
      {
        "astId": 766,
        "contract": "contracts/TokenizedNotes/NotesCollectionUpgradeable.sol:NotesCollectionUpgradeable",
        "label": "_uri",
        "offset": 0,
        "slot": "153",
        "type": "t_string_storage"
      },
      {
        "astId": 1973,
        "contract": "contracts/TokenizedNotes/NotesCollectionUpgradeable.sol:NotesCollectionUpgradeable",
        "label": "__gap",
        "offset": 0,
        "slot": "154",
        "type": "t_array(t_uint256)47_storage"
      },
      {
        "astId": 2162,
        "contract": "contracts/TokenizedNotes/NotesCollectionUpgradeable.sol:NotesCollectionUpgradeable",
        "label": "_totalSupply",
        "offset": 0,
        "slot": "201",
        "type": "t_mapping(t_uint256,t_uint256)"
      },
      {
        "astId": 2313,
        "contract": "contracts/TokenizedNotes/NotesCollectionUpgradeable.sol:NotesCollectionUpgradeable",
        "label": "__gap",
        "offset": 0,
        "slot": "202",
        "type": "t_array(t_uint256)49_storage"
      },
      {
        "astId": 3455,
        "contract": "contracts/TokenizedNotes/NotesCollectionUpgradeable.sol:NotesCollectionUpgradeable",
        "label": "_HASHED_NAME",
        "offset": 0,
        "slot": "251",
        "type": "t_bytes32"
      },
      {
        "astId": 3457,
        "contract": "contracts/TokenizedNotes/NotesCollectionUpgradeable.sol:NotesCollectionUpgradeable",
        "label": "_HASHED_VERSION",
        "offset": 0,
        "slot": "252",
        "type": "t_bytes32"
      },
      {
        "astId": 3595,
        "contract": "contracts/TokenizedNotes/NotesCollectionUpgradeable.sol:NotesCollectionUpgradeable",
        "label": "__gap",
        "offset": 0,
        "slot": "253",
        "type": "t_array(t_uint256)50_storage"
      },
      {
        "astId": 7002,
        "contract": "contracts/TokenizedNotes/NotesCollectionUpgradeable.sol:NotesCollectionUpgradeable",
        "label": "name",
        "offset": 0,
        "slot": "303",
        "type": "t_string_storage"
      },
      {
        "astId": 7004,
        "contract": "contracts/TokenizedNotes/NotesCollectionUpgradeable.sol:NotesCollectionUpgradeable",
        "label": "workspaceId",
        "offset": 0,
        "slot": "304",
        "type": "t_uint256"
      },
      {
        "astId": 7006,
        "contract": "contracts/TokenizedNotes/NotesCollectionUpgradeable.sol:NotesCollectionUpgradeable",
        "label": "latestTokenId",
        "offset": 0,
        "slot": "305",
        "type": "t_uint256"
      },
      {
        "astId": 7010,
        "contract": "contracts/TokenizedNotes/NotesCollectionUpgradeable.sol:NotesCollectionUpgradeable",
        "label": "executedMap",
        "offset": 0,
        "slot": "306",
        "type": "t_mapping(t_bytes32,t_bool)"
      },
      {
        "astId": 7025,
        "contract": "contracts/TokenizedNotes/NotesCollectionUpgradeable.sol:NotesCollectionUpgradeable",
        "label": "royaltyReceiver",
        "offset": 0,
        "slot": "307",
        "type": "t_address"
      },
      {
        "astId": 7029,
        "contract": "contracts/TokenizedNotes/NotesCollectionUpgradeable.sol:NotesCollectionUpgradeable",
        "label": "tokenToNote",
        "offset": 0,
        "slot": "308",
        "type": "t_mapping(t_uint256,t_string_storage)"
      },
      {
        "astId": 7034,
        "contract": "contracts/TokenizedNotes/NotesCollectionUpgradeable.sol:NotesCollectionUpgradeable",
        "label": "noteToTokens",
        "offset": 0,
        "slot": "309",
        "type": "t_mapping(t_string_memory_ptr,t_array(t_uint256)dyn_storage)"
      },
      {
        "astId": 7038,
        "contract": "contracts/TokenizedNotes/NotesCollectionUpgradeable.sol:NotesCollectionUpgradeable",
        "label": "isTransferable",
        "offset": 0,
        "slot": "310",
        "type": "t_mapping(t_uint256,t_bool)"
      },
      {
        "astId": 7042,
        "contract": "contracts/TokenizedNotes/NotesCollectionUpgradeable.sol:NotesCollectionUpgradeable",
        "label": "isOneTimeView",
        "offset": 0,
        "slot": "311",
        "type": "t_mapping(t_uint256,t_bool)"
      }
    ],
    "types": {
      "t_address": {
        "encoding": "inplace",
        "label": "address",
        "numberOfBytes": "20"
      },
      "t_array(t_uint256)47_storage": {
        "base": "t_uint256",
        "encoding": "inplace",
        "label": "uint256[47]",
        "numberOfBytes": "1504"
      },
      "t_array(t_uint256)48_storage": {
        "base": "t_uint256",
        "encoding": "inplace",
        "label": "uint256[48]",
        "numberOfBytes": "1536"
      },
      "t_array(t_uint256)49_storage": {
        "base": "t_uint256",
        "encoding": "inplace",
        "label": "uint256[49]",
        "numberOfBytes": "1568"
      },
      "t_array(t_uint256)50_storage": {
        "base": "t_uint256",
        "encoding": "inplace",
        "label": "uint256[50]",
        "numberOfBytes": "1600"
      },
      "t_array(t_uint256)dyn_storage": {
        "base": "t_uint256",
        "encoding": "dynamic_array",
        "label": "uint256[]",
        "numberOfBytes": "32"
      },
      "t_bool": {
        "encoding": "inplace",
        "label": "bool",
        "numberOfBytes": "1"
      },
      "t_bytes32": {
        "encoding": "inplace",
        "label": "bytes32",
        "numberOfBytes": "32"
      },
      "t_mapping(t_address,t_bool)": {
        "encoding": "mapping",
        "key": "t_address",
        "label": "mapping(address => bool)",
        "numberOfBytes": "32",
        "value": "t_bool"
      },
      "t_mapping(t_address,t_mapping(t_address,t_bool))": {
        "encoding": "mapping",
        "key": "t_address",
        "label": "mapping(address => mapping(address => bool))",
        "numberOfBytes": "32",
        "value": "t_mapping(t_address,t_bool)"
      },
      "t_mapping(t_address,t_uint256)": {
        "encoding": "mapping",
        "key": "t_address",
        "label": "mapping(address => uint256)",
        "numberOfBytes": "32",
        "value": "t_uint256"
      },
      "t_mapping(t_bytes32,t_bool)": {
        "encoding": "mapping",
        "key": "t_bytes32",
        "label": "mapping(bytes32 => bool)",
        "numberOfBytes": "32",
        "value": "t_bool"
      },
      "t_mapping(t_string_memory_ptr,t_array(t_uint256)dyn_storage)": {
        "encoding": "mapping",
        "key": "t_string_memory_ptr",
        "label": "mapping(string => uint256[])",
        "numberOfBytes": "32",
        "value": "t_array(t_uint256)dyn_storage"
      },
      "t_mapping(t_uint256,t_bool)": {
        "encoding": "mapping",
        "key": "t_uint256",
        "label": "mapping(uint256 => bool)",
        "numberOfBytes": "32",
        "value": "t_bool"
      },
      "t_mapping(t_uint256,t_mapping(t_address,t_uint256))": {
        "encoding": "mapping",
        "key": "t_uint256",
        "label": "mapping(uint256 => mapping(address => uint256))",
        "numberOfBytes": "32",
        "value": "t_mapping(t_address,t_uint256)"
      },
      "t_mapping(t_uint256,t_string_storage)": {
        "encoding": "mapping",
        "key": "t_uint256",
        "label": "mapping(uint256 => string)",
        "numberOfBytes": "32",
        "value": "t_string_storage"
      },
      "t_mapping(t_uint256,t_struct(RoyaltyInfo)2358_storage)": {
        "encoding": "mapping",
        "key": "t_uint256",
        "label": "mapping(uint256 => struct ERC2981Upgradeable.RoyaltyInfo)",
        "numberOfBytes": "32",
        "value": "t_struct(RoyaltyInfo)2358_storage"
      },
      "t_mapping(t_uint256,t_uint256)": {
        "encoding": "mapping",
        "key": "t_uint256",
        "label": "mapping(uint256 => uint256)",
        "numberOfBytes": "32",
        "value": "t_uint256"
      },
      "t_string_memory_ptr": {
        "encoding": "bytes",
        "label": "string",
        "numberOfBytes": "32"
      },
      "t_string_storage": {
        "encoding": "bytes",
        "label": "string",
        "numberOfBytes": "32"
      },
      "t_struct(RoyaltyInfo)2358_storage": {
        "encoding": "inplace",
        "label": "struct ERC2981Upgradeable.RoyaltyInfo",
        "members": [
          {
            "astId": 2355,
            "contract": "contracts/TokenizedNotes/NotesCollectionUpgradeable.sol:NotesCollectionUpgradeable",
            "label": "receiver",
            "offset": 0,
            "slot": "0",
            "type": "t_address"
          },
          {
            "astId": 2357,
            "contract": "contracts/TokenizedNotes/NotesCollectionUpgradeable.sol:NotesCollectionUpgradeable",
            "label": "royaltyFraction",
            "offset": 20,
            "slot": "0",
            "type": "t_uint96"
          }
        ],
        "numberOfBytes": "32"
      },
      "t_uint256": {
        "encoding": "inplace",
        "label": "uint256",
        "numberOfBytes": "32"
      },
      "t_uint8": {
        "encoding": "inplace",
        "label": "uint8",
        "numberOfBytes": "1"
      },
      "t_uint96": {
        "encoding": "inplace",
        "label": "uint96",
        "numberOfBytes": "12"
      }
    }
  }
}