{
  "address": "0x45F8DA7025e2c76F6Be9Ee9a4da28E43E3608b41",
  "abi": [
    {
      "inputs": [
        {
          "internalType": "address",
          "name": "signer_",
          "type": "address"
        },
        {
          "internalType": "uint256",
          "name": "_newNoteContractFee",
          "type": "uint256"
        },
        {
          "internalType": "address",
          "name": "feeCollector_",
          "type": "address"
        }
      ],
      "stateMutability": "nonpayable",
      "type": "constructor"
    },
    {
      "anonymous": false,
      "inputs": [
        {
          "indexed": false,
          "internalType": "address",
          "name": "contractAddress",
          "type": "address"
        },
        {
          "indexed": false,
          "internalType": "uint256",
          "name": "workspaceId",
          "type": "uint256"
        }
      ],
      "name": "AddNewNoteContract",
      "type": "event"
    },
    {
      "anonymous": false,
      "inputs": [
        {
          "indexed": false,
          "internalType": "uint8",
          "name": "version",
          "type": "uint8"
        }
      ],
      "name": "Initialized",
      "type": "event"
    },
    {
      "anonymous": false,
      "inputs": [
        {
          "indexed": true,
          "internalType": "address",
          "name": "previousOwner",
          "type": "address"
        },
        {
          "indexed": true,
          "internalType": "address",
          "name": "newOwner",
          "type": "address"
        }
      ],
      "name": "OwnershipTransferred",
      "type": "event"
    },
    {
      "inputs": [],
      "name": "VERSION",
      "outputs": [
        {
          "internalType": "string",
          "name": "",
          "type": "string"
        }
      ],
      "stateMutability": "view",
      "type": "function"
    },
    {
      "inputs": [],
      "name": "accessBeacon",
      "outputs": [
        {
          "internalType": "address",
          "name": "",
          "type": "address"
        }
      ],
      "stateMutability": "view",
      "type": "function"
    },
    {
      "inputs": [
        {
          "internalType": "address",
          "name": "user",
          "type": "address"
        },
        {
          "internalType": "uint256",
          "name": "created",
          "type": "uint256"
        }
      ],
      "name": "addTokensCreated",
      "outputs": [],
      "stateMutability": "nonpayable",
      "type": "function"
    },
    {
      "inputs": [
        {
          "internalType": "address",
          "name": "user",
          "type": "address"
        },
        {
          "internalType": "uint256",
          "name": "minted",
          "type": "uint256"
        }
      ],
      "name": "addTokensMinted",
      "outputs": [],
      "stateMutability": "nonpayable",
      "type": "function"
    },
    {
      "inputs": [
        {
          "internalType": "bytes32",
          "name": "",
          "type": "bytes32"
        }
      ],
      "name": "executedMap",
      "outputs": [
        {
          "internalType": "bool",
          "name": "",
          "type": "bool"
        }
      ],
      "stateMutability": "view",
      "type": "function"
    },
    {
      "inputs": [],
      "name": "getFeeCollector",
      "outputs": [
        {
          "internalType": "address",
          "name": "",
          "type": "address"
        }
      ],
      "stateMutability": "view",
      "type": "function"
    },
    {
      "inputs": [
        {
          "internalType": "uint256",
          "name": "workspaceId",
          "type": "uint256"
        }
      ],
      "name": "getWorkspaceNoteContract",
      "outputs": [
        {
          "internalType": "address",
          "name": "",
          "type": "address"
        }
      ],
      "stateMutability": "view",
      "type": "function"
    },
    {
      "inputs": [
        {
          "internalType": "address",
          "name": "accessBeacon_",
          "type": "address"
        }
      ],
      "name": "initialize",
      "outputs": [],
      "stateMutability": "nonpayable",
      "type": "function"
    },
    {
      "inputs": [
        {
          "internalType": "bytes32",
          "name": "interactionId",
          "type": "bytes32"
        }
      ],
      "name": "isExecuted",
      "outputs": [
        {
          "internalType": "bool",
          "name": "",
          "type": "bool"
        }
      ],
      "stateMutability": "view",
      "type": "function"
    },
    {
      "inputs": [
        {
          "internalType": "address",
          "name": "",
          "type": "address"
        }
      ],
      "name": "isNotesContract",
      "outputs": [
        {
          "internalType": "bool",
          "name": "",
          "type": "bool"
        }
      ],
      "stateMutability": "view",
      "type": "function"
    },
    {
      "inputs": [
        {
          "components": [
            {
              "internalType": "uint256",
              "name": "workspaceId",
              "type": "uint256"
            },
            {
              "internalType": "string",
              "name": "name",
              "type": "string"
            },
            {
              "internalType": "uint256",
              "name": "callCost",
              "type": "uint256"
            },
            {
              "internalType": "bytes32",
              "name": "interactionId",
              "type": "bytes32"
            },
            {
              "internalType": "address",
              "name": "from",
              "type": "address"
            }
          ],
          "internalType": "struct NotesCollectionFactoryUpgradeable.SNewNoteContractCall",
          "name": "req",
          "type": "tuple"
        },
        {
          "internalType": "bytes",
          "name": "signature",
          "type": "bytes"
        }
      ],
      "name": "newNoteContract",
      "outputs": [
        {
          "internalType": "address",
          "name": "",
          "type": "address"
        }
      ],
      "stateMutability": "payable",
      "type": "function"
    },
    {
      "inputs": [],
      "name": "newNoteContractFee",
      "outputs": [
        {
          "internalType": "uint256",
          "name": "",
          "type": "uint256"
        }
      ],
      "stateMutability": "view",
      "type": "function"
    },
    {
      "inputs": [],
      "name": "owner",
      "outputs": [
        {
          "internalType": "address",
          "name": "",
          "type": "address"
        }
      ],
      "stateMutability": "view",
      "type": "function"
    },
    {
      "inputs": [],
      "name": "renounceOwnership",
      "outputs": [],
      "stateMutability": "nonpayable",
      "type": "function"
    },
    {
      "inputs": [],
      "name": "signWallet",
      "outputs": [
        {
          "internalType": "address",
          "name": "",
          "type": "address"
        }
      ],
      "stateMutability": "view",
      "type": "function"
    },
    {
      "inputs": [
        {
          "internalType": "address",
          "name": "",
          "type": "address"
        }
      ],
      "name": "tokensContractsCreatedCount",
      "outputs": [
        {
          "internalType": "uint256",
          "name": "",
          "type": "uint256"
        }
      ],
      "stateMutability": "view",
      "type": "function"
    },
    {
      "inputs": [
        {
          "internalType": "address",
          "name": "",
          "type": "address"
        }
      ],
      "name": "tokensCreatedCount",
      "outputs": [
        {
          "internalType": "uint256",
          "name": "",
          "type": "uint256"
        }
      ],
      "stateMutability": "view",
      "type": "function"
    },
    {
      "inputs": [
        {
          "internalType": "address",
          "name": "",
          "type": "address"
        }
      ],
      "name": "tokensMintedCount",
      "outputs": [
        {
          "internalType": "uint256",
          "name": "",
          "type": "uint256"
        }
      ],
      "stateMutability": "view",
      "type": "function"
    },
    {
      "inputs": [
        {
          "internalType": "address",
          "name": "newOwner",
          "type": "address"
        }
      ],
      "name": "transferOwnership",
      "outputs": [],
      "stateMutability": "nonpayable",
      "type": "function"
    },
    {
      "inputs": [
        {
          "components": [
            {
              "internalType": "uint256",
              "name": "workspaceId",
              "type": "uint256"
            },
            {
              "internalType": "string",
              "name": "name",
              "type": "string"
            },
            {
              "internalType": "uint256",
              "name": "callCost",
              "type": "uint256"
            },
            {
              "internalType": "bytes32",
              "name": "interactionId",
              "type": "bytes32"
            },
            {
              "internalType": "address",
              "name": "from",
              "type": "address"
            }
          ],
          "internalType": "struct NotesCollectionFactoryUpgradeable.SNewNoteContractCall",
          "name": "req",
          "type": "tuple"
        },
        {
          "internalType": "bytes",
          "name": "signature",
          "type": "bytes"
        }
      ],
      "name": "verify",
      "outputs": [
        {
          "internalType": "bool",
          "name": "",
          "type": "bool"
        }
      ],
      "stateMutability": "view",
      "type": "function"
    }
  ],
  "transactionHash": "0xcacaf57765e13dad5fc3e935f40fe6a83c95eeec6c71bb9a9eeb221f3eb340dd",
  "args": [
    "0xF0D8C6284a1305fe5359Cf26C194cE6Fc6a05041",
    "1800000000000000",
    "0x2F60BfC3dE718391eE068eE7Ff34AFD0Cd2376dE"
  ],
  "numDeployments": 2,
  "solcInputHash": "361eb17248f4e5cd7c2040e0e2cb3318",
  "bytecode": "0x60e06040523480156200001157600080fd5b50604051620022ff380380620022ff83398101604081905262000034916200006f565b6001600160a01b0392831660805260c0919091521660a052620000b0565b80516001600160a01b03811681146200006a57600080fd5b919050565b6000806000606084860312156200008557600080fd5b620000908462000052565b925060208401519150620000a76040850162000052565b90509250925092565b60805160a05160c051612211620000ee60003960006102a801526000818161014c0152610e8301526000818161022f0152610b9d01526122116000f3fe608060405260043610620001375760003560e01c8063c203ea7b11620000ad578063ec7d1fc9116200006c578063ec7d1fc914620003fa578063ef0f708f146200041f578063f2fde38b1462000450578063f9aebda01462000475578063ffa1ad7414620004a957600080fd5b8063c203ea7b1462000329578063c4d66de8146200034e578063ca4949a11462000373578063cb04308c1462000395578063e52cb36a14620003c657600080fd5b80636369d9a611620000fa5780636369d9a614620002545780636fa25c2f1462000294578063715018a614620002ca5780638da5cb5b14620002e4578063b42c0019146200030457600080fd5b806312fde4b7146200013c5780631718adae14620001895780632ea0d2b814620001ce578063317e8e3214620002085780634ce74859146200021f575b600080fd5b3480156200014957600080fd5b507f00000000000000000000000000000000000000000000000000000000000000005b6040516001600160a01b0390911681526020015b60405180910390f35b3480156200019657600080fd5b50620001bd620001a836600462001524565b609d6020526000908152604090205460ff1681565b604051901515815260200162000180565b348015620001db57600080fd5b506200016c620001ed36600462001549565b6000908152609a60205260409020546001600160a01b031690565b6200016c6200021936600462001579565b620004eb565b3480156200022c57600080fd5b507f00000000000000000000000000000000000000000000000000000000000000006200016c565b3480156200026157600080fd5b50620002856200027336600462001524565b609f6020526000908152604090205481565b60405190815260200162000180565b348015620002a157600080fd5b50620002857f000000000000000000000000000000000000000000000000000000000000000081565b348015620002d757600080fd5b50620002e2620009f0565b005b348015620002f157600080fd5b506033546001600160a01b03166200016c565b3480156200031157600080fd5b50620002e26200032336600462001663565b62000a08565b3480156200033657600080fd5b50620001bd6200034836600462001579565b62000ac6565b3480156200035b57600080fd5b50620002e26200036d36600462001524565b62000bc9565b3480156200038057600080fd5b50609b546200016c906001600160a01b031681565b348015620003a257600080fd5b5062000285620003b436600462001524565b609e6020526000908152604090205481565b348015620003d357600080fd5b50620001bd620003e536600462001549565b6000908152609c602052604090205460ff1690565b3480156200040757600080fd5b50620002e26200041936600462001663565b62000d41565b3480156200042c57600080fd5b50620002856200043e36600462001524565b60a06020526000908152604090205481565b3480156200045d57600080fd5b50620002e26200046f36600462001524565b62000dfe565b3480156200048257600080fd5b50620001bd6200049436600462001549565b609c6020526000908152604090205460ff1681565b348015620004b657600080fd5b50620004dc60405180604001604052806005815260200164181718171960d91b81525081565b604051620001809190620016e0565b60608201356000908152609c602052604081205460ff16156200055e5760405162461bcd60e51b81526020600482015260316024820152600080516020620021bc83398151915260448201527008105b1c9958591e48195e1958dd5d1959607a1b60648201526084015b60405180910390fd5b82356000908152609a60205260409020546001600160a01b031615620005ce5760405162461bcd60e51b815260206004820152602f6024820152600080516020620021bc83398151915260448201526e20416c72656164792065786973747360881b606482015260840162000555565b620005e060a084016080850162001524565b6001600160a01b0316336001600160a01b031614620006495760405162461bcd60e51b815260206004820152602f6024820152600080516020620021bc83398151915260448201526e1024a72b20a624a22fa9a2a72222a960891b606482015260840162000555565b3483604001351115620006a35760405162461bcd60e51b815260206004820152602c6024820152600080516020620021bc83398151915260448201526b08155b99195c9c1c9a58d95960a21b606482015260840162000555565b620006b26020840184620016f5565b8080601f01602080910402602001604051908101604052809392919081815260200183838082843760009201919091525050604051632eb0451960e21b815273Ba3e8C0dAA3C62877654cFef1D77Fc874A81406c9363bac1146493506200071e925090600401620016e0565b60206040518083038186803b1580156200073757600080fd5b505af41580156200074c573d6000803e3d6000fd5b505050506040513d601f19601f820116820180604052508101906200077291906200173f565b620007dd5760405162461bcd60e51b815260206004820152603460248201527f4e616d65206d617920636f6e7461696e20616c7068616e756d65726963206368604482015273617261637465727320616e64206120737061636560601b606482015260840162000555565b620007e9838362000ac6565b620008415760405162461bcd60e51b81526020600482015260326024820152600080516020620021bc83398151915260448201527120494e56414c49445f5349474e415455524560701b606482015260840162000555565b60608301356000908152609c60205260408120805460ff19166001179055609b546001600160a01b031663236b26ef60e21b6200087b3390565b6200088a6020880188620016f5565b604051620008a1939291908a359060240162001763565b60408051601f198184030181529181526020820180516001600160e01b03166001600160e01b0319909416939093179092529051620008e090620014f9565b620008ed929190620017ad565b604051809103906000f0801580156200090a573d6000803e3d6000fd5b5084356000908152609a602052604080822080546001600160a01b0385166001600160a01b031991821681179092556099805460018101825594527f72a152ddfb8e864297c917af52ea6c1c68aead0fee1a62673fcc7e0c94979d009093018054909316179091559091508190850135156200098b576200098b3462000e7d565b6001600160a01b0381166000818152609d6020908152604091829020805460ff1916600117905581519283528735908301527fad63bbba82fd6015c29ddea47a0ce04489ee7490ea967bcfb27d3acbba1ded60910160405180910390a1949350505050565b620009fa62000ea9565b62000a06600062000f05565b565b336000908152609d602052604090205460ff1662000a805760405162461bcd60e51b815260206004820152602e60248201527f4e6f7420617574686f72697a656420746f20696e6372656d656e7420746f6b6560448201526d1b9cd0dc99585d195910dbdd5b9d60921b606482015260840162000555565b6001600160a01b0382166000908152609f602052604090205462000aa6908290620017db565b6001600160a01b039092166000908152609f602052604090209190915550565b60008062000b938362000b8c7fbdfc9d2b683c517fab0c111c53e76e1e54bd0255a8637b239191144a48a7d7a3873562000b0460208a018a620016f5565b60405162000b1492919062001802565b604051809103902089604001358a606001358b608001602081019062000b3b919062001524565b6040805160208101979097528601949094526060850192909252608084015260a08301526001600160a01b031660c082015260e0016040516020818303038152906040528051906020012062000f57565b9062000fae565b6001600160a01b037f00000000000000000000000000000000000000000000000000000000000000008116911614949350505050565b600054610100900460ff161580801562000bea5750600054600160ff909116105b8062000c065750303b15801562000c06575060005460ff166001145b62000c6b5760405162461bcd60e51b815260206004820152602e60248201527f496e697469616c697a61626c653a20636f6e747261637420697320616c72656160448201526d191e481a5b9a5d1a585b1a5e995960921b606482015260840162000555565b6000805460ff19166001179055801562000c8f576000805461ff0019166101001790555b609b80546001600160a01b0319166001600160a01b03841617905562000cb462000fd6565b62000cf66040518060600160405280602181526020016200219b6021913960405180604001604052806005815260200164181718171960d91b8152506200100a565b801562000d3d576000805461ff0019169055604051600181527f7f26b83ff96e1f2b6a682f133852f6798a09c465da95921460cefb38474024989060200160405180910390a15b5050565b336000908152609d602052604090205460ff1662000db85760405162461bcd60e51b815260206004820152602d60248201527f4e6f7420617574686f72697a656420746f20696e6372656d656e7420746f6b6560448201526c1b9cd35a5b9d195910dbdd5b9d609a1b606482015260840162000555565b6001600160a01b0382166000908152609e602052604090205462000dde908290620017db565b6001600160a01b039092166000908152609e602052604090209190915550565b62000e0862000ea9565b6001600160a01b03811662000e6f5760405162461bcd60e51b815260206004820152602660248201527f4f776e61626c653a206e6577206f776e657220697320746865207a65726f206160448201526564647265737360d01b606482015260840162000555565b62000e7a8162000f05565b50565b62000e7a7f00000000000000000000000000000000000000000000000000000000000000008262001040565b6033546001600160a01b0316331462000a065760405162461bcd60e51b815260206004820181905260248201527f4f776e61626c653a2063616c6c6572206973206e6f7420746865206f776e6572604482015260640162000555565b603380546001600160a01b038381166001600160a01b0319831681179093556040519116919082907f8be0079c531659141344cd1fd0a4f28419497f9722a3daafe3b4186f6b6457e090600090a35050565b600062000fa862000f67620010ec565b8360405161190160f01b6020820152602281018390526042810182905260009060620160405160208183030381529060405280519060200120905092915050565b92915050565b600080600062000fbf85856200116e565b9150915062000fce81620011b8565b509392505050565b600054610100900460ff16620010005760405162461bcd60e51b8152600401620005559062001812565b62000a066200138b565b600054610100900460ff16620010345760405162461bcd60e51b8152600401620005559062001812565b62000d3d8282620013c0565b6000826001600160a01b03168260405160006040518083038185875af1925050503d80600081146200108f576040519150601f19603f3d011682016040523d82523d6000602084013e62001094565b606091505b5050905080620010e75760405162461bcd60e51b815260206004820181905260248201527f50616964416374696f6e733a20666565207472616e73666572206661696c6564604482015260640162000555565b505050565b6000620011697f8b73c3c69bb8fe3d512ecc4cf759cc79239f7b179b0ffacaa9a75d522b39400f6200111d60655490565b6066546040805160208101859052908101839052606081018290524660808201523060a082015260009060c0016040516020818303038152906040528051906020012090509392505050565b905090565b600080825160411415620011a95760208301516040840151606085015160001a6200119c8782858562001404565b94509450505050620011b1565b506000905060025b9250929050565b6000816004811115620011cf57620011cf6200185d565b1415620011d95750565b6001816004811115620011f057620011f06200185d565b1415620012405760405162461bcd60e51b815260206004820152601860248201527f45434453413a20696e76616c6964207369676e61747572650000000000000000604482015260640162000555565b60028160048111156200125757620012576200185d565b1415620012a75760405162461bcd60e51b815260206004820152601f60248201527f45434453413a20696e76616c6964207369676e6174757265206c656e67746800604482015260640162000555565b6003816004811115620012be57620012be6200185d565b1415620013195760405162461bcd60e51b815260206004820152602260248201527f45434453413a20696e76616c6964207369676e6174757265202773272076616c604482015261756560f01b606482015260840162000555565b60048160048111156200133057620013306200185d565b141562000e7a5760405162461bcd60e51b815260206004820152602260248201527f45434453413a20696e76616c6964207369676e6174757265202776272076616c604482015261756560f01b606482015260840162000555565b600054610100900460ff16620013b55760405162461bcd60e51b8152600401620005559062001812565b62000a063362000f05565b600054610100900460ff16620013ea5760405162461bcd60e51b8152600401620005559062001812565b815160209283012081519190920120606591909155606655565b6000807f7fffffffffffffffffffffffffffffff5d576e7357a4501ddfe92f46681b20a08311156200143d5750600090506003620014f0565b8460ff16601b141580156200145657508460ff16601c14155b15620014695750600090506004620014f0565b6040805160008082526020820180845289905260ff881692820192909252606081018690526080810185905260019060a0016020604051602081039080840390855afa158015620014be573d6000803e3d6000fd5b5050604051601f1901519150506001600160a01b038116620014e957600060019250925050620014f0565b9150600090505b94509492505050565b610927806200187483390190565b80356001600160a01b03811681146200151f57600080fd5b919050565b6000602082840312156200153757600080fd5b620015428262001507565b9392505050565b6000602082840312156200155c57600080fd5b5035919050565b634e487b7160e01b600052604160045260246000fd5b600080604083850312156200158d57600080fd5b823567ffffffffffffffff80821115620015a657600080fd5b9084019060a08287031215620015bb57600080fd5b90925060208401359080821115620015d257600080fd5b818501915085601f830112620015e757600080fd5b813581811115620015fc57620015fc62001563565b604051601f8201601f19908116603f0116810190838211818310171562001627576200162762001563565b816040528281528860208487010111156200164157600080fd5b8260208601602083013760006020848301015280955050505050509250929050565b600080604083850312156200167757600080fd5b620016828362001507565b946020939093013593505050565b6000815180845260005b81811015620016b8576020818501810151868301820152016200169a565b81811115620016cb576000602083870101525b50601f01601f19169290920160200192915050565b60208152600062001542602083018462001690565b6000808335601e198436030181126200170d57600080fd5b83018035915067ffffffffffffffff8211156200172957600080fd5b602001915036819003821315620011b157600080fd5b6000602082840312156200175257600080fd5b815180151581146200154257600080fd5b6001600160a01b038516815260606020820181905281018390528284608083013760006080848301015260006080601f19601f860116830101905082604083015295945050505050565b6001600160a01b0383168152604060208201819052600090620017d39083018462001690565b949350505050565b60008219821115620017fd57634e487b7160e01b600052601160045260246000fd5b500190565b8183823760009101908152919050565b6020808252602b908201527f496e697469616c697a61626c653a20636f6e7472616374206973206e6f74206960408201526a6e697469616c697a696e6760a81b606082015260800190565b634e487b7160e01b600052602160045260246000fdfe608060405260405161092738038061092783398101604081905261002291610474565b61002e82826000610035565b505061059e565b61003e8361010f565b6040516001600160a01b038416907f1cf3b03a6cf19fa2baba4df148e9dcabedea7f8a5c07840e207e5c089be95d3e90600090a260008251118061007f5750805b1561010a57610108836001600160a01b0316635c60da1b6040518163ffffffff1660e01b815260040160206040518083038186803b1580156100c057600080fd5b505afa1580156100d4573d6000803e3d6000fd5b505050506040513d601f19601f820116820180604052508101906100f89190610534565b836102c160201b6100291760201c565b505b505050565b610122816102ed60201b6100551760201c565b6101815760405162461bcd60e51b815260206004820152602560248201527f455243313936373a206e657720626561636f6e206973206e6f74206120636f6e6044820152641d1c9858dd60da1b60648201526084015b60405180910390fd5b610204816001600160a01b0316635c60da1b6040518163ffffffff1660e01b815260040160206040518083038186803b1580156101bd57600080fd5b505afa1580156101d1573d6000803e3d6000fd5b505050506040513d601f19601f820116820180604052508101906101f59190610534565b6102ed60201b6100551760201c565b6102695760405162461bcd60e51b815260206004820152603060248201527f455243313936373a20626561636f6e20696d706c656d656e746174696f6e206960448201526f1cc81b9bdd08184818dbdb9d1c9858dd60821b6064820152608401610178565b806102a07fa3f0ad74e5423aebfd80d3ef4346578335a9a72aeaee59ff6cb3582b35133d5060001b6102fc60201b6100641760201c565b80546001600160a01b0319166001600160a01b039290921691909117905550565b60606102e68383604051806060016040528060278152602001610900602791396102ff565b9392505050565b6001600160a01b03163b151590565b90565b60606001600160a01b0384163b6103675760405162461bcd60e51b815260206004820152602660248201527f416464726573733a2064656c65676174652063616c6c20746f206e6f6e2d636f6044820152651b9d1c9858dd60d21b6064820152608401610178565b600080856001600160a01b031685604051610382919061054f565b600060405180830381855af49150503d80600081146103bd576040519150601f19603f3d011682016040523d82523d6000602084013e6103c2565b606091505b5090925090506103d38282866103dd565b9695505050505050565b606083156103ec5750816102e6565b8251156103fc5782518084602001fd5b8160405162461bcd60e51b8152600401610178919061056b565b80516001600160a01b038116811461042d57600080fd5b919050565b634e487b7160e01b600052604160045260246000fd5b60005b8381101561046357818101518382015260200161044b565b838111156101085750506000910152565b6000806040838503121561048757600080fd5b61049083610416565b60208401519092506001600160401b03808211156104ad57600080fd5b818501915085601f8301126104c157600080fd5b8151818111156104d3576104d3610432565b604051601f8201601f19908116603f011681019083821181831017156104fb576104fb610432565b8160405282815288602084870101111561051457600080fd5b610525836020830160208801610448565b80955050505050509250929050565b60006020828403121561054657600080fd5b6102e682610416565b60008251610561818460208701610448565b9190910192915050565b602081526000825180602084015261058a816040850160208701610448565b601f01601f19169190910160400192915050565b610353806105ad6000396000f3fe60806040523661001357610011610017565b005b6100115b610027610022610067565b61010f565b565b606061004e83836040518060600160405280602781526020016102f760279139610133565b9392505050565b6001600160a01b03163b151590565b90565b600061009a7fa3f0ad74e5423aebfd80d3ef4346578335a9a72aeaee59ff6cb3582b35133d50546001600160a01b031690565b6001600160a01b0316635c60da1b6040518163ffffffff1660e01b815260040160206040518083038186803b1580156100d257600080fd5b505afa1580156100e6573d6000803e3d6000fd5b505050506040513d601f19601f8201168201806040525081019061010a919061024e565b905090565b3660008037600080366000845af43d6000803e80801561012e573d6000f35b3d6000fd5b60606001600160a01b0384163b6101a05760405162461bcd60e51b815260206004820152602660248201527f416464726573733a2064656c65676174652063616c6c20746f206e6f6e2d636f6044820152651b9d1c9858dd60d21b60648201526084015b60405180910390fd5b600080856001600160a01b0316856040516101bb91906102a7565b600060405180830381855af49150503d80600081146101f6576040519150601f19603f3d011682016040523d82523d6000602084013e6101fb565b606091505b509150915061020b828286610215565b9695505050505050565b6060831561022457508161004e565b8251156102345782518084602001fd5b8160405162461bcd60e51b815260040161019791906102c3565b60006020828403121561026057600080fd5b81516001600160a01b038116811461004e57600080fd5b60005b8381101561029257818101518382015260200161027a565b838111156102a1576000848401525b50505050565b600082516102b9818460208701610277565b9190910192915050565b60208152600082518060208401526102e2816040850160208701610277565b601f01601f1916919091016040019291505056fe416464726573733a206c6f772d6c6576656c2064656c65676174652063616c6c206661696c6564a26469706673582212200ef9d27fce5798cd4a891ef88062917bde44c850e9656b8713f5943eca66c23564736f6c63430008090033416464726573733a206c6f772d6c6576656c2064656c65676174652063616c6c206661696c65644e6f746573436f6c6c656374696f6e466163746f72795570677261646561626c654e6f746573436f6e7472616374466163746f72795570677261646561626c653aa264697066735822122041338f7b06b834aa8f8cae13a6e1be5fdcb2fb1c9b7d2fbb6e226bef96730cfe64736f6c63430008090033",
  "deployedBytecode": "0x608060405260043610620001375760003560e01c8063c203ea7b11620000ad578063ec7d1fc9116200006c578063ec7d1fc914620003fa578063ef0f708f146200041f578063f2fde38b1462000450578063f9aebda01462000475578063ffa1ad7414620004a957600080fd5b8063c203ea7b1462000329578063c4d66de8146200034e578063ca4949a11462000373578063cb04308c1462000395578063e52cb36a14620003c657600080fd5b80636369d9a611620000fa5780636369d9a614620002545780636fa25c2f1462000294578063715018a614620002ca5780638da5cb5b14620002e4578063b42c0019146200030457600080fd5b806312fde4b7146200013c5780631718adae14620001895780632ea0d2b814620001ce578063317e8e3214620002085780634ce74859146200021f575b600080fd5b3480156200014957600080fd5b507f00000000000000000000000000000000000000000000000000000000000000005b6040516001600160a01b0390911681526020015b60405180910390f35b3480156200019657600080fd5b50620001bd620001a836600462001524565b609d6020526000908152604090205460ff1681565b604051901515815260200162000180565b348015620001db57600080fd5b506200016c620001ed36600462001549565b6000908152609a60205260409020546001600160a01b031690565b6200016c6200021936600462001579565b620004eb565b3480156200022c57600080fd5b507f00000000000000000000000000000000000000000000000000000000000000006200016c565b3480156200026157600080fd5b50620002856200027336600462001524565b609f6020526000908152604090205481565b60405190815260200162000180565b348015620002a157600080fd5b50620002857f000000000000000000000000000000000000000000000000000000000000000081565b348015620002d757600080fd5b50620002e2620009f0565b005b348015620002f157600080fd5b506033546001600160a01b03166200016c565b3480156200031157600080fd5b50620002e26200032336600462001663565b62000a08565b3480156200033657600080fd5b50620001bd6200034836600462001579565b62000ac6565b3480156200035b57600080fd5b50620002e26200036d36600462001524565b62000bc9565b3480156200038057600080fd5b50609b546200016c906001600160a01b031681565b348015620003a257600080fd5b5062000285620003b436600462001524565b609e6020526000908152604090205481565b348015620003d357600080fd5b50620001bd620003e536600462001549565b6000908152609c602052604090205460ff1690565b3480156200040757600080fd5b50620002e26200041936600462001663565b62000d41565b3480156200042c57600080fd5b50620002856200043e36600462001524565b60a06020526000908152604090205481565b3480156200045d57600080fd5b50620002e26200046f36600462001524565b62000dfe565b3480156200048257600080fd5b50620001bd6200049436600462001549565b609c6020526000908152604090205460ff1681565b348015620004b657600080fd5b50620004dc60405180604001604052806005815260200164181718171960d91b81525081565b604051620001809190620016e0565b60608201356000908152609c602052604081205460ff16156200055e5760405162461bcd60e51b81526020600482015260316024820152600080516020620021bc83398151915260448201527008105b1c9958591e48195e1958dd5d1959607a1b60648201526084015b60405180910390fd5b82356000908152609a60205260409020546001600160a01b031615620005ce5760405162461bcd60e51b815260206004820152602f6024820152600080516020620021bc83398151915260448201526e20416c72656164792065786973747360881b606482015260840162000555565b620005e060a084016080850162001524565b6001600160a01b0316336001600160a01b031614620006495760405162461bcd60e51b815260206004820152602f6024820152600080516020620021bc83398151915260448201526e1024a72b20a624a22fa9a2a72222a960891b606482015260840162000555565b3483604001351115620006a35760405162461bcd60e51b815260206004820152602c6024820152600080516020620021bc83398151915260448201526b08155b99195c9c1c9a58d95960a21b606482015260840162000555565b620006b26020840184620016f5565b8080601f01602080910402602001604051908101604052809392919081815260200183838082843760009201919091525050604051632eb0451960e21b815273__$8455419ec40c7f6091485c69e2c3eca116$__9363bac1146493506200071e925090600401620016e0565b60206040518083038186803b1580156200073757600080fd5b505af41580156200074c573d6000803e3d6000fd5b505050506040513d601f19601f820116820180604052508101906200077291906200173f565b620007dd5760405162461bcd60e51b815260206004820152603460248201527f4e616d65206d617920636f6e7461696e20616c7068616e756d65726963206368604482015273617261637465727320616e64206120737061636560601b606482015260840162000555565b620007e9838362000ac6565b620008415760405162461bcd60e51b81526020600482015260326024820152600080516020620021bc83398151915260448201527120494e56414c49445f5349474e415455524560701b606482015260840162000555565b60608301356000908152609c60205260408120805460ff19166001179055609b546001600160a01b031663236b26ef60e21b6200087b3390565b6200088a6020880188620016f5565b604051620008a1939291908a359060240162001763565b60408051601f198184030181529181526020820180516001600160e01b03166001600160e01b0319909416939093179092529051620008e090620014f9565b620008ed929190620017ad565b604051809103906000f0801580156200090a573d6000803e3d6000fd5b5084356000908152609a602052604080822080546001600160a01b0385166001600160a01b031991821681179092556099805460018101825594527f72a152ddfb8e864297c917af52ea6c1c68aead0fee1a62673fcc7e0c94979d009093018054909316179091559091508190850135156200098b576200098b3462000e7d565b6001600160a01b0381166000818152609d6020908152604091829020805460ff1916600117905581519283528735908301527fad63bbba82fd6015c29ddea47a0ce04489ee7490ea967bcfb27d3acbba1ded60910160405180910390a1949350505050565b620009fa62000ea9565b62000a06600062000f05565b565b336000908152609d602052604090205460ff1662000a805760405162461bcd60e51b815260206004820152602e60248201527f4e6f7420617574686f72697a656420746f20696e6372656d656e7420746f6b6560448201526d1b9cd0dc99585d195910dbdd5b9d60921b606482015260840162000555565b6001600160a01b0382166000908152609f602052604090205462000aa6908290620017db565b6001600160a01b039092166000908152609f602052604090209190915550565b60008062000b938362000b8c7fbdfc9d2b683c517fab0c111c53e76e1e54bd0255a8637b239191144a48a7d7a3873562000b0460208a018a620016f5565b60405162000b1492919062001802565b604051809103902089604001358a606001358b608001602081019062000b3b919062001524565b6040805160208101979097528601949094526060850192909252608084015260a08301526001600160a01b031660c082015260e0016040516020818303038152906040528051906020012062000f57565b9062000fae565b6001600160a01b037f00000000000000000000000000000000000000000000000000000000000000008116911614949350505050565b600054610100900460ff161580801562000bea5750600054600160ff909116105b8062000c065750303b15801562000c06575060005460ff166001145b62000c6b5760405162461bcd60e51b815260206004820152602e60248201527f496e697469616c697a61626c653a20636f6e747261637420697320616c72656160448201526d191e481a5b9a5d1a585b1a5e995960921b606482015260840162000555565b6000805460ff19166001179055801562000c8f576000805461ff0019166101001790555b609b80546001600160a01b0319166001600160a01b03841617905562000cb462000fd6565b62000cf66040518060600160405280602181526020016200219b6021913960405180604001604052806005815260200164181718171960d91b8152506200100a565b801562000d3d576000805461ff0019169055604051600181527f7f26b83ff96e1f2b6a682f133852f6798a09c465da95921460cefb38474024989060200160405180910390a15b5050565b336000908152609d602052604090205460ff1662000db85760405162461bcd60e51b815260206004820152602d60248201527f4e6f7420617574686f72697a656420746f20696e6372656d656e7420746f6b6560448201526c1b9cd35a5b9d195910dbdd5b9d609a1b606482015260840162000555565b6001600160a01b0382166000908152609e602052604090205462000dde908290620017db565b6001600160a01b039092166000908152609e602052604090209190915550565b62000e0862000ea9565b6001600160a01b03811662000e6f5760405162461bcd60e51b815260206004820152602660248201527f4f776e61626c653a206e6577206f776e657220697320746865207a65726f206160448201526564647265737360d01b606482015260840162000555565b62000e7a8162000f05565b50565b62000e7a7f00000000000000000000000000000000000000000000000000000000000000008262001040565b6033546001600160a01b0316331462000a065760405162461bcd60e51b815260206004820181905260248201527f4f776e61626c653a2063616c6c6572206973206e6f7420746865206f776e6572604482015260640162000555565b603380546001600160a01b038381166001600160a01b0319831681179093556040519116919082907f8be0079c531659141344cd1fd0a4f28419497f9722a3daafe3b4186f6b6457e090600090a35050565b600062000fa862000f67620010ec565b8360405161190160f01b6020820152602281018390526042810182905260009060620160405160208183030381529060405280519060200120905092915050565b92915050565b600080600062000fbf85856200116e565b9150915062000fce81620011b8565b509392505050565b600054610100900460ff16620010005760405162461bcd60e51b8152600401620005559062001812565b62000a066200138b565b600054610100900460ff16620010345760405162461bcd60e51b8152600401620005559062001812565b62000d3d8282620013c0565b6000826001600160a01b03168260405160006040518083038185875af1925050503d80600081146200108f576040519150601f19603f3d011682016040523d82523d6000602084013e62001094565b606091505b5050905080620010e75760405162461bcd60e51b815260206004820181905260248201527f50616964416374696f6e733a20666565207472616e73666572206661696c6564604482015260640162000555565b505050565b6000620011697f8b73c3c69bb8fe3d512ecc4cf759cc79239f7b179b0ffacaa9a75d522b39400f6200111d60655490565b6066546040805160208101859052908101839052606081018290524660808201523060a082015260009060c0016040516020818303038152906040528051906020012090509392505050565b905090565b600080825160411415620011a95760208301516040840151606085015160001a6200119c8782858562001404565b94509450505050620011b1565b506000905060025b9250929050565b6000816004811115620011cf57620011cf6200185d565b1415620011d95750565b6001816004811115620011f057620011f06200185d565b1415620012405760405162461bcd60e51b815260206004820152601860248201527f45434453413a20696e76616c6964207369676e61747572650000000000000000604482015260640162000555565b60028160048111156200125757620012576200185d565b1415620012a75760405162461bcd60e51b815260206004820152601f60248201527f45434453413a20696e76616c6964207369676e6174757265206c656e67746800604482015260640162000555565b6003816004811115620012be57620012be6200185d565b1415620013195760405162461bcd60e51b815260206004820152602260248201527f45434453413a20696e76616c6964207369676e6174757265202773272076616c604482015261756560f01b606482015260840162000555565b60048160048111156200133057620013306200185d565b141562000e7a5760405162461bcd60e51b815260206004820152602260248201527f45434453413a20696e76616c6964207369676e6174757265202776272076616c604482015261756560f01b606482015260840162000555565b600054610100900460ff16620013b55760405162461bcd60e51b8152600401620005559062001812565b62000a063362000f05565b600054610100900460ff16620013ea5760405162461bcd60e51b8152600401620005559062001812565b815160209283012081519190920120606591909155606655565b6000807f7fffffffffffffffffffffffffffffff5d576e7357a4501ddfe92f46681b20a08311156200143d5750600090506003620014f0565b8460ff16601b141580156200145657508460ff16601c14155b15620014695750600090506004620014f0565b6040805160008082526020820180845289905260ff881692820192909252606081018690526080810185905260019060a0016020604051602081039080840390855afa158015620014be573d6000803e3d6000fd5b5050604051601f1901519150506001600160a01b038116620014e957600060019250925050620014f0565b9150600090505b94509492505050565b610927806200187483390190565b80356001600160a01b03811681146200151f57600080fd5b919050565b6000602082840312156200153757600080fd5b620015428262001507565b9392505050565b6000602082840312156200155c57600080fd5b5035919050565b634e487b7160e01b600052604160045260246000fd5b600080604083850312156200158d57600080fd5b823567ffffffffffffffff80821115620015a657600080fd5b9084019060a08287031215620015bb57600080fd5b90925060208401359080821115620015d257600080fd5b818501915085601f830112620015e757600080fd5b813581811115620015fc57620015fc62001563565b604051601f8201601f19908116603f0116810190838211818310171562001627576200162762001563565b816040528281528860208487010111156200164157600080fd5b8260208601602083013760006020848301015280955050505050509250929050565b600080604083850312156200167757600080fd5b620016828362001507565b946020939093013593505050565b6000815180845260005b81811015620016b8576020818501810151868301820152016200169a565b81811115620016cb576000602083870101525b50601f01601f19169290920160200192915050565b60208152600062001542602083018462001690565b6000808335601e198436030181126200170d57600080fd5b83018035915067ffffffffffffffff8211156200172957600080fd5b602001915036819003821315620011b157600080fd5b6000602082840312156200175257600080fd5b815180151581146200154257600080fd5b6001600160a01b038516815260606020820181905281018390528284608083013760006080848301015260006080601f19601f860116830101905082604083015295945050505050565b6001600160a01b0383168152604060208201819052600090620017d39083018462001690565b949350505050565b60008219821115620017fd57634e487b7160e01b600052601160045260246000fd5b500190565b8183823760009101908152919050565b6020808252602b908201527f496e697469616c697a61626c653a20636f6e7472616374206973206e6f74206960408201526a6e697469616c697a696e6760a81b606082015260800190565b634e487b7160e01b600052602160045260246000fdfe608060405260405161092738038061092783398101604081905261002291610474565b61002e82826000610035565b505061059e565b61003e8361010f565b6040516001600160a01b038416907f1cf3b03a6cf19fa2baba4df148e9dcabedea7f8a5c07840e207e5c089be95d3e90600090a260008251118061007f5750805b1561010a57610108836001600160a01b0316635c60da1b6040518163ffffffff1660e01b815260040160206040518083038186803b1580156100c057600080fd5b505afa1580156100d4573d6000803e3d6000fd5b505050506040513d601f19601f820116820180604052508101906100f89190610534565b836102c160201b6100291760201c565b505b505050565b610122816102ed60201b6100551760201c565b6101815760405162461bcd60e51b815260206004820152602560248201527f455243313936373a206e657720626561636f6e206973206e6f74206120636f6e6044820152641d1c9858dd60da1b60648201526084015b60405180910390fd5b610204816001600160a01b0316635c60da1b6040518163ffffffff1660e01b815260040160206040518083038186803b1580156101bd57600080fd5b505afa1580156101d1573d6000803e3d6000fd5b505050506040513d601f19601f820116820180604052508101906101f59190610534565b6102ed60201b6100551760201c565b6102695760405162461bcd60e51b815260206004820152603060248201527f455243313936373a20626561636f6e20696d706c656d656e746174696f6e206960448201526f1cc81b9bdd08184818dbdb9d1c9858dd60821b6064820152608401610178565b806102a07fa3f0ad74e5423aebfd80d3ef4346578335a9a72aeaee59ff6cb3582b35133d5060001b6102fc60201b6100641760201c565b80546001600160a01b0319166001600160a01b039290921691909117905550565b60606102e68383604051806060016040528060278152602001610900602791396102ff565b9392505050565b6001600160a01b03163b151590565b90565b60606001600160a01b0384163b6103675760405162461bcd60e51b815260206004820152602660248201527f416464726573733a2064656c65676174652063616c6c20746f206e6f6e2d636f6044820152651b9d1c9858dd60d21b6064820152608401610178565b600080856001600160a01b031685604051610382919061054f565b600060405180830381855af49150503d80600081146103bd576040519150601f19603f3d011682016040523d82523d6000602084013e6103c2565b606091505b5090925090506103d38282866103dd565b9695505050505050565b606083156103ec5750816102e6565b8251156103fc5782518084602001fd5b8160405162461bcd60e51b8152600401610178919061056b565b80516001600160a01b038116811461042d57600080fd5b919050565b634e487b7160e01b600052604160045260246000fd5b60005b8381101561046357818101518382015260200161044b565b838111156101085750506000910152565b6000806040838503121561048757600080fd5b61049083610416565b60208401519092506001600160401b03808211156104ad57600080fd5b818501915085601f8301126104c157600080fd5b8151818111156104d3576104d3610432565b604051601f8201601f19908116603f011681019083821181831017156104fb576104fb610432565b8160405282815288602084870101111561051457600080fd5b610525836020830160208801610448565b80955050505050509250929050565b60006020828403121561054657600080fd5b6102e682610416565b60008251610561818460208701610448565b9190910192915050565b602081526000825180602084015261058a816040850160208701610448565b601f01601f19169190910160400192915050565b610353806105ad6000396000f3fe60806040523661001357610011610017565b005b6100115b610027610022610067565b61010f565b565b606061004e83836040518060600160405280602781526020016102f760279139610133565b9392505050565b6001600160a01b03163b151590565b90565b600061009a7fa3f0ad74e5423aebfd80d3ef4346578335a9a72aeaee59ff6cb3582b35133d50546001600160a01b031690565b6001600160a01b0316635c60da1b6040518163ffffffff1660e01b815260040160206040518083038186803b1580156100d257600080fd5b505afa1580156100e6573d6000803e3d6000fd5b505050506040513d601f19601f8201168201806040525081019061010a919061024e565b905090565b3660008037600080366000845af43d6000803e80801561012e573d6000f35b3d6000fd5b60606001600160a01b0384163b6101a05760405162461bcd60e51b815260206004820152602660248201527f416464726573733a2064656c65676174652063616c6c20746f206e6f6e2d636f6044820152651b9d1c9858dd60d21b60648201526084015b60405180910390fd5b600080856001600160a01b0316856040516101bb91906102a7565b600060405180830381855af49150503d80600081146101f6576040519150601f19603f3d011682016040523d82523d6000602084013e6101fb565b606091505b509150915061020b828286610215565b9695505050505050565b6060831561022457508161004e565b8251156102345782518084602001fd5b8160405162461bcd60e51b815260040161019791906102c3565b60006020828403121561026057600080fd5b81516001600160a01b038116811461004e57600080fd5b60005b8381101561029257818101518382015260200161027a565b838111156102a1576000848401525b50505050565b600082516102b9818460208701610277565b9190910192915050565b60208152600082518060208401526102e2816040850160208701610277565b601f01601f1916919091016040019291505056fe416464726573733a206c6f772d6c6576656c2064656c65676174652063616c6c206661696c6564a26469706673582212200ef9d27fce5798cd4a891ef88062917bde44c850e9656b8713f5943eca66c23564736f6c63430008090033416464726573733a206c6f772d6c6576656c2064656c65676174652063616c6c206661696c65644e6f746573436f6c6c656374696f6e466163746f72795570677261646561626c654e6f746573436f6e7472616374466163746f72795570677261646561626c653aa264697066735822122041338f7b06b834aa8f8cae13a6e1be5fdcb2fb1c9b7d2fbb6e226bef96730cfe64736f6c63430008090033",
  "libraries": {
    "Az09Space": "0xBa3e8C0dAA3C62877654cFef1D77Fc874A81406c"
  },
  "devdoc": {
    "kind": "dev",
    "methods": {
      "owner()": {
        "details": "Returns the address of the current owner."
      },
      "renounceOwnership()": {
        "details": "Leaves the contract without owner. It will not be possible to call `onlyOwner` functions anymore. Can only be called by the current owner. NOTE: Renouncing ownership will leave the contract without an owner, thereby removing any functionality that is only available to the owner."
      },
      "transferOwnership(address)": {
        "details": "Transfers ownership of the contract to a new account (`newOwner`). Can only be called by the current owner."
      }
    },
    "version": 1
  },
  "userdoc": {
    "kind": "user",
    "methods": {},
    "version": 1
  },
  "storageLayout": {
    "storage": [
      {
        "astId": 585,
        "contract": "contracts/TokenizedNotes/NotesCollectionFactoryUpgradeable.sol:NotesCollectionFactoryUpgradeable",
        "label": "_initialized",
        "offset": 0,
        "slot": "0",
        "type": "t_uint8"
      },
      {
        "astId": 588,
        "contract": "contracts/TokenizedNotes/NotesCollectionFactoryUpgradeable.sol:NotesCollectionFactoryUpgradeable",
        "label": "_initializing",
        "offset": 1,
        "slot": "0",
        "type": "t_bool"
      },
      {
        "astId": 2831,
        "contract": "contracts/TokenizedNotes/NotesCollectionFactoryUpgradeable.sol:NotesCollectionFactoryUpgradeable",
        "label": "__gap",
        "offset": 0,
        "slot": "1",
        "type": "t_array(t_uint256)50_storage"
      },
      {
        "astId": 438,
        "contract": "contracts/TokenizedNotes/NotesCollectionFactoryUpgradeable.sol:NotesCollectionFactoryUpgradeable",
        "label": "_owner",
        "offset": 0,
        "slot": "51",
        "type": "t_address"
      },
      {
        "astId": 558,
        "contract": "contracts/TokenizedNotes/NotesCollectionFactoryUpgradeable.sol:NotesCollectionFactoryUpgradeable",
        "label": "__gap",
        "offset": 0,
        "slot": "52",
        "type": "t_array(t_uint256)49_storage"
      },
      {
        "astId": 3455,
        "contract": "contracts/TokenizedNotes/NotesCollectionFactoryUpgradeable.sol:NotesCollectionFactoryUpgradeable",
        "label": "_HASHED_NAME",
        "offset": 0,
        "slot": "101",
        "type": "t_bytes32"
      },
      {
        "astId": 3457,
        "contract": "contracts/TokenizedNotes/NotesCollectionFactoryUpgradeable.sol:NotesCollectionFactoryUpgradeable",
        "label": "_HASHED_VERSION",
        "offset": 0,
        "slot": "102",
        "type": "t_bytes32"
      },
      {
        "astId": 3595,
        "contract": "contracts/TokenizedNotes/NotesCollectionFactoryUpgradeable.sol:NotesCollectionFactoryUpgradeable",
        "label": "__gap",
        "offset": 0,
        "slot": "103",
        "type": "t_array(t_uint256)50_storage"
      },
      {
        "astId": 6577,
        "contract": "contracts/TokenizedNotes/NotesCollectionFactoryUpgradeable.sol:NotesCollectionFactoryUpgradeable",
        "label": "contractsAddresses",
        "offset": 0,
        "slot": "153",
        "type": "t_array(t_address)dyn_storage"
      },
      {
        "astId": 6581,
        "contract": "contracts/TokenizedNotes/NotesCollectionFactoryUpgradeable.sol:NotesCollectionFactoryUpgradeable",
        "label": "notesContracts",
        "offset": 0,
        "slot": "154",
        "type": "t_mapping(t_uint256,t_address)"
      },
      {
        "astId": 6583,
        "contract": "contracts/TokenizedNotes/NotesCollectionFactoryUpgradeable.sol:NotesCollectionFactoryUpgradeable",
        "label": "accessBeacon",
        "offset": 0,
        "slot": "155",
        "type": "t_address"
      },
      {
        "astId": 6587,
        "contract": "contracts/TokenizedNotes/NotesCollectionFactoryUpgradeable.sol:NotesCollectionFactoryUpgradeable",
        "label": "executedMap",
        "offset": 0,
        "slot": "156",
        "type": "t_mapping(t_bytes32,t_bool)"
      },
      {
        "astId": 6591,
        "contract": "contracts/TokenizedNotes/NotesCollectionFactoryUpgradeable.sol:NotesCollectionFactoryUpgradeable",
        "label": "isNotesContract",
        "offset": 0,
        "slot": "157",
        "type": "t_mapping(t_address,t_bool)"
      },
      {
        "astId": 6595,
        "contract": "contracts/TokenizedNotes/NotesCollectionFactoryUpgradeable.sol:NotesCollectionFactoryUpgradeable",
        "label": "tokensMintedCount",
        "offset": 0,
        "slot": "158",
        "type": "t_mapping(t_address,t_uint256)"
      },
      {
        "astId": 6599,
        "contract": "contracts/TokenizedNotes/NotesCollectionFactoryUpgradeable.sol:NotesCollectionFactoryUpgradeable",
        "label": "tokensCreatedCount",
        "offset": 0,
        "slot": "159",
        "type": "t_mapping(t_address,t_uint256)"
      },
      {
        "astId": 6603,
        "contract": "contracts/TokenizedNotes/NotesCollectionFactoryUpgradeable.sol:NotesCollectionFactoryUpgradeable",
        "label": "tokensContractsCreatedCount",
        "offset": 0,
        "slot": "160",
        "type": "t_mapping(t_address,t_uint256)"
      }
    ],
    "types": {
      "t_address": {
        "encoding": "inplace",
        "label": "address",
        "numberOfBytes": "20"
      },
      "t_array(t_address)dyn_storage": {
        "base": "t_address",
        "encoding": "dynamic_array",
        "label": "address[]",
        "numberOfBytes": "32"
      },
      "t_array(t_uint256)49_storage": {
        "base": "t_uint256",
        "encoding": "inplace",
        "label": "uint256[49]",
        "numberOfBytes": "1568"
      },
      "t_array(t_uint256)50_storage": {
        "base": "t_uint256",
        "encoding": "inplace",
        "label": "uint256[50]",
        "numberOfBytes": "1600"
      },
      "t_bool": {
        "encoding": "inplace",
        "label": "bool",
        "numberOfBytes": "1"
      },
      "t_bytes32": {
        "encoding": "inplace",
        "label": "bytes32",
        "numberOfBytes": "32"
      },
      "t_mapping(t_address,t_bool)": {
        "encoding": "mapping",
        "key": "t_address",
        "label": "mapping(address => bool)",
        "numberOfBytes": "32",
        "value": "t_bool"
      },
      "t_mapping(t_address,t_uint256)": {
        "encoding": "mapping",
        "key": "t_address",
        "label": "mapping(address => uint256)",
        "numberOfBytes": "32",
        "value": "t_uint256"
      },
      "t_mapping(t_bytes32,t_bool)": {
        "encoding": "mapping",
        "key": "t_bytes32",
        "label": "mapping(bytes32 => bool)",
        "numberOfBytes": "32",
        "value": "t_bool"
      },
      "t_mapping(t_uint256,t_address)": {
        "encoding": "mapping",
        "key": "t_uint256",
        "label": "mapping(uint256 => address)",
        "numberOfBytes": "32",
        "value": "t_address"
      },
      "t_uint256": {
        "encoding": "inplace",
        "label": "uint256",
        "numberOfBytes": "32"
      },
      "t_uint8": {
        "encoding": "inplace",
        "label": "uint8",
        "numberOfBytes": "1"
      }
    }
  }
}