{
  "address": "0x77359601A8F7B100Edb82c9f61Fe35738B318Db7",
  "abi": [
    {
      "inputs": [
        {
          "internalType": "string",
          "name": "tokenDomain_",
          "type": "string"
        },
        {
          "internalType": "address",
          "name": "signer_",
          "type": "address"
        },
        {
          "internalType": "address",
          "name": "feeCollector_",
          "type": "address"
        },
        {
          "internalType": "address",
          "name": "actionCounter_",
          "type": "address"
        },
        {
          "internalType": "address",
          "name": "minter_",
          "type": "address"
        },
        {
          "internalType": "address",
          "name": "listHelper_",
          "type": "address"
        }
      ],
      "stateMutability": "nonpayable",
      "type": "constructor"
    },
    {
      "anonymous": false,
      "inputs": [
        {
          "indexed": false,
          "internalType": "uint256",
          "name": "tokenId",
          "type": "uint256"
        },
        {
          "indexed": false,
          "internalType": "string",
          "name": "slug",
          "type": "string"
        }
      ],
      "name": "AddToken",
      "type": "event"
    },
    {
      "anonymous": false,
      "inputs": [
        {
          "indexed": true,
          "internalType": "address",
          "name": "account",
          "type": "address"
        },
        {
          "indexed": true,
          "internalType": "address",
          "name": "operator",
          "type": "address"
        },
        {
          "indexed": false,
          "internalType": "bool",
          "name": "approved",
          "type": "bool"
        }
      ],
      "name": "ApprovalForAll",
      "type": "event"
    },
    {
      "anonymous": false,
      "inputs": [
        {
          "indexed": false,
          "internalType": "uint8",
          "name": "version",
          "type": "uint8"
        }
      ],
      "name": "Initialized",
      "type": "event"
    },
    {
      "anonymous": false,
      "inputs": [
        {
          "indexed": false,
          "internalType": "uint256",
          "name": "tokenId",
          "type": "uint256"
        },
        {
          "indexed": false,
          "internalType": "uint256",
          "name": "oldMaxSupply",
          "type": "uint256"
        },
        {
          "indexed": false,
          "internalType": "uint256",
          "name": "newMaxSupply",
          "type": "uint256"
        }
      ],
      "name": "MaxSupply",
      "type": "event"
    },
    {
      "anonymous": false,
      "inputs": [
        {
          "indexed": true,
          "internalType": "address",
          "name": "operator",
          "type": "address"
        },
        {
          "indexed": true,
          "internalType": "address",
          "name": "from",
          "type": "address"
        },
        {
          "indexed": true,
          "internalType": "address",
          "name": "to",
          "type": "address"
        },
        {
          "indexed": false,
          "internalType": "uint256[]",
          "name": "ids",
          "type": "uint256[]"
        },
        {
          "indexed": false,
          "internalType": "uint256[]",
          "name": "values",
          "type": "uint256[]"
        }
      ],
      "name": "TransferBatch",
      "type": "event"
    },
    {
      "anonymous": false,
      "inputs": [
        {
          "indexed": true,
          "internalType": "address",
          "name": "operator",
          "type": "address"
        },
        {
          "indexed": true,
          "internalType": "address",
          "name": "from",
          "type": "address"
        },
        {
          "indexed": true,
          "internalType": "address",
          "name": "to",
          "type": "address"
        },
        {
          "indexed": false,
          "internalType": "uint256",
          "name": "id",
          "type": "uint256"
        },
        {
          "indexed": false,
          "internalType": "uint256",
          "name": "value",
          "type": "uint256"
        }
      ],
      "name": "TransferSingle",
      "type": "event"
    },
    {
      "anonymous": false,
      "inputs": [
        {
          "indexed": false,
          "internalType": "string",
          "name": "value",
          "type": "string"
        },
        {
          "indexed": true,
          "internalType": "uint256",
          "name": "id",
          "type": "uint256"
        }
      ],
      "name": "URI",
      "type": "event"
    },
    {
      "inputs": [],
      "name": "VERSION",
      "outputs": [
        {
          "internalType": "string",
          "name": "",
          "type": "string"
        }
      ],
      "stateMutability": "view",
      "type": "function"
    },
    {
      "inputs": [],
      "name": "actionCounter",
      "outputs": [
        {
          "internalType": "contract IFileActionCounter",
          "name": "",
          "type": "address"
        }
      ],
      "stateMutability": "view",
      "type": "function"
    },
    {
      "inputs": [
        {
          "components": [
            {
              "internalType": "string",
              "name": "slug",
              "type": "string"
            },
            {
              "internalType": "uint96",
              "name": "royalties",
              "type": "uint96"
            },
            {
              "internalType": "uint256",
              "name": "tokenMaxSupply",
              "type": "uint256"
            },
            {
              "internalType": "uint256",
              "name": "callCost",
              "type": "uint256"
            },
            {
              "internalType": "bytes32",
              "name": "interactionId",
              "type": "bytes32"
            },
            {
              "internalType": "address",
              "name": "from",
              "type": "address"
            }
          ],
          "internalType": "struct IFileAccessCollectionUpgradeable.SAddTokenCall",
          "name": "req",
          "type": "tuple"
        },
        {
          "internalType": "bytes",
          "name": "signature",
          "type": "bytes"
        }
      ],
      "name": "addToken",
      "outputs": [],
      "stateMutability": "payable",
      "type": "function"
    },
    {
      "inputs": [
        {
          "internalType": "address",
          "name": "account",
          "type": "address"
        },
        {
          "internalType": "uint256",
          "name": "id",
          "type": "uint256"
        }
      ],
      "name": "balanceOf",
      "outputs": [
        {
          "internalType": "uint256",
          "name": "",
          "type": "uint256"
        }
      ],
      "stateMutability": "view",
      "type": "function"
    },
    {
      "inputs": [
        {
          "internalType": "address[]",
          "name": "accounts",
          "type": "address[]"
        },
        {
          "internalType": "uint256[]",
          "name": "ids",
          "type": "uint256[]"
        }
      ],
      "name": "balanceOfBatch",
      "outputs": [
        {
          "internalType": "uint256[]",
          "name": "",
          "type": "uint256[]"
        }
      ],
      "stateMutability": "view",
      "type": "function"
    },
    {
      "inputs": [],
      "name": "description",
      "outputs": [
        {
          "internalType": "string",
          "name": "",
          "type": "string"
        }
      ],
      "stateMutability": "view",
      "type": "function"
    },
    {
      "inputs": [
        {
          "internalType": "bytes32",
          "name": "",
          "type": "bytes32"
        }
      ],
      "name": "executedMap",
      "outputs": [
        {
          "internalType": "bool",
          "name": "",
          "type": "bool"
        }
      ],
      "stateMutability": "view",
      "type": "function"
    },
    {
      "inputs": [
        {
          "internalType": "uint256",
          "name": "id",
          "type": "uint256"
        }
      ],
      "name": "exists",
      "outputs": [
        {
          "internalType": "bool",
          "name": "",
          "type": "bool"
        }
      ],
      "stateMutability": "view",
      "type": "function"
    },
    {
      "inputs": [
        {
          "internalType": "string",
          "name": "",
          "type": "string"
        }
      ],
      "name": "fileToToken",
      "outputs": [
        {
          "internalType": "uint256",
          "name": "",
          "type": "uint256"
        }
      ],
      "stateMutability": "view",
      "type": "function"
    },
    {
      "inputs": [],
      "name": "getFeeCollector",
      "outputs": [
        {
          "internalType": "address",
          "name": "",
          "type": "address"
        }
      ],
      "stateMutability": "view",
      "type": "function"
    },
    {
      "inputs": [
        {
          "internalType": "address",
          "name": "creator",
          "type": "address"
        },
        {
          "internalType": "string",
          "name": "name_",
          "type": "string"
        },
        {
          "internalType": "string",
          "name": "description_",
          "type": "string"
        }
      ],
      "name": "initialize",
      "outputs": [],
      "stateMutability": "nonpayable",
      "type": "function"
    },
    {
      "inputs": [
        {
          "internalType": "address",
          "name": "account",
          "type": "address"
        },
        {
          "internalType": "address",
          "name": "operator",
          "type": "address"
        }
      ],
      "name": "isApprovedForAll",
      "outputs": [
        {
          "internalType": "bool",
          "name": "",
          "type": "bool"
        }
      ],
      "stateMutability": "view",
      "type": "function"
    },
    {
      "inputs": [
        {
          "internalType": "bytes32",
          "name": "interactionId",
          "type": "bytes32"
        }
      ],
      "name": "isExecuted",
      "outputs": [
        {
          "internalType": "bool",
          "name": "",
          "type": "bool"
        }
      ],
      "stateMutability": "view",
      "type": "function"
    },
    {
      "inputs": [],
      "name": "latestTokenId",
      "outputs": [
        {
          "internalType": "uint256",
          "name": "",
          "type": "uint256"
        }
      ],
      "stateMutability": "view",
      "type": "function"
    },
    {
      "inputs": [
        {
          "internalType": "uint256",
          "name": "id",
          "type": "uint256"
        }
      ],
      "name": "maxSupply",
      "outputs": [
        {
          "internalType": "uint256",
          "name": "",
          "type": "uint256"
        }
      ],
      "stateMutability": "view",
      "type": "function"
    },
    {
      "inputs": [
        {
          "internalType": "address",
          "name": "to",
          "type": "address"
        },
        {
          "internalType": "uint256",
          "name": "id",
          "type": "uint256"
        },
        {
          "internalType": "uint256",
          "name": "amount",
          "type": "uint256"
        },
        {
          "internalType": "bytes",
          "name": "data",
          "type": "bytes"
        }
      ],
      "name": "mint",
      "outputs": [],
      "stateMutability": "nonpayable",
      "type": "function"
    },
    {
      "inputs": [
        {
          "components": [
            {
              "internalType": "uint256",
              "name": "id",
              "type": "uint256"
            },
            {
              "internalType": "address[]",
              "name": "to",
              "type": "address[]"
            },
            {
              "internalType": "uint256[]",
              "name": "amounts",
              "type": "uint256[]"
            },
            {
              "internalType": "uint256",
              "name": "callCost",
              "type": "uint256"
            },
            {
              "internalType": "bytes32",
              "name": "interactionId",
              "type": "bytes32"
            },
            {
              "internalType": "address",
              "name": "from",
              "type": "address"
            }
          ],
          "internalType": "struct IFileAccessCollectionUpgradeable.SMintMultipleCall",
          "name": "req",
          "type": "tuple"
        },
        {
          "internalType": "bytes",
          "name": "signature",
          "type": "bytes"
        }
      ],
      "name": "mintMultiple",
      "outputs": [],
      "stateMutability": "payable",
      "type": "function"
    },
    {
      "inputs": [],
      "name": "name",
      "outputs": [
        {
          "internalType": "string",
          "name": "",
          "type": "string"
        }
      ],
      "stateMutability": "view",
      "type": "function"
    },
    {
      "inputs": [
        {
          "internalType": "uint256",
          "name": "_tokenId",
          "type": "uint256"
        },
        {
          "internalType": "uint256",
          "name": "_salePrice",
          "type": "uint256"
        }
      ],
      "name": "royaltyInfo",
      "outputs": [
        {
          "internalType": "address",
          "name": "",
          "type": "address"
        },
        {
          "internalType": "uint256",
          "name": "",
          "type": "uint256"
        }
      ],
      "stateMutability": "view",
      "type": "function"
    },
    {
      "inputs": [],
      "name": "royaltyReceiver",
      "outputs": [
        {
          "internalType": "address",
          "name": "",
          "type": "address"
        }
      ],
      "stateMutability": "view",
      "type": "function"
    },
    {
      "inputs": [
        {
          "internalType": "address",
          "name": "from",
          "type": "address"
        },
        {
          "internalType": "address",
          "name": "to",
          "type": "address"
        },
        {
          "internalType": "uint256[]",
          "name": "ids",
          "type": "uint256[]"
        },
        {
          "internalType": "uint256[]",
          "name": "amounts",
          "type": "uint256[]"
        },
        {
          "internalType": "bytes",
          "name": "data",
          "type": "bytes"
        }
      ],
      "name": "safeBatchTransferFrom",
      "outputs": [],
      "stateMutability": "nonpayable",
      "type": "function"
    },
    {
      "inputs": [
        {
          "internalType": "address",
          "name": "from",
          "type": "address"
        },
        {
          "internalType": "address",
          "name": "to",
          "type": "address"
        },
        {
          "internalType": "uint256",
          "name": "id",
          "type": "uint256"
        },
        {
          "internalType": "uint256",
          "name": "amount",
          "type": "uint256"
        },
        {
          "internalType": "bytes",
          "name": "data",
          "type": "bytes"
        }
      ],
      "name": "safeTransferFrom",
      "outputs": [],
      "stateMutability": "nonpayable",
      "type": "function"
    },
    {
      "inputs": [
        {
          "internalType": "address",
          "name": "operator",
          "type": "address"
        },
        {
          "internalType": "bool",
          "name": "approved",
          "type": "bool"
        }
      ],
      "name": "setApprovalForAll",
      "outputs": [],
      "stateMutability": "nonpayable",
      "type": "function"
    },
    {
      "inputs": [
        {
          "components": [
            {
              "internalType": "uint256",
              "name": "tokenId",
              "type": "uint256"
            },
            {
              "internalType": "uint256",
              "name": "tokenMaxSupply",
              "type": "uint256"
            },
            {
              "internalType": "bytes32",
              "name": "interactionId",
              "type": "bytes32"
            },
            {
              "internalType": "address",
              "name": "from",
              "type": "address"
            }
          ],
          "internalType": "struct IFileAccessCollectionUpgradeable.SMaxSupplyCall",
          "name": "req",
          "type": "tuple"
        },
        {
          "internalType": "bytes",
          "name": "signature",
          "type": "bytes"
        }
      ],
      "name": "setMaxSupply",
      "outputs": [],
      "stateMutability": "nonpayable",
      "type": "function"
    },
    {
      "inputs": [
        {
          "internalType": "uint256",
          "name": "tokenId",
          "type": "uint256"
        },
        {
          "internalType": "uint96",
          "name": "_royaltyPercentage",
          "type": "uint96"
        }
      ],
      "name": "setTokenRoyaltyPercentage",
      "outputs": [],
      "stateMutability": "nonpayable",
      "type": "function"
    },
    {
      "inputs": [],
      "name": "signWallet",
      "outputs": [
        {
          "internalType": "address",
          "name": "",
          "type": "address"
        }
      ],
      "stateMutability": "view",
      "type": "function"
    },
    {
      "inputs": [
        {
          "internalType": "bytes4",
          "name": "interfaceId",
          "type": "bytes4"
        }
      ],
      "name": "supportsInterface",
      "outputs": [
        {
          "internalType": "bool",
          "name": "",
          "type": "bool"
        }
      ],
      "stateMutability": "view",
      "type": "function"
    },
    {
      "inputs": [
        {
          "internalType": "uint256",
          "name": "",
          "type": "uint256"
        }
      ],
      "name": "tokenToFile",
      "outputs": [
        {
          "internalType": "string",
          "name": "",
          "type": "string"
        }
      ],
      "stateMutability": "view",
      "type": "function"
    },
    {
      "inputs": [
        {
          "internalType": "uint256",
          "name": "id",
          "type": "uint256"
        }
      ],
      "name": "totalSupply",
      "outputs": [
        {
          "internalType": "uint256",
          "name": "",
          "type": "uint256"
        }
      ],
      "stateMutability": "view",
      "type": "function"
    },
    {
      "inputs": [
        {
          "internalType": "uint256",
          "name": "",
          "type": "uint256"
        }
      ],
      "name": "uri",
      "outputs": [
        {
          "internalType": "string",
          "name": "",
          "type": "string"
        }
      ],
      "stateMutability": "view",
      "type": "function"
    },
    {
      "inputs": [
        {
          "components": [
            {
              "internalType": "string",
              "name": "slug",
              "type": "string"
            },
            {
              "internalType": "uint96",
              "name": "royalties",
              "type": "uint96"
            },
            {
              "internalType": "uint256",
              "name": "tokenMaxSupply",
              "type": "uint256"
            },
            {
              "internalType": "uint256",
              "name": "callCost",
              "type": "uint256"
            },
            {
              "internalType": "bytes32",
              "name": "interactionId",
              "type": "bytes32"
            },
            {
              "internalType": "address",
              "name": "from",
              "type": "address"
            }
          ],
          "internalType": "struct IFileAccessCollectionUpgradeable.SAddTokenCall",
          "name": "req",
          "type": "tuple"
        },
        {
          "internalType": "bytes",
          "name": "signature",
          "type": "bytes"
        }
      ],
      "name": "verifyAddToken",
      "outputs": [
        {
          "internalType": "bool",
          "name": "",
          "type": "bool"
        }
      ],
      "stateMutability": "view",
      "type": "function"
    },
    {
      "inputs": [
        {
          "components": [
            {
              "internalType": "uint256",
              "name": "tokenId",
              "type": "uint256"
            },
            {
              "internalType": "uint256",
              "name": "tokenMaxSupply",
              "type": "uint256"
            },
            {
              "internalType": "bytes32",
              "name": "interactionId",
              "type": "bytes32"
            },
            {
              "internalType": "address",
              "name": "from",
              "type": "address"
            }
          ],
          "internalType": "struct IFileAccessCollectionUpgradeable.SMaxSupplyCall",
          "name": "req",
          "type": "tuple"
        },
        {
          "internalType": "bytes",
          "name": "signature",
          "type": "bytes"
        }
      ],
      "name": "verifyMaxSupply",
      "outputs": [
        {
          "internalType": "bool",
          "name": "",
          "type": "bool"
        }
      ],
      "stateMutability": "view",
      "type": "function"
    },
    {
      "inputs": [
        {
          "components": [
            {
              "internalType": "uint256",
              "name": "id",
              "type": "uint256"
            },
            {
              "internalType": "address[]",
              "name": "to",
              "type": "address[]"
            },
            {
              "internalType": "uint256[]",
              "name": "amounts",
              "type": "uint256[]"
            },
            {
              "internalType": "uint256",
              "name": "callCost",
              "type": "uint256"
            },
            {
              "internalType": "bytes32",
              "name": "interactionId",
              "type": "bytes32"
            },
            {
              "internalType": "address",
              "name": "from",
              "type": "address"
            }
          ],
          "internalType": "struct IFileAccessCollectionUpgradeable.SMintMultipleCall",
          "name": "req",
          "type": "tuple"
        },
        {
          "internalType": "bytes",
          "name": "signature",
          "type": "bytes"
        }
      ],
      "name": "verifyMint",
      "outputs": [
        {
          "internalType": "bool",
          "name": "",
          "type": "bool"
        }
      ],
      "stateMutability": "view",
      "type": "function"
    }
  ],
  "transactionHash": "0x12dc9631b6a42d1fbdd317dfbe5785f538394fc6e348e39bc78d8896c6d0f679",
  "args": [
    "filenft-testnet.gxdtoken.io",
    "0x990ff3C0767ffA9192C88B2Cdc7fB50E5209EEf4",
    "0xc901001DcFf76992734C5d35629fD06eA94c7aA5",
    "0xf74fE2c87f9CcC03b2945B6EE4d4EEA974ac320f",
    "0x7f20EC5430a045Fb16b9C8831a4F6395b31cdCe2",
    "0x0b1E18a21fea118EABC2CaD3a162dB10d887bc52"
  ],
  "numDeployments": 5,
  "solcInputHash": "5127a09946c74f44f2c43d4e6ff615a4",
  "bytecode": "0x6101406040523480156200001257600080fd5b5060405162003f2438038062003f248339810160408190526200003591620000a2565b6200004086620001dc565b60a0526001600160a01b0394851660805292841660c052831661010052908216610120521660e0525062000204565b634e487b7160e01b600052604160045260246000fd5b80516001600160a01b03811681146200009d57600080fd5b919050565b60008060008060008060c08789031215620000bc57600080fd5b86516001600160401b0380821115620000d457600080fd5b818901915089601f830112620000e957600080fd5b815181811115620000fe57620000fe6200006f565b604051601f8201601f19908116603f011681019083821181831017156200012957620001296200006f565b81604052828152602093508c848487010111156200014657600080fd5b600091505b828210156200016a57848201840151818301850152908301906200014b565b828211156200017c5760008484830101525b99506200018e91505089820162000085565b96505050620001a06040880162000085565b9350620001b06060880162000085565b9250620001c06080880162000085565b9150620001d060a0880162000085565b90509295509295509295565b80516020808301519190811015620001fe576000198160200360031b1b821691505b50919050565b60805160a05160c05160e0516101005161012051613cb4620002706000396000610bf101526000610cd10152600081816106c3015281816112fe01526114c80152600081816102a601526121210152600061085d01526000818161034e0152610fc10152613cb46000f3fe6080604052600436106101ed5760003560e01c8063906571471161010d578063e09314ad116100a0578063f242432a1161006f578063f242432a14610640578063f9aebda014610660578063fa996fae14610691578063fdbd98b0146106b1578063ffa1ad74146106e557600080fd5b8063e09314ad14610586578063e52cb36a146105a6578063e985e9c5146105d7578063ef0eb3871461062057600080fd5b8063b452da84116100dc578063b452da8414610513578063bd85b03914610526578063c83e13b814610553578063cb519d8c1461057357600080fd5b806390657147146104925780639fbc8713146104b2578063a22cb465146104d3578063ae82236c146104f357600080fd5b80634e1273f411610185578063731133e911610154578063731133e9146103f45780637a6cd9cb14610414578063869f75941461044d5780638c0e83491461047b57600080fd5b80634e1273f4146103725780634f558e791461039f5780635bddceab146103bf5780637284e416146103df57600080fd5b806312fde4b7116101c157806312fde4b7146102975780632a55205a146102de5780632eb2c2d61461031d5780634ce748591461033f57600080fd5b8062fdd58e146101f257806301ffc9a71461022557806306fdde03146102555780630e89341c14610277575b600080fd5b3480156101fe57600080fd5b5061021261020d366004612e85565b610716565b6040519081526020015b60405180910390f35b34801561023157600080fd5b50610245610240366004612ec5565b6107ae565b604051901515815260200161021c565b34801561026157600080fd5b5061026a6107bf565b60405161021c9190612f41565b34801561028357600080fd5b5061026a610292366004612f54565b61084e565b3480156102a357600080fd5b507f00000000000000000000000000000000000000000000000000000000000000005b6040516001600160a01b03909116815260200161021c565b3480156102ea57600080fd5b506102fe6102f9366004612f6d565b6109a4565b604080516001600160a01b03909316835260208301919091520161021c565b34801561032957600080fd5b5061033d6103383660046130e8565b610a52565b005b34801561034b57600080fd5b507f00000000000000000000000000000000000000000000000000000000000000006102c6565b34801561037e57600080fd5b5061039261038d366004613191565b610a9e565b60405161021c9190613296565b3480156103ab57600080fd5b506102456103ba366004612f54565b610bc7565b3480156103cb57600080fd5b5061033d6103da3660046132c0565b610bee565b3480156103eb57600080fd5b5061026a610cc0565b34801561040057600080fd5b5061033d61040f3660046132ec565b610cce565b34801561042057600080fd5b5061021261042f36600461334c565b80516020818301810180516101338252928201919093012091525481565b34801561045957600080fd5b50610212610468366004612f54565b6000908152610134602052604090205490565b34801561048757600080fd5b506102126101315481565b34801561049e57600080fd5b5061033d6104ad366004613388565b610d46565b3480156104be57600080fd5b50610135546102c6906001600160a01b031681565b3480156104df57600080fd5b5061033d6104ee366004613409565b610f13565b3480156104ff57600080fd5b5061024561050e366004613440565b610f1e565b61033d6105213660046134a3565b610fed565b34801561053257600080fd5b50610212610541366004612f54565b600090815260c9602052604090205490565b34801561055f57600080fd5b5061026a61056e366004612f54565b611388565b61033d6105813660046134a3565b6113a2565b34801561059257600080fd5b506102456105a13660046134a3565b6115ee565b3480156105b257600080fd5b506102456105c1366004612f54565b6000908152610136602052604090205460ff1690565b3480156105e357600080fd5b506102456105f23660046134fc565b6001600160a01b03918216600090815260986020908152604080832093909416825291909152205460ff1690565b34801561062c57600080fd5b5061024561063b3660046134a3565b6116e5565b34801561064c57600080fd5b5061033d61065b366004613526565b6117ad565b34801561066c57600080fd5b5061024561067b366004612f54565b6101366020526000908152604090205460ff1681565b34801561069d57600080fd5b5061033d6106ac366004613440565b6117f2565b3480156106bd57600080fd5b506102c67f000000000000000000000000000000000000000000000000000000000000000081565b3480156106f157600080fd5b5061026a60405180604001604052806005815260200164181718171960d91b81525081565b60006001600160a01b0383166107865760405162461bcd60e51b815260206004820152602a60248201527f455243313135353a2061646472657373207a65726f206973206e6f742061207660448201526930b634b21037bbb732b960b11b60648201526084015b60405180910390fd5b5060009081526097602090815260408083206001600160a01b03949094168352929052205490565b60006107b9826118f9565b92915050565b61012f80546107cd9061358a565b80601f01602080910402602001604051908101604052809291908181526020018280546107f99061358a565b80156108465780601f1061081b57610100808354040283529160200191610846565b820191906000526020600020905b81548152906001019060200180831161082957829003601f168201915b505050505081565b604051631623433d60e31b81527f0000000000000000000000000000000000000000000000000000000000000000600482015260609073938945Cc5e4aE22F483931a17A55c1F56a26948f9063b11a19e89060240160006040518083038186803b1580156108bb57600080fd5b505af41580156108cf573d6000803e3d6000fd5b505050506040513d6000823e601f3d908101601f191682016040526108f791908101906135bf565b604051632b65311f60e11b815230600482015273938945Cc5e4aE22F483931a17A55c1F56a26948f906356ca623e9060240160006040518083038186803b15801561094157600080fd5b505af4158015610955573d6000803e3d6000fd5b505050506040513d6000823e601f3d908101601f1916820160405261097d91908101906135bf565b60405160200161098e929190613640565b6040516020818303038152906040529050919050565b60008281526066602090815260408083208151808301909252546001600160a01b038116808352600160a01b9091046001600160601b0316928201929092528291610a195750604080518082019091526065546001600160a01b0381168252600160a01b90046001600160601b031660208201525b602081015160009061271090610a38906001600160601b0316876136bd565b610a4291906136dc565b91519350909150505b9250929050565b6001600160a01b038516331480610a6e5750610a6e85336105f2565b610a8a5760405162461bcd60e51b815260040161077d906136fe565b610a978585858585611939565b5050505050565b60608151835114610b035760405162461bcd60e51b815260206004820152602960248201527f455243313135353a206163636f756e747320616e6420696473206c656e677468604482015268040dad2e6dac2e8c6d60bb1b606482015260840161077d565b600083516001600160401b03811115610b1e57610b1e612f8f565b604051908082528060200260200182016040528015610b47578160200160208202803683370190505b50905060005b8451811015610bbf57610b92858281518110610b6b57610b6b61374d565b6020026020010151858381518110610b8557610b8561374d565b6020026020010151610716565b828281518110610ba457610ba461374d565b6020908102919091010152610bb881613763565b9050610b4d565b509392505050565b6000818152610132602052604081208054829190610be49061358a565b9050119050919050565b337f00000000000000000000000000000000000000000000000000000000000000006001600160a01b031614610c545760405162461bcd60e51b815260206004820152600b60248201526a139bdd08185b1b1bddd95960aa1b604482015260640161077d565b612710816001600160601b031610610ca35760405162461bcd60e51b8152602060048201526012602482015271496e76616c69642070657263656e7461676560701b604482015260640161077d565b61013554610cbc9083906001600160a01b031683611b1f565b5050565b61013080546107cd9061358a565b337f00000000000000000000000000000000000000000000000000000000000000006001600160a01b031614610d345760405162461bcd60e51b815260206004820152600b60248201526a139bdd08185b1b1bddd95960aa1b604482015260640161077d565b610d4084848484611c2d565b50505050565b600054610100900460ff1615808015610d665750600054600160ff909116105b80610d805750303b158015610d80575060005460ff166001145b610de35760405162461bcd60e51b815260206004820152602e60248201527f496e697469616c697a61626c653a20636f6e747261637420697320616c72656160448201526d191e481a5b9a5d1a585b1a5e995960921b606482015260840161077d565b6000805460ff191660011790558015610e06576000805461ff0019166101001790555b8251610e1a9061012f906020860190612dd0565b508151610e2f90610130906020850190612dd0565b5061013580546001600160a01b0319166001600160a01b038616179055604080516020810190915260008152610e6490611d52565b610e6c611d85565b610ec86040518060400160405280601f81526020017f46696c65416363657373436f6c6c656374696f6e5570677261646561626c650081525060405180604001604052806005815260200164181718171960d91b815250611dae565b8015610d40576000805461ff0019169055604051600181527f7f26b83ff96e1f2b6a682f133852f6798a09c465da95921460cefb38474024989060200160405180910390a150505050565b610cbc338383611ddf565b600080610fb783610fb17f5f21b314e803189587a545fde5241e6c72dc57e54abeff586b4d60457cc439728735602089013560408a0135610f6560808c0160608d0161377e565b604080516020810196909652850193909352606084019190915260808301526001600160a01b031660a082015260c0015b60405160208183030381529060405280519060200120611ec0565b90611f0e565b6001600160a01b037f00000000000000000000000000000000000000000000000000000000000000008116911614949350505050565b34826060013511156110115760405162461bcd60e51b815260040161077d90613799565b60808201356000908152610136602052604090205460ff161561107e5760405162461bcd60e51b81526020600482015260316024820152600080516020613c5f83398151915260448201527008105b1c9958591e48195e1958dd5d1959607a1b606482015260840161077d565b3361108f60c0840160a0850161377e565b6001600160a01b0316146110eb5760405162461bcd60e51b815260206004820152602f6024820152600080516020613c5f83398151915260448201526e1024a72b20a624a22fa9a2a72222a960891b606482015260840161077d565b6110f582806137d3565b8080601f01602080910402602001604051908101604052809392919081815260200183838082843760009201919091525050604051637b7acf8960e01b8152737DD23108bba2f97a23f875676153583b9e8455a193637b7acf89935061115f925090600401612f41565b60206040518083038186803b15801561117757600080fd5b505af415801561118b573d6000803e3d6000fd5b505050506040513d601f19601f820116820180604052508101906111af9190613819565b6112075760405162461bcd60e51b81526020600482015260356024820152600080516020613c5f833981519152604482015274040a6d8eace40ccdee4dac2e840dad2e6dac2e8c6d605b1b606482015260840161077d565b61121182826116e5565b6112665760405162461bcd60e51b81526020600482015260326024820152600080516020613c5f83398151915260448201527120494e56414c49445f5349474e415455524560701b606482015260840161077d565b6080820135600090815261013660205260409020805460ff191660011790556112e161129283806137d3565b8080601f0160208091040260200160405190810160405280939291908181526020018383808284376000920191909152506112d7925050506040850160208601613836565b8460400135611f2a565b6060820135156112f4576112f43461211c565b6001600160a01b037f00000000000000000000000000000000000000000000000000000000000000001663b42c0019336040516001600160e01b031960e084901b1681526001600160a01b03909116600482015260016024820152604401600060405180830381600087803b15801561136c57600080fd5b505af1158015611380573d6000803e3d6000fd5b505050505050565b61013260205260009081526040902080546107cd9061358a565b60808201356000908152610136602052604090205460ff16156113fa5760405162461bcd60e51b815260206004820152601060248201526f105b1c9958591e48195e1958dd5d195960821b604482015260640161077d565b348260600135111561141e5760405162461bcd60e51b815260040161077d90613799565b61142882826115ee565b6114685760405162461bcd60e51b8152602060048201526011602482015270494e56414c49445f5349474e415455524560781b604482015260640161077d565b3361147960c0840160a0850161377e565b6001600160a01b03161461149f5760405162461bcd60e51b815260040161077d90613851565b6080820135600090815261013660205260409020805460ff191660011790556001600160a01b037f00000000000000000000000000000000000000000000000000000000000000001663ec7d1fc96114f43390565b61157d611504602087018761388c565b8080602002602001604051908101604052809392919081815260200183836020028082843760009201919091525050883591506115469050604089018961388c565b8080602002602001604051908101604052809392919081815260200183836020028082843760009201919091525061214692505050565b6040516001600160e01b031960e085901b1681526001600160a01b0390921660048301526024820152604401600060405180830381600087803b1580156115c357600080fd5b505af11580156115d7573d6000803e3d6000fd5b50505050606082013515610cbc57610cbc3461211c565b600080610fb783610fb17fab248fd20764e7aaff2889234a247b3c201544ee877b210e3fdd000110ac7064873561162860208a018a61388c565b6040516020016116399291906138d5565b6040516020818303038152906040528051906020012089806040019061165f919061388c565b604051602001611670929190613915565b60408051601f19818403018152919052805160209091012060608b013560808c01356116a260c08e0160a08f0161377e565b6040805160208101989098528701959095526060860193909352608085019190915260a084015260c08301526001600160a01b031660e082015261010001610f96565b600080610fb783610fb17f1ed09372479709e7a08822316dde431383695c5c4a5eb52af91f81af59bce5bc61171a88806137d3565b604051611728929190613941565b60405180910390208860200160208101906117439190613836565b60408a013560608b013560808c013561176260c08e0160a08f0161377e565b6040805160208101989098528701959095526001600160601b039093166060860152608085019190915260a084015260c08301526001600160a01b031660e082015261010001610f96565b6001600160a01b0385163314806117c957506117c985336105f2565b6117e55760405162461bcd60e51b815260040161077d906136fe565b610a97858585858561235e565b6040808301356000908152610136602052205460ff16156118485760405162461bcd60e51b815260206004820152601060248201526f105b1c9958591e48195e1958dd5d195960821b604482015260640161077d565b6118528282610f1e565b6118925760405162461bcd60e51b8152602060048201526011602482015270494e56414c49445f5349474e415455524560781b604482015260640161077d565b336118a3608084016060850161377e565b6001600160a01b0316146118c95760405162461bcd60e51b815260040161077d90613851565b60408083013560009081526101366020908152919020805460ff19166001179055610cbc9083359084013561249a565b60006001600160e01b03198216636cdb3d1360e11b148061192a57506001600160e01b031982166303a24d0760e21b145b806107b957506107b9826124fd565b815183511461199b5760405162461bcd60e51b815260206004820152602860248201527f455243313135353a2069647320616e6420616d6f756e7473206c656e677468206044820152670dad2e6dac2e8c6d60c31b606482015260840161077d565b6001600160a01b0384166119c15760405162461bcd60e51b815260040161077d90613951565b336119d0818787878787612532565b60005b8451811015611ab95760008582815181106119f0576119f061374d565b602002602001015190506000858381518110611a0e57611a0e61374d565b60209081029190910181015160008481526097835260408082206001600160a01b038e168352909352919091205490915081811015611a5f5760405162461bcd60e51b815260040161077d90613996565b60008381526097602090815260408083206001600160a01b038e8116855292528083208585039055908b16825281208054849290611a9e9084906139e0565b9250508190555050505080611ab290613763565b90506119d3565b50846001600160a01b0316866001600160a01b0316826001600160a01b03167f4a39dc06d4c0dbc64b70af90fd698a233a518aa5d07e595d983b8c0526c8f7fb8787604051611b099291906139f8565b60405180910390a4611380818787878787612540565b6127106001600160601b0382161115611b8d5760405162461bcd60e51b815260206004820152602a60248201527f455243323938313a20726f79616c7479206665652077696c6c206578636565646044820152692073616c65507269636560b01b606482015260840161077d565b6001600160a01b038216611be35760405162461bcd60e51b815260206004820152601b60248201527f455243323938313a20496e76616c696420706172616d65746572730000000000604482015260640161077d565b6040805180820182526001600160a01b0393841681526001600160601b0392831660208083019182526000968752606690529190942093519051909116600160a01b029116179055565b6001600160a01b038416611c8d5760405162461bcd60e51b815260206004820152602160248201527f455243313135353a206d696e7420746f20746865207a65726f206164647265736044820152607360f81b606482015260840161077d565b336000611c99856126ab565b90506000611ca6856126ab565b9050611cb783600089858589612532565b60008681526097602090815260408083206001600160a01b038b16845290915281208054879290611ce99084906139e0565b909155505060408051878152602081018790526001600160a01b03808a1692600092918716917fc3d58168c5ae7397731d063d5bbf3d657854427343f4c083240f7aacaa2d0f62910160405180910390a4611d49836000898989896126f6565b50505050505050565b600054610100900460ff16611d795760405162461bcd60e51b815260040161077d90613a26565b611d82816127c0565b50565b600054610100900460ff16611dac5760405162461bcd60e51b815260040161077d90613a26565b565b600054610100900460ff16611dd55760405162461bcd60e51b815260040161077d90613a26565b610cbc82826127f0565b816001600160a01b0316836001600160a01b03161415611e535760405162461bcd60e51b815260206004820152602960248201527f455243313135353a2073657474696e6720617070726f76616c20737461747573604482015268103337b91039b2b63360b91b606482015260840161077d565b6001600160a01b03838116600081815260986020908152604080832094871680845294825291829020805460ff191686151590811790915591519182527f17307eab39ab6107e8899845ad3d59bd9653f200f220920489ca2b5937696c31910160405180910390a3505050565b60006107b9611ecd612831565b8360405161190160f01b6020820152602281018390526042810182905260009060620160405160208183030381529060405280519060200120905092915050565b6000806000611f1d85856128b1565b91509150610bbf816128f4565b6000835111611f6b5760405162461bcd60e51b815260206004820152600d60248201526c115b5c1d1e48199a5b19481a59609a1b604482015260640161077d565b61013383604051611f7c9190613a71565b908152602001604051809103902054600014611fd05760405162461bcd60e51b8152602060048201526013602482015272151bdad95b88185b1c9958591e48195e1a5cdd606a1b604482015260640161077d565b61013154611fdf9060016139e0565b610131819055600081815261013260209081526040909120855161200592870190612dd0565b5080610133856040516120189190613a71565b90815260405190819003602001902055612032818361249a565b610135546001600160a01b03161561205d576101355461205d9082906001600160a01b031685611b1f565b6040805182815260006020820181905291829133917fc3d58168c5ae7397731d063d5bbf3d657854427343f4c083240f7aacaa2d0f62910160405180910390a47fc7d11be9c4384ac178d634a91542b3ed169277be11267808e5b86abd9fc3331281856040516120ce929190613a8d565b60405180910390a1807f6bb7ff708619ba0610cba295a58592e0451dee2622938c8755667688daf3529b6121018361084e565b60405161210e9190612f41565b60405180910390a250505050565b611d827f000000000000000000000000000000000000000000000000000000000000000082612aaf565b600061215183610bc7565b6121945760405162461bcd60e51b8152602060048201526014602482015273151bdad95b88191bd95cc81b9bdd08195e1a5cdd60621b604482015260640161077d565b81518451146121de5760405162461bcd60e51b8152602060048201526016602482015275088d2cccccae4cadce840c2e4e4c2f240d8cadccee8d60531b604482015260640161077d565b60008381526101346020526040902054156122c2576000805b8351811015612237578381815181106122125761221261374d565b60200260200101518261222591906139e0565b915061223081613763565b90506121f7565b506000848152610134602090815260408083205460c99092529091205461225f9083906139e0565b11156122c05760405162461bcd60e51b815260206004820152602a60248201527f43616e2774206d696e74206d6f726520746f6b656e732e204d61782073757070604482015269363c9032bc31b2b2b21760b11b606482015260840161077d565b505b6000805b85518110156123555761231c8682815181106122e4576122e461374d565b6020026020010151868684815181106122ff576122ff61374d565b602002602001015160405180602001604052806000815250611c2d565b83818151811061232e5761232e61374d565b60200260200101518261234191906139e0565b91508061234d81613763565b9150506122c6565b50949350505050565b6001600160a01b0384166123845760405162461bcd60e51b815260040161077d90613951565b336000612390856126ab565b9050600061239d856126ab565b90506123ad838989858589612532565b60008681526097602090815260408083206001600160a01b038c168452909152902054858110156123f05760405162461bcd60e51b815260040161077d90613996565b60008781526097602090815260408083206001600160a01b038d8116855292528083208985039055908a1682528120805488929061242f9084906139e0565b909155505060408051888152602081018890526001600160a01b03808b16928c821692918816917fc3d58168c5ae7397731d063d5bbf3d657854427343f4c083240f7aacaa2d0f62910160405180910390a461248f848a8a8a8a8a6126f6565b505050505050505050565b60008281526101346020908152604091829020548251858152918201529081018290527f7ae3231d7dddaade1dda48d7b7813183e283184fe5521d66f8704feef3521ec69060600160405180910390a16000918252610134602052604090912055565b60006001600160e01b0319821663152a902d60e11b14806107b957506301ffc9a760e01b6001600160e01b03198316146107b9565b611380868686868686612b57565b6001600160a01b0384163b156113805760405163bc197c8160e01b81526001600160a01b0385169063bc197c81906125849089908990889088908890600401613aa6565b602060405180830381600087803b15801561259e57600080fd5b505af19250505080156125ce575060408051601f3d908101601f191682019092526125cb91810190613b04565b60015b61267b576125da613b21565b806308c379a0141561261457506125ef613b3d565b806125fa5750612616565b8060405162461bcd60e51b815260040161077d9190612f41565b505b60405162461bcd60e51b815260206004820152603460248201527f455243313135353a207472616e7366657220746f206e6f6e20455243313135356044820152732932b1b2b4bb32b91034b6b83632b6b2b73a32b960611b606482015260840161077d565b6001600160e01b0319811663bc197c8160e01b14611d495760405162461bcd60e51b815260040161077d90613bbb565b604080516001808252818301909252606091600091906020808301908036833701905050905082816000815181106126e5576126e561374d565b602090810291909101015292915050565b6001600160a01b0384163b156113805760405163f23a6e6160e01b81526001600160a01b0385169063f23a6e619061273a9089908990889088908890600401613c03565b602060405180830381600087803b15801561275457600080fd5b505af1925050508015612784575060408051601f3d908101601f1916820190925261278191810190613b04565b60015b612790576125da613b21565b6001600160e01b0319811663f23a6e6160e01b14611d495760405162461bcd60e51b815260040161077d90613bbb565b600054610100900460ff166127e75760405162461bcd60e51b815260040161077d90613a26565b611d8281612cd0565b600054610100900460ff166128175760405162461bcd60e51b815260040161077d90613a26565b81516020928301208151919092012060fb9190915560fc55565b60006128ac7f8b73c3c69bb8fe3d512ecc4cf759cc79239f7b179b0ffacaa9a75d522b39400f61286060fb5490565b60fc546040805160208101859052908101839052606081018290524660808201523060a082015260009060c0016040516020818303038152906040528051906020012090509392505050565b905090565b6000808251604114156128e85760208301516040840151606085015160001a6128dc87828585612ce3565b94509450505050610a4b565b50600090506002610a4b565b600081600481111561290857612908613c48565b14156129115750565b600181600481111561292557612925613c48565b14156129735760405162461bcd60e51b815260206004820152601860248201527f45434453413a20696e76616c6964207369676e61747572650000000000000000604482015260640161077d565b600281600481111561298757612987613c48565b14156129d55760405162461bcd60e51b815260206004820152601f60248201527f45434453413a20696e76616c6964207369676e6174757265206c656e67746800604482015260640161077d565b60038160048111156129e9576129e9613c48565b1415612a425760405162461bcd60e51b815260206004820152602260248201527f45434453413a20696e76616c6964207369676e6174757265202773272076616c604482015261756560f01b606482015260840161077d565b6004816004811115612a5657612a56613c48565b1415611d825760405162461bcd60e51b815260206004820152602260248201527f45434453413a20696e76616c6964207369676e6174757265202776272076616c604482015261756560f01b606482015260840161077d565b6000826001600160a01b03168260405160006040518083038185875af1925050503d8060008114612afc576040519150601f19603f3d011682016040523d82523d6000602084013e612b01565b606091505b5050905080612b525760405162461bcd60e51b815260206004820181905260248201527f50616964416374696f6e733a20666565207472616e73666572206661696c6564604482015260640161077d565b505050565b6001600160a01b038516612bde5760005b8351811015612bdc57828181518110612b8357612b8361374d565b602002602001015160c96000868481518110612ba157612ba161374d565b602002602001015181526020019081526020016000206000828254612bc691906139e0565b90915550612bd5905081613763565b9050612b68565b505b6001600160a01b0384166113805760005b8351811015611d49576000848281518110612c0c57612c0c61374d565b602002602001015190506000848381518110612c2a57612c2a61374d565b60200260200101519050600060c9600084815260200190815260200160002054905081811015612cad5760405162461bcd60e51b815260206004820152602860248201527f455243313135353a206275726e20616d6f756e74206578636565647320746f74604482015267616c537570706c7960c01b606482015260840161077d565b600092835260c9602052604090922091039055612cc981613763565b9050612bef565b8051610cbc906099906020840190612dd0565b6000807f7fffffffffffffffffffffffffffffff5d576e7357a4501ddfe92f46681b20a0831115612d1a5750600090506003612dc7565b8460ff16601b14158015612d3257508460ff16601c14155b15612d435750600090506004612dc7565b6040805160008082526020820180845289905260ff881692820192909252606081018690526080810185905260019060a0016020604051602081039080840390855afa158015612d97573d6000803e3d6000fd5b5050604051601f1901519150506001600160a01b038116612dc057600060019250925050612dc7565b9150600090505b94509492505050565b828054612ddc9061358a565b90600052602060002090601f016020900481019282612dfe5760008555612e44565b82601f10612e1757805160ff1916838001178555612e44565b82800160010185558215612e44579182015b82811115612e44578251825591602001919060010190612e29565b50612e50929150612e54565b5090565b5b80821115612e505760008155600101612e55565b80356001600160a01b0381168114612e8057600080fd5b919050565b60008060408385031215612e9857600080fd5b612ea183612e69565b946020939093013593505050565b6001600160e01b031981168114611d8257600080fd5b600060208284031215612ed757600080fd5b8135612ee281612eaf565b9392505050565b60005b83811015612f04578181015183820152602001612eec565b83811115610d405750506000910152565b60008151808452612f2d816020860160208601612ee9565b601f01601f19169290920160200192915050565b602081526000612ee26020830184612f15565b600060208284031215612f6657600080fd5b5035919050565b60008060408385031215612f8057600080fd5b50508035926020909101359150565b634e487b7160e01b600052604160045260246000fd5b601f8201601f191681016001600160401b0381118282101715612fca57612fca612f8f565b6040525050565b60006001600160401b03821115612fea57612fea612f8f565b5060051b60200190565b600082601f83011261300557600080fd5b8135602061301282612fd1565b60405161301f8282612fa5565b83815260059390931b850182019282810191508684111561303f57600080fd5b8286015b8481101561305a5780358352918301918301613043565b509695505050505050565b60006001600160401b0382111561307e5761307e612f8f565b50601f01601f191660200190565b600082601f83011261309d57600080fd5b81356130a881613065565b6040516130b58282612fa5565b8281528560208487010111156130ca57600080fd5b82602086016020830137600092810160200192909252509392505050565b600080600080600060a0868803121561310057600080fd5b61310986612e69565b945061311760208701612e69565b935060408601356001600160401b038082111561313357600080fd5b61313f89838a01612ff4565b9450606088013591508082111561315557600080fd5b61316189838a01612ff4565b9350608088013591508082111561317757600080fd5b506131848882890161308c565b9150509295509295909350565b600080604083850312156131a457600080fd5b82356001600160401b03808211156131bb57600080fd5b818501915085601f8301126131cf57600080fd5b813560206131dc82612fd1565b6040516131e98282612fa5565b83815260059390931b850182019282810191508984111561320957600080fd5b948201945b8386101561322e5761321f86612e69565b8252948201949082019061320e565b9650508601359250508082111561324457600080fd5b5061325185828601612ff4565b9150509250929050565b600081518084526020808501945080840160005b8381101561328b5781518752958201959082019060010161326f565b509495945050505050565b602081526000612ee2602083018461325b565b80356001600160601b0381168114612e8057600080fd5b600080604083850312156132d357600080fd5b823591506132e3602084016132a9565b90509250929050565b6000806000806080858703121561330257600080fd5b61330b85612e69565b9350602085013592506040850135915060608501356001600160401b0381111561333457600080fd5b6133408782880161308c565b91505092959194509250565b60006020828403121561335e57600080fd5b81356001600160401b0381111561337457600080fd5b6133808482850161308c565b949350505050565b60008060006060848603121561339d57600080fd5b6133a684612e69565b925060208401356001600160401b03808211156133c257600080fd5b6133ce8783880161308c565b935060408601359150808211156133e457600080fd5b506133f18682870161308c565b9150509250925092565b8015158114611d8257600080fd5b6000806040838503121561341c57600080fd5b61342583612e69565b91506020830135613435816133fb565b809150509250929050565b60008082840360a081121561345457600080fd5b608081121561346257600080fd5b5082915060808301356001600160401b0381111561347f57600080fd5b6132518582860161308c565b600060c0828403121561349d57600080fd5b50919050565b600080604083850312156134b657600080fd5b82356001600160401b03808211156134cd57600080fd5b6134d98683870161348b565b935060208501359150808211156134ef57600080fd5b506132518582860161308c565b6000806040838503121561350f57600080fd5b61351883612e69565b91506132e360208401612e69565b600080600080600060a0868803121561353e57600080fd5b61354786612e69565b945061355560208701612e69565b9350604086013592506060860135915060808601356001600160401b0381111561357e57600080fd5b6131848882890161308c565b600181811c9082168061359e57607f821691505b6020821081141561349d57634e487b7160e01b600052602260045260246000fd5b6000602082840312156135d157600080fd5b81516001600160401b038111156135e757600080fd5b8201601f810184136135f857600080fd5b805161360381613065565b6040516136108282612fa5565b82815286602084860101111561362557600080fd5b613636836020830160208701612ee9565b9695505050505050565b6768747470733a2f2f60c01b815260008351613663816008850160208801612ee9565b602f60f81b6008918401918201528351613684816009840160208801612ee9565b6917bdb4b23e973539b7b760b11b60099290910191820152601301949350505050565b634e487b7160e01b600052601160045260246000fd5b60008160001904831182151516156136d7576136d76136a7565b500290565b6000826136f957634e487b7160e01b600052601260045260246000fd5b500490565b6020808252602f908201527f455243313135353a2063616c6c6572206973206e6f7420746f6b656e206f776e60408201526e195c881b9bdc88185c1c1c9bdd9959608a1b606082015260800190565b634e487b7160e01b600052603260045260246000fd5b6000600019821415613777576137776136a7565b5060010190565b60006020828403121561379057600080fd5b612ee282612e69565b6020808252602c90820152600080516020613c5f83398151915260408201526b08155b99195c9c1c9a58d95960a21b606082015260800190565b6000808335601e198436030181126137ea57600080fd5b8301803591506001600160401b0382111561380457600080fd5b602001915036819003821315610a4b57600080fd5b60006020828403121561382b57600080fd5b8151612ee2816133fb565b60006020828403121561384857600080fd5b612ee2826132a9565b6020808252602d90820152600080516020613c5f83398151915260408201526c102bb937b7339039b2b73232b960991b606082015260800190565b6000808335601e198436030181126138a357600080fd5b8301803591506001600160401b038211156138bd57600080fd5b6020019150600581901b3603821315610a4b57600080fd5b60008184825b8581101561390a576001600160a01b036138f483612e69565b16835260209283019291909101906001016138db565b509095945050505050565b60006001600160fb1b0383111561392b57600080fd5b8260051b80858437600092019182525092915050565b8183823760009101908152919050565b60208082526025908201527f455243313135353a207472616e7366657220746f20746865207a65726f206164604082015264647265737360d81b606082015260800190565b6020808252602a908201527f455243313135353a20696e73756666696369656e742062616c616e636520666f60408201526939103a3930b739b332b960b11b606082015260800190565b600082198211156139f3576139f36136a7565b500190565b604081526000613a0b604083018561325b565b8281036020840152613a1d818561325b565b95945050505050565b6020808252602b908201527f496e697469616c697a61626c653a20636f6e7472616374206973206e6f74206960408201526a6e697469616c697a696e6760a81b606082015260800190565b60008251613a83818460208701612ee9565b9190910192915050565b8281526040602082015260006133806040830184612f15565b6001600160a01b0386811682528516602082015260a060408201819052600090613ad29083018661325b565b8281036060840152613ae4818661325b565b90508281036080840152613af88185612f15565b98975050505050505050565b600060208284031215613b1657600080fd5b8151612ee281612eaf565b600060033d1115613b3a5760046000803e5060005160e01c5b90565b600060443d1015613b4b5790565b6040516003193d81016004833e81513d6001600160401b038160248401118184111715613b7a57505050505090565b8285019150815181811115613b925750505050505090565b843d8701016020828501011115613bac5750505050505090565b61390a60208286010187612fa5565b60208082526028908201527f455243313135353a204552433131353552656365697665722072656a656374656040820152676420746f6b656e7360c01b606082015260800190565b6001600160a01b03868116825285166020820152604081018490526060810183905260a060808201819052600090613c3d90830184612f15565b979650505050505050565b634e487b7160e01b600052602160045260246000fdfe46696c65416363657373436f6c6c656374696f6e5570677261646561626c653aa2646970667358221220c2e848aabf8f0175007eda5b2cc8a42b40a4b7238faf363f39990a8787d6c3c264736f6c63430008090033",
  "deployedBytecode": "0x6080604052600436106101ed5760003560e01c8063906571471161010d578063e09314ad116100a0578063f242432a1161006f578063f242432a14610640578063f9aebda014610660578063fa996fae14610691578063fdbd98b0146106b1578063ffa1ad74146106e557600080fd5b8063e09314ad14610586578063e52cb36a146105a6578063e985e9c5146105d7578063ef0eb3871461062057600080fd5b8063b452da84116100dc578063b452da8414610513578063bd85b03914610526578063c83e13b814610553578063cb519d8c1461057357600080fd5b806390657147146104925780639fbc8713146104b2578063a22cb465146104d3578063ae82236c146104f357600080fd5b80634e1273f411610185578063731133e911610154578063731133e9146103f45780637a6cd9cb14610414578063869f75941461044d5780638c0e83491461047b57600080fd5b80634e1273f4146103725780634f558e791461039f5780635bddceab146103bf5780637284e416146103df57600080fd5b806312fde4b7116101c157806312fde4b7146102975780632a55205a146102de5780632eb2c2d61461031d5780634ce748591461033f57600080fd5b8062fdd58e146101f257806301ffc9a71461022557806306fdde03146102555780630e89341c14610277575b600080fd5b3480156101fe57600080fd5b5061021261020d366004612e85565b610716565b6040519081526020015b60405180910390f35b34801561023157600080fd5b50610245610240366004612ec5565b6107ae565b604051901515815260200161021c565b34801561026157600080fd5b5061026a6107bf565b60405161021c9190612f41565b34801561028357600080fd5b5061026a610292366004612f54565b61084e565b3480156102a357600080fd5b507f00000000000000000000000000000000000000000000000000000000000000005b6040516001600160a01b03909116815260200161021c565b3480156102ea57600080fd5b506102fe6102f9366004612f6d565b6109a4565b604080516001600160a01b03909316835260208301919091520161021c565b34801561032957600080fd5b5061033d6103383660046130e8565b610a52565b005b34801561034b57600080fd5b507f00000000000000000000000000000000000000000000000000000000000000006102c6565b34801561037e57600080fd5b5061039261038d366004613191565b610a9e565b60405161021c9190613296565b3480156103ab57600080fd5b506102456103ba366004612f54565b610bc7565b3480156103cb57600080fd5b5061033d6103da3660046132c0565b610bee565b3480156103eb57600080fd5b5061026a610cc0565b34801561040057600080fd5b5061033d61040f3660046132ec565b610cce565b34801561042057600080fd5b5061021261042f36600461334c565b80516020818301810180516101338252928201919093012091525481565b34801561045957600080fd5b50610212610468366004612f54565b6000908152610134602052604090205490565b34801561048757600080fd5b506102126101315481565b34801561049e57600080fd5b5061033d6104ad366004613388565b610d46565b3480156104be57600080fd5b50610135546102c6906001600160a01b031681565b3480156104df57600080fd5b5061033d6104ee366004613409565b610f13565b3480156104ff57600080fd5b5061024561050e366004613440565b610f1e565b61033d6105213660046134a3565b610fed565b34801561053257600080fd5b50610212610541366004612f54565b600090815260c9602052604090205490565b34801561055f57600080fd5b5061026a61056e366004612f54565b611388565b61033d6105813660046134a3565b6113a2565b34801561059257600080fd5b506102456105a13660046134a3565b6115ee565b3480156105b257600080fd5b506102456105c1366004612f54565b6000908152610136602052604090205460ff1690565b3480156105e357600080fd5b506102456105f23660046134fc565b6001600160a01b03918216600090815260986020908152604080832093909416825291909152205460ff1690565b34801561062c57600080fd5b5061024561063b3660046134a3565b6116e5565b34801561064c57600080fd5b5061033d61065b366004613526565b6117ad565b34801561066c57600080fd5b5061024561067b366004612f54565b6101366020526000908152604090205460ff1681565b34801561069d57600080fd5b5061033d6106ac366004613440565b6117f2565b3480156106bd57600080fd5b506102c67f000000000000000000000000000000000000000000000000000000000000000081565b3480156106f157600080fd5b5061026a60405180604001604052806005815260200164181718171960d91b81525081565b60006001600160a01b0383166107865760405162461bcd60e51b815260206004820152602a60248201527f455243313135353a2061646472657373207a65726f206973206e6f742061207660448201526930b634b21037bbb732b960b11b60648201526084015b60405180910390fd5b5060009081526097602090815260408083206001600160a01b03949094168352929052205490565b60006107b9826118f9565b92915050565b61012f80546107cd9061358a565b80601f01602080910402602001604051908101604052809291908181526020018280546107f99061358a565b80156108465780601f1061081b57610100808354040283529160200191610846565b820191906000526020600020905b81548152906001019060200180831161082957829003601f168201915b505050505081565b604051631623433d60e31b81527f0000000000000000000000000000000000000000000000000000000000000000600482015260609073__$51669e1cb9fcb524e61b1b12a5e865aabb$__9063b11a19e89060240160006040518083038186803b1580156108bb57600080fd5b505af41580156108cf573d6000803e3d6000fd5b505050506040513d6000823e601f3d908101601f191682016040526108f791908101906135bf565b604051632b65311f60e11b815230600482015273__$51669e1cb9fcb524e61b1b12a5e865aabb$__906356ca623e9060240160006040518083038186803b15801561094157600080fd5b505af4158015610955573d6000803e3d6000fd5b505050506040513d6000823e601f3d908101601f1916820160405261097d91908101906135bf565b60405160200161098e929190613640565b6040516020818303038152906040529050919050565b60008281526066602090815260408083208151808301909252546001600160a01b038116808352600160a01b9091046001600160601b0316928201929092528291610a195750604080518082019091526065546001600160a01b0381168252600160a01b90046001600160601b031660208201525b602081015160009061271090610a38906001600160601b0316876136bd565b610a4291906136dc565b91519350909150505b9250929050565b6001600160a01b038516331480610a6e5750610a6e85336105f2565b610a8a5760405162461bcd60e51b815260040161077d906136fe565b610a978585858585611939565b5050505050565b60608151835114610b035760405162461bcd60e51b815260206004820152602960248201527f455243313135353a206163636f756e747320616e6420696473206c656e677468604482015268040dad2e6dac2e8c6d60bb1b606482015260840161077d565b600083516001600160401b03811115610b1e57610b1e612f8f565b604051908082528060200260200182016040528015610b47578160200160208202803683370190505b50905060005b8451811015610bbf57610b92858281518110610b6b57610b6b61374d565b6020026020010151858381518110610b8557610b8561374d565b6020026020010151610716565b828281518110610ba457610ba461374d565b6020908102919091010152610bb881613763565b9050610b4d565b509392505050565b6000818152610132602052604081208054829190610be49061358a565b9050119050919050565b337f00000000000000000000000000000000000000000000000000000000000000006001600160a01b031614610c545760405162461bcd60e51b815260206004820152600b60248201526a139bdd08185b1b1bddd95960aa1b604482015260640161077d565b612710816001600160601b031610610ca35760405162461bcd60e51b8152602060048201526012602482015271496e76616c69642070657263656e7461676560701b604482015260640161077d565b61013554610cbc9083906001600160a01b031683611b1f565b5050565b61013080546107cd9061358a565b337f00000000000000000000000000000000000000000000000000000000000000006001600160a01b031614610d345760405162461bcd60e51b815260206004820152600b60248201526a139bdd08185b1b1bddd95960aa1b604482015260640161077d565b610d4084848484611c2d565b50505050565b600054610100900460ff1615808015610d665750600054600160ff909116105b80610d805750303b158015610d80575060005460ff166001145b610de35760405162461bcd60e51b815260206004820152602e60248201527f496e697469616c697a61626c653a20636f6e747261637420697320616c72656160448201526d191e481a5b9a5d1a585b1a5e995960921b606482015260840161077d565b6000805460ff191660011790558015610e06576000805461ff0019166101001790555b8251610e1a9061012f906020860190612dd0565b508151610e2f90610130906020850190612dd0565b5061013580546001600160a01b0319166001600160a01b038616179055604080516020810190915260008152610e6490611d52565b610e6c611d85565b610ec86040518060400160405280601f81526020017f46696c65416363657373436f6c6c656374696f6e5570677261646561626c650081525060405180604001604052806005815260200164181718171960d91b815250611dae565b8015610d40576000805461ff0019169055604051600181527f7f26b83ff96e1f2b6a682f133852f6798a09c465da95921460cefb38474024989060200160405180910390a150505050565b610cbc338383611ddf565b600080610fb783610fb17f5f21b314e803189587a545fde5241e6c72dc57e54abeff586b4d60457cc439728735602089013560408a0135610f6560808c0160608d0161377e565b604080516020810196909652850193909352606084019190915260808301526001600160a01b031660a082015260c0015b60405160208183030381529060405280519060200120611ec0565b90611f0e565b6001600160a01b037f00000000000000000000000000000000000000000000000000000000000000008116911614949350505050565b34826060013511156110115760405162461bcd60e51b815260040161077d90613799565b60808201356000908152610136602052604090205460ff161561107e5760405162461bcd60e51b81526020600482015260316024820152600080516020613c5f83398151915260448201527008105b1c9958591e48195e1958dd5d1959607a1b606482015260840161077d565b3361108f60c0840160a0850161377e565b6001600160a01b0316146110eb5760405162461bcd60e51b815260206004820152602f6024820152600080516020613c5f83398151915260448201526e1024a72b20a624a22fa9a2a72222a960891b606482015260840161077d565b6110f582806137d3565b8080601f01602080910402602001604051908101604052809392919081815260200183838082843760009201919091525050604051637b7acf8960e01b815273__$2bb727cc0ef0ded9e2da0b5e05e5e30641$__93637b7acf89935061115f925090600401612f41565b60206040518083038186803b15801561117757600080fd5b505af415801561118b573d6000803e3d6000fd5b505050506040513d601f19601f820116820180604052508101906111af9190613819565b6112075760405162461bcd60e51b81526020600482015260356024820152600080516020613c5f833981519152604482015274040a6d8eace40ccdee4dac2e840dad2e6dac2e8c6d605b1b606482015260840161077d565b61121182826116e5565b6112665760405162461bcd60e51b81526020600482015260326024820152600080516020613c5f83398151915260448201527120494e56414c49445f5349474e415455524560701b606482015260840161077d565b6080820135600090815261013660205260409020805460ff191660011790556112e161129283806137d3565b8080601f0160208091040260200160405190810160405280939291908181526020018383808284376000920191909152506112d7925050506040850160208601613836565b8460400135611f2a565b6060820135156112f4576112f43461211c565b6001600160a01b037f00000000000000000000000000000000000000000000000000000000000000001663b42c0019336040516001600160e01b031960e084901b1681526001600160a01b03909116600482015260016024820152604401600060405180830381600087803b15801561136c57600080fd5b505af1158015611380573d6000803e3d6000fd5b505050505050565b61013260205260009081526040902080546107cd9061358a565b60808201356000908152610136602052604090205460ff16156113fa5760405162461bcd60e51b815260206004820152601060248201526f105b1c9958591e48195e1958dd5d195960821b604482015260640161077d565b348260600135111561141e5760405162461bcd60e51b815260040161077d90613799565b61142882826115ee565b6114685760405162461bcd60e51b8152602060048201526011602482015270494e56414c49445f5349474e415455524560781b604482015260640161077d565b3361147960c0840160a0850161377e565b6001600160a01b03161461149f5760405162461bcd60e51b815260040161077d90613851565b6080820135600090815261013660205260409020805460ff191660011790556001600160a01b037f00000000000000000000000000000000000000000000000000000000000000001663ec7d1fc96114f43390565b61157d611504602087018761388c565b8080602002602001604051908101604052809392919081815260200183836020028082843760009201919091525050883591506115469050604089018961388c565b8080602002602001604051908101604052809392919081815260200183836020028082843760009201919091525061214692505050565b6040516001600160e01b031960e085901b1681526001600160a01b0390921660048301526024820152604401600060405180830381600087803b1580156115c357600080fd5b505af11580156115d7573d6000803e3d6000fd5b50505050606082013515610cbc57610cbc3461211c565b600080610fb783610fb17fab248fd20764e7aaff2889234a247b3c201544ee877b210e3fdd000110ac7064873561162860208a018a61388c565b6040516020016116399291906138d5565b6040516020818303038152906040528051906020012089806040019061165f919061388c565b604051602001611670929190613915565b60408051601f19818403018152919052805160209091012060608b013560808c01356116a260c08e0160a08f0161377e565b6040805160208101989098528701959095526060860193909352608085019190915260a084015260c08301526001600160a01b031660e082015261010001610f96565b600080610fb783610fb17f1ed09372479709e7a08822316dde431383695c5c4a5eb52af91f81af59bce5bc61171a88806137d3565b604051611728929190613941565b60405180910390208860200160208101906117439190613836565b60408a013560608b013560808c013561176260c08e0160a08f0161377e565b6040805160208101989098528701959095526001600160601b039093166060860152608085019190915260a084015260c08301526001600160a01b031660e082015261010001610f96565b6001600160a01b0385163314806117c957506117c985336105f2565b6117e55760405162461bcd60e51b815260040161077d906136fe565b610a97858585858561235e565b6040808301356000908152610136602052205460ff16156118485760405162461bcd60e51b815260206004820152601060248201526f105b1c9958591e48195e1958dd5d195960821b604482015260640161077d565b6118528282610f1e565b6118925760405162461bcd60e51b8152602060048201526011602482015270494e56414c49445f5349474e415455524560781b604482015260640161077d565b336118a3608084016060850161377e565b6001600160a01b0316146118c95760405162461bcd60e51b815260040161077d90613851565b60408083013560009081526101366020908152919020805460ff19166001179055610cbc9083359084013561249a565b60006001600160e01b03198216636cdb3d1360e11b148061192a57506001600160e01b031982166303a24d0760e21b145b806107b957506107b9826124fd565b815183511461199b5760405162461bcd60e51b815260206004820152602860248201527f455243313135353a2069647320616e6420616d6f756e7473206c656e677468206044820152670dad2e6dac2e8c6d60c31b606482015260840161077d565b6001600160a01b0384166119c15760405162461bcd60e51b815260040161077d90613951565b336119d0818787878787612532565b60005b8451811015611ab95760008582815181106119f0576119f061374d565b602002602001015190506000858381518110611a0e57611a0e61374d565b60209081029190910181015160008481526097835260408082206001600160a01b038e168352909352919091205490915081811015611a5f5760405162461bcd60e51b815260040161077d90613996565b60008381526097602090815260408083206001600160a01b038e8116855292528083208585039055908b16825281208054849290611a9e9084906139e0565b9250508190555050505080611ab290613763565b90506119d3565b50846001600160a01b0316866001600160a01b0316826001600160a01b03167f4a39dc06d4c0dbc64b70af90fd698a233a518aa5d07e595d983b8c0526c8f7fb8787604051611b099291906139f8565b60405180910390a4611380818787878787612540565b6127106001600160601b0382161115611b8d5760405162461bcd60e51b815260206004820152602a60248201527f455243323938313a20726f79616c7479206665652077696c6c206578636565646044820152692073616c65507269636560b01b606482015260840161077d565b6001600160a01b038216611be35760405162461bcd60e51b815260206004820152601b60248201527f455243323938313a20496e76616c696420706172616d65746572730000000000604482015260640161077d565b6040805180820182526001600160a01b0393841681526001600160601b0392831660208083019182526000968752606690529190942093519051909116600160a01b029116179055565b6001600160a01b038416611c8d5760405162461bcd60e51b815260206004820152602160248201527f455243313135353a206d696e7420746f20746865207a65726f206164647265736044820152607360f81b606482015260840161077d565b336000611c99856126ab565b90506000611ca6856126ab565b9050611cb783600089858589612532565b60008681526097602090815260408083206001600160a01b038b16845290915281208054879290611ce99084906139e0565b909155505060408051878152602081018790526001600160a01b03808a1692600092918716917fc3d58168c5ae7397731d063d5bbf3d657854427343f4c083240f7aacaa2d0f62910160405180910390a4611d49836000898989896126f6565b50505050505050565b600054610100900460ff16611d795760405162461bcd60e51b815260040161077d90613a26565b611d82816127c0565b50565b600054610100900460ff16611dac5760405162461bcd60e51b815260040161077d90613a26565b565b600054610100900460ff16611dd55760405162461bcd60e51b815260040161077d90613a26565b610cbc82826127f0565b816001600160a01b0316836001600160a01b03161415611e535760405162461bcd60e51b815260206004820152602960248201527f455243313135353a2073657474696e6720617070726f76616c20737461747573604482015268103337b91039b2b63360b91b606482015260840161077d565b6001600160a01b03838116600081815260986020908152604080832094871680845294825291829020805460ff191686151590811790915591519182527f17307eab39ab6107e8899845ad3d59bd9653f200f220920489ca2b5937696c31910160405180910390a3505050565b60006107b9611ecd612831565b8360405161190160f01b6020820152602281018390526042810182905260009060620160405160208183030381529060405280519060200120905092915050565b6000806000611f1d85856128b1565b91509150610bbf816128f4565b6000835111611f6b5760405162461bcd60e51b815260206004820152600d60248201526c115b5c1d1e48199a5b19481a59609a1b604482015260640161077d565b61013383604051611f7c9190613a71565b908152602001604051809103902054600014611fd05760405162461bcd60e51b8152602060048201526013602482015272151bdad95b88185b1c9958591e48195e1a5cdd606a1b604482015260640161077d565b61013154611fdf9060016139e0565b610131819055600081815261013260209081526040909120855161200592870190612dd0565b5080610133856040516120189190613a71565b90815260405190819003602001902055612032818361249a565b610135546001600160a01b03161561205d576101355461205d9082906001600160a01b031685611b1f565b6040805182815260006020820181905291829133917fc3d58168c5ae7397731d063d5bbf3d657854427343f4c083240f7aacaa2d0f62910160405180910390a47fc7d11be9c4384ac178d634a91542b3ed169277be11267808e5b86abd9fc3331281856040516120ce929190613a8d565b60405180910390a1807f6bb7ff708619ba0610cba295a58592e0451dee2622938c8755667688daf3529b6121018361084e565b60405161210e9190612f41565b60405180910390a250505050565b611d827f000000000000000000000000000000000000000000000000000000000000000082612aaf565b600061215183610bc7565b6121945760405162461bcd60e51b8152602060048201526014602482015273151bdad95b88191bd95cc81b9bdd08195e1a5cdd60621b604482015260640161077d565b81518451146121de5760405162461bcd60e51b8152602060048201526016602482015275088d2cccccae4cadce840c2e4e4c2f240d8cadccee8d60531b604482015260640161077d565b60008381526101346020526040902054156122c2576000805b8351811015612237578381815181106122125761221261374d565b60200260200101518261222591906139e0565b915061223081613763565b90506121f7565b506000848152610134602090815260408083205460c99092529091205461225f9083906139e0565b11156122c05760405162461bcd60e51b815260206004820152602a60248201527f43616e2774206d696e74206d6f726520746f6b656e732e204d61782073757070604482015269363c9032bc31b2b2b21760b11b606482015260840161077d565b505b6000805b85518110156123555761231c8682815181106122e4576122e461374d565b6020026020010151868684815181106122ff576122ff61374d565b602002602001015160405180602001604052806000815250611c2d565b83818151811061232e5761232e61374d565b60200260200101518261234191906139e0565b91508061234d81613763565b9150506122c6565b50949350505050565b6001600160a01b0384166123845760405162461bcd60e51b815260040161077d90613951565b336000612390856126ab565b9050600061239d856126ab565b90506123ad838989858589612532565b60008681526097602090815260408083206001600160a01b038c168452909152902054858110156123f05760405162461bcd60e51b815260040161077d90613996565b60008781526097602090815260408083206001600160a01b038d8116855292528083208985039055908a1682528120805488929061242f9084906139e0565b909155505060408051888152602081018890526001600160a01b03808b16928c821692918816917fc3d58168c5ae7397731d063d5bbf3d657854427343f4c083240f7aacaa2d0f62910160405180910390a461248f848a8a8a8a8a6126f6565b505050505050505050565b60008281526101346020908152604091829020548251858152918201529081018290527f7ae3231d7dddaade1dda48d7b7813183e283184fe5521d66f8704feef3521ec69060600160405180910390a16000918252610134602052604090912055565b60006001600160e01b0319821663152a902d60e11b14806107b957506301ffc9a760e01b6001600160e01b03198316146107b9565b611380868686868686612b57565b6001600160a01b0384163b156113805760405163bc197c8160e01b81526001600160a01b0385169063bc197c81906125849089908990889088908890600401613aa6565b602060405180830381600087803b15801561259e57600080fd5b505af19250505080156125ce575060408051601f3d908101601f191682019092526125cb91810190613b04565b60015b61267b576125da613b21565b806308c379a0141561261457506125ef613b3d565b806125fa5750612616565b8060405162461bcd60e51b815260040161077d9190612f41565b505b60405162461bcd60e51b815260206004820152603460248201527f455243313135353a207472616e7366657220746f206e6f6e20455243313135356044820152732932b1b2b4bb32b91034b6b83632b6b2b73a32b960611b606482015260840161077d565b6001600160e01b0319811663bc197c8160e01b14611d495760405162461bcd60e51b815260040161077d90613bbb565b604080516001808252818301909252606091600091906020808301908036833701905050905082816000815181106126e5576126e561374d565b602090810291909101015292915050565b6001600160a01b0384163b156113805760405163f23a6e6160e01b81526001600160a01b0385169063f23a6e619061273a9089908990889088908890600401613c03565b602060405180830381600087803b15801561275457600080fd5b505af1925050508015612784575060408051601f3d908101601f1916820190925261278191810190613b04565b60015b612790576125da613b21565b6001600160e01b0319811663f23a6e6160e01b14611d495760405162461bcd60e51b815260040161077d90613bbb565b600054610100900460ff166127e75760405162461bcd60e51b815260040161077d90613a26565b611d8281612cd0565b600054610100900460ff166128175760405162461bcd60e51b815260040161077d90613a26565b81516020928301208151919092012060fb9190915560fc55565b60006128ac7f8b73c3c69bb8fe3d512ecc4cf759cc79239f7b179b0ffacaa9a75d522b39400f61286060fb5490565b60fc546040805160208101859052908101839052606081018290524660808201523060a082015260009060c0016040516020818303038152906040528051906020012090509392505050565b905090565b6000808251604114156128e85760208301516040840151606085015160001a6128dc87828585612ce3565b94509450505050610a4b565b50600090506002610a4b565b600081600481111561290857612908613c48565b14156129115750565b600181600481111561292557612925613c48565b14156129735760405162461bcd60e51b815260206004820152601860248201527f45434453413a20696e76616c6964207369676e61747572650000000000000000604482015260640161077d565b600281600481111561298757612987613c48565b14156129d55760405162461bcd60e51b815260206004820152601f60248201527f45434453413a20696e76616c6964207369676e6174757265206c656e67746800604482015260640161077d565b60038160048111156129e9576129e9613c48565b1415612a425760405162461bcd60e51b815260206004820152602260248201527f45434453413a20696e76616c6964207369676e6174757265202773272076616c604482015261756560f01b606482015260840161077d565b6004816004811115612a5657612a56613c48565b1415611d825760405162461bcd60e51b815260206004820152602260248201527f45434453413a20696e76616c6964207369676e6174757265202776272076616c604482015261756560f01b606482015260840161077d565b6000826001600160a01b03168260405160006040518083038185875af1925050503d8060008114612afc576040519150601f19603f3d011682016040523d82523d6000602084013e612b01565b606091505b5050905080612b525760405162461bcd60e51b815260206004820181905260248201527f50616964416374696f6e733a20666565207472616e73666572206661696c6564604482015260640161077d565b505050565b6001600160a01b038516612bde5760005b8351811015612bdc57828181518110612b8357612b8361374d565b602002602001015160c96000868481518110612ba157612ba161374d565b602002602001015181526020019081526020016000206000828254612bc691906139e0565b90915550612bd5905081613763565b9050612b68565b505b6001600160a01b0384166113805760005b8351811015611d49576000848281518110612c0c57612c0c61374d565b602002602001015190506000848381518110612c2a57612c2a61374d565b60200260200101519050600060c9600084815260200190815260200160002054905081811015612cad5760405162461bcd60e51b815260206004820152602860248201527f455243313135353a206275726e20616d6f756e74206578636565647320746f74604482015267616c537570706c7960c01b606482015260840161077d565b600092835260c9602052604090922091039055612cc981613763565b9050612bef565b8051610cbc906099906020840190612dd0565b6000807f7fffffffffffffffffffffffffffffff5d576e7357a4501ddfe92f46681b20a0831115612d1a5750600090506003612dc7565b8460ff16601b14158015612d3257508460ff16601c14155b15612d435750600090506004612dc7565b6040805160008082526020820180845289905260ff881692820192909252606081018690526080810185905260019060a0016020604051602081039080840390855afa158015612d97573d6000803e3d6000fd5b5050604051601f1901519150506001600160a01b038116612dc057600060019250925050612dc7565b9150600090505b94509492505050565b828054612ddc9061358a565b90600052602060002090601f016020900481019282612dfe5760008555612e44565b82601f10612e1757805160ff1916838001178555612e44565b82800160010185558215612e44579182015b82811115612e44578251825591602001919060010190612e29565b50612e50929150612e54565b5090565b5b80821115612e505760008155600101612e55565b80356001600160a01b0381168114612e8057600080fd5b919050565b60008060408385031215612e9857600080fd5b612ea183612e69565b946020939093013593505050565b6001600160e01b031981168114611d8257600080fd5b600060208284031215612ed757600080fd5b8135612ee281612eaf565b9392505050565b60005b83811015612f04578181015183820152602001612eec565b83811115610d405750506000910152565b60008151808452612f2d816020860160208601612ee9565b601f01601f19169290920160200192915050565b602081526000612ee26020830184612f15565b600060208284031215612f6657600080fd5b5035919050565b60008060408385031215612f8057600080fd5b50508035926020909101359150565b634e487b7160e01b600052604160045260246000fd5b601f8201601f191681016001600160401b0381118282101715612fca57612fca612f8f565b6040525050565b60006001600160401b03821115612fea57612fea612f8f565b5060051b60200190565b600082601f83011261300557600080fd5b8135602061301282612fd1565b60405161301f8282612fa5565b83815260059390931b850182019282810191508684111561303f57600080fd5b8286015b8481101561305a5780358352918301918301613043565b509695505050505050565b60006001600160401b0382111561307e5761307e612f8f565b50601f01601f191660200190565b600082601f83011261309d57600080fd5b81356130a881613065565b6040516130b58282612fa5565b8281528560208487010111156130ca57600080fd5b82602086016020830137600092810160200192909252509392505050565b600080600080600060a0868803121561310057600080fd5b61310986612e69565b945061311760208701612e69565b935060408601356001600160401b038082111561313357600080fd5b61313f89838a01612ff4565b9450606088013591508082111561315557600080fd5b61316189838a01612ff4565b9350608088013591508082111561317757600080fd5b506131848882890161308c565b9150509295509295909350565b600080604083850312156131a457600080fd5b82356001600160401b03808211156131bb57600080fd5b818501915085601f8301126131cf57600080fd5b813560206131dc82612fd1565b6040516131e98282612fa5565b83815260059390931b850182019282810191508984111561320957600080fd5b948201945b8386101561322e5761321f86612e69565b8252948201949082019061320e565b9650508601359250508082111561324457600080fd5b5061325185828601612ff4565b9150509250929050565b600081518084526020808501945080840160005b8381101561328b5781518752958201959082019060010161326f565b509495945050505050565b602081526000612ee2602083018461325b565b80356001600160601b0381168114612e8057600080fd5b600080604083850312156132d357600080fd5b823591506132e3602084016132a9565b90509250929050565b6000806000806080858703121561330257600080fd5b61330b85612e69565b9350602085013592506040850135915060608501356001600160401b0381111561333457600080fd5b6133408782880161308c565b91505092959194509250565b60006020828403121561335e57600080fd5b81356001600160401b0381111561337457600080fd5b6133808482850161308c565b949350505050565b60008060006060848603121561339d57600080fd5b6133a684612e69565b925060208401356001600160401b03808211156133c257600080fd5b6133ce8783880161308c565b935060408601359150808211156133e457600080fd5b506133f18682870161308c565b9150509250925092565b8015158114611d8257600080fd5b6000806040838503121561341c57600080fd5b61342583612e69565b91506020830135613435816133fb565b809150509250929050565b60008082840360a081121561345457600080fd5b608081121561346257600080fd5b5082915060808301356001600160401b0381111561347f57600080fd5b6132518582860161308c565b600060c0828403121561349d57600080fd5b50919050565b600080604083850312156134b657600080fd5b82356001600160401b03808211156134cd57600080fd5b6134d98683870161348b565b935060208501359150808211156134ef57600080fd5b506132518582860161308c565b6000806040838503121561350f57600080fd5b61351883612e69565b91506132e360208401612e69565b600080600080600060a0868803121561353e57600080fd5b61354786612e69565b945061355560208701612e69565b9350604086013592506060860135915060808601356001600160401b0381111561357e57600080fd5b6131848882890161308c565b600181811c9082168061359e57607f821691505b6020821081141561349d57634e487b7160e01b600052602260045260246000fd5b6000602082840312156135d157600080fd5b81516001600160401b038111156135e757600080fd5b8201601f810184136135f857600080fd5b805161360381613065565b6040516136108282612fa5565b82815286602084860101111561362557600080fd5b613636836020830160208701612ee9565b9695505050505050565b6768747470733a2f2f60c01b815260008351613663816008850160208801612ee9565b602f60f81b6008918401918201528351613684816009840160208801612ee9565b6917bdb4b23e973539b7b760b11b60099290910191820152601301949350505050565b634e487b7160e01b600052601160045260246000fd5b60008160001904831182151516156136d7576136d76136a7565b500290565b6000826136f957634e487b7160e01b600052601260045260246000fd5b500490565b6020808252602f908201527f455243313135353a2063616c6c6572206973206e6f7420746f6b656e206f776e60408201526e195c881b9bdc88185c1c1c9bdd9959608a1b606082015260800190565b634e487b7160e01b600052603260045260246000fd5b6000600019821415613777576137776136a7565b5060010190565b60006020828403121561379057600080fd5b612ee282612e69565b6020808252602c90820152600080516020613c5f83398151915260408201526b08155b99195c9c1c9a58d95960a21b606082015260800190565b6000808335601e198436030181126137ea57600080fd5b8301803591506001600160401b0382111561380457600080fd5b602001915036819003821315610a4b57600080fd5b60006020828403121561382b57600080fd5b8151612ee2816133fb565b60006020828403121561384857600080fd5b612ee2826132a9565b6020808252602d90820152600080516020613c5f83398151915260408201526c102bb937b7339039b2b73232b960991b606082015260800190565b6000808335601e198436030181126138a357600080fd5b8301803591506001600160401b038211156138bd57600080fd5b6020019150600581901b3603821315610a4b57600080fd5b60008184825b8581101561390a576001600160a01b036138f483612e69565b16835260209283019291909101906001016138db565b509095945050505050565b60006001600160fb1b0383111561392b57600080fd5b8260051b80858437600092019182525092915050565b8183823760009101908152919050565b60208082526025908201527f455243313135353a207472616e7366657220746f20746865207a65726f206164604082015264647265737360d81b606082015260800190565b6020808252602a908201527f455243313135353a20696e73756666696369656e742062616c616e636520666f60408201526939103a3930b739b332b960b11b606082015260800190565b600082198211156139f3576139f36136a7565b500190565b604081526000613a0b604083018561325b565b8281036020840152613a1d818561325b565b95945050505050565b6020808252602b908201527f496e697469616c697a61626c653a20636f6e7472616374206973206e6f74206960408201526a6e697469616c697a696e6760a81b606082015260800190565b60008251613a83818460208701612ee9565b9190910192915050565b8281526040602082015260006133806040830184612f15565b6001600160a01b0386811682528516602082015260a060408201819052600090613ad29083018661325b565b8281036060840152613ae4818661325b565b90508281036080840152613af88185612f15565b98975050505050505050565b600060208284031215613b1657600080fd5b8151612ee281612eaf565b600060033d1115613b3a5760046000803e5060005160e01c5b90565b600060443d1015613b4b5790565b6040516003193d81016004833e81513d6001600160401b038160248401118184111715613b7a57505050505090565b8285019150815181811115613b925750505050505090565b843d8701016020828501011115613bac5750505050505090565b61390a60208286010187612fa5565b60208082526028908201527f455243313135353a204552433131353552656365697665722072656a656374656040820152676420746f6b656e7360c01b606082015260800190565b6001600160a01b03868116825285166020820152604081018490526060810183905260a060808201819052600090613c3d90830184612f15565b979650505050505050565b634e487b7160e01b600052602160045260246000fdfe46696c65416363657373436f6c6c656374696f6e5570677261646561626c653aa2646970667358221220c2e848aabf8f0175007eda5b2cc8a42b40a4b7238faf363f39990a8787d6c3c264736f6c63430008090033",
  "libraries": {
    "az09Dash": "0x7DD23108bba2f97a23f875676153583b9e8455a1",
    "ToString": "0x938945Cc5e4aE22F483931a17A55c1F56a26948f",
    "ECDSAUpgradeable": "0x39Dc06B0d8d2925794f764B0E84Ac4e38De2C9a1"
  },
  "devdoc": {
    "kind": "dev",
    "methods": {
      "balanceOf(address,uint256)": {
        "details": "See {IERC1155-balanceOf}. Requirements: - `account` cannot be the zero address."
      },
      "balanceOfBatch(address[],uint256[])": {
        "details": "See {IERC1155-balanceOfBatch}. Requirements: - `accounts` and `ids` must have the same length."
      },
      "exists(uint256)": {
        "details": "Indicates whether any token exist with a given id, or not."
      },
      "isApprovedForAll(address,address)": {
        "details": "See {IERC1155-isApprovedForAll}."
      },
      "royaltyInfo(uint256,uint256)": {
        "details": "Returns how much royalty is owed and to whom, based on a sale price that may be denominated in any unit of exchange. The royalty amount is denominated and should be paid in that same unit of exchange."
      },
      "safeBatchTransferFrom(address,address,uint256[],uint256[],bytes)": {
        "details": "See {IERC1155-safeBatchTransferFrom}."
      },
      "safeTransferFrom(address,address,uint256,uint256,bytes)": {
        "details": "See {IERC1155-safeTransferFrom}."
      },
      "setApprovalForAll(address,bool)": {
        "details": "See {IERC1155-setApprovalForAll}."
      },
      "totalSupply(uint256)": {
        "details": "Total amount of tokens in with a given id."
      }
    },
    "version": 1
  },
  "userdoc": {
    "kind": "user",
    "methods": {},
    "version": 1
  },
  "storageLayout": {
    "storage": [
      {
        "astId": 585,
        "contract": "contracts/TokenizedFiles/FileAccessCollectionUpgradeable.sol:FileAccessCollectionUpgradeable",
        "label": "_initialized",
        "offset": 0,
        "slot": "0",
        "type": "t_uint8"
      },
      {
        "astId": 588,
        "contract": "contracts/TokenizedFiles/FileAccessCollectionUpgradeable.sol:FileAccessCollectionUpgradeable",
        "label": "_initializing",
        "offset": 1,
        "slot": "0",
        "type": "t_bool"
      },
      {
        "astId": 2831,
        "contract": "contracts/TokenizedFiles/FileAccessCollectionUpgradeable.sol:FileAccessCollectionUpgradeable",
        "label": "__gap",
        "offset": 0,
        "slot": "1",
        "type": "t_array(t_uint256)50_storage"
      },
      {
        "astId": 3639,
        "contract": "contracts/TokenizedFiles/FileAccessCollectionUpgradeable.sol:FileAccessCollectionUpgradeable",
        "label": "__gap",
        "offset": 0,
        "slot": "51",
        "type": "t_array(t_uint256)50_storage"
      },
      {
        "astId": 2361,
        "contract": "contracts/TokenizedFiles/FileAccessCollectionUpgradeable.sol:FileAccessCollectionUpgradeable",
        "label": "_defaultRoyaltyInfo",
        "offset": 0,
        "slot": "101",
        "type": "t_struct(RoyaltyInfo)2358_storage"
      },
      {
        "astId": 2366,
        "contract": "contracts/TokenizedFiles/FileAccessCollectionUpgradeable.sol:FileAccessCollectionUpgradeable",
        "label": "_tokenRoyaltyInfo",
        "offset": 0,
        "slot": "102",
        "type": "t_mapping(t_uint256,t_struct(RoyaltyInfo)2358_storage)"
      },
      {
        "astId": 2546,
        "contract": "contracts/TokenizedFiles/FileAccessCollectionUpgradeable.sol:FileAccessCollectionUpgradeable",
        "label": "__gap",
        "offset": 0,
        "slot": "103",
        "type": "t_array(t_uint256)48_storage"
      },
      {
        "astId": 758,
        "contract": "contracts/TokenizedFiles/FileAccessCollectionUpgradeable.sol:FileAccessCollectionUpgradeable",
        "label": "_balances",
        "offset": 0,
        "slot": "151",
        "type": "t_mapping(t_uint256,t_mapping(t_address,t_uint256))"
      },
      {
        "astId": 764,
        "contract": "contracts/TokenizedFiles/FileAccessCollectionUpgradeable.sol:FileAccessCollectionUpgradeable",
        "label": "_operatorApprovals",
        "offset": 0,
        "slot": "152",
        "type": "t_mapping(t_address,t_mapping(t_address,t_bool))"
      },
      {
        "astId": 766,
        "contract": "contracts/TokenizedFiles/FileAccessCollectionUpgradeable.sol:FileAccessCollectionUpgradeable",
        "label": "_uri",
        "offset": 0,
        "slot": "153",
        "type": "t_string_storage"
      },
      {
        "astId": 1973,
        "contract": "contracts/TokenizedFiles/FileAccessCollectionUpgradeable.sol:FileAccessCollectionUpgradeable",
        "label": "__gap",
        "offset": 0,
        "slot": "154",
        "type": "t_array(t_uint256)47_storage"
      },
      {
        "astId": 2162,
        "contract": "contracts/TokenizedFiles/FileAccessCollectionUpgradeable.sol:FileAccessCollectionUpgradeable",
        "label": "_totalSupply",
        "offset": 0,
        "slot": "201",
        "type": "t_mapping(t_uint256,t_uint256)"
      },
      {
        "astId": 2313,
        "contract": "contracts/TokenizedFiles/FileAccessCollectionUpgradeable.sol:FileAccessCollectionUpgradeable",
        "label": "__gap",
        "offset": 0,
        "slot": "202",
        "type": "t_array(t_uint256)49_storage"
      },
      {
        "astId": 3455,
        "contract": "contracts/TokenizedFiles/FileAccessCollectionUpgradeable.sol:FileAccessCollectionUpgradeable",
        "label": "_HASHED_NAME",
        "offset": 0,
        "slot": "251",
        "type": "t_bytes32"
      },
      {
        "astId": 3457,
        "contract": "contracts/TokenizedFiles/FileAccessCollectionUpgradeable.sol:FileAccessCollectionUpgradeable",
        "label": "_HASHED_VERSION",
        "offset": 0,
        "slot": "252",
        "type": "t_bytes32"
      },
      {
        "astId": 3595,
        "contract": "contracts/TokenizedFiles/FileAccessCollectionUpgradeable.sol:FileAccessCollectionUpgradeable",
        "label": "__gap",
        "offset": 0,
        "slot": "253",
        "type": "t_array(t_uint256)50_storage"
      },
      {
        "astId": 5795,
        "contract": "contracts/TokenizedFiles/FileAccessCollectionUpgradeable.sol:FileAccessCollectionUpgradeable",
        "label": "name",
        "offset": 0,
        "slot": "303",
        "type": "t_string_storage"
      },
      {
        "astId": 5797,
        "contract": "contracts/TokenizedFiles/FileAccessCollectionUpgradeable.sol:FileAccessCollectionUpgradeable",
        "label": "description",
        "offset": 0,
        "slot": "304",
        "type": "t_string_storage"
      },
      {
        "astId": 5799,
        "contract": "contracts/TokenizedFiles/FileAccessCollectionUpgradeable.sol:FileAccessCollectionUpgradeable",
        "label": "latestTokenId",
        "offset": 0,
        "slot": "305",
        "type": "t_uint256"
      },
      {
        "astId": 5803,
        "contract": "contracts/TokenizedFiles/FileAccessCollectionUpgradeable.sol:FileAccessCollectionUpgradeable",
        "label": "tokenToFile",
        "offset": 0,
        "slot": "306",
        "type": "t_mapping(t_uint256,t_string_storage)"
      },
      {
        "astId": 5807,
        "contract": "contracts/TokenizedFiles/FileAccessCollectionUpgradeable.sol:FileAccessCollectionUpgradeable",
        "label": "fileToToken",
        "offset": 0,
        "slot": "307",
        "type": "t_mapping(t_string_memory_ptr,t_uint256)"
      },
      {
        "astId": 5811,
        "contract": "contracts/TokenizedFiles/FileAccessCollectionUpgradeable.sol:FileAccessCollectionUpgradeable",
        "label": "_maxSupply",
        "offset": 0,
        "slot": "308",
        "type": "t_mapping(t_uint256,t_uint256)"
      },
      {
        "astId": 5813,
        "contract": "contracts/TokenizedFiles/FileAccessCollectionUpgradeable.sol:FileAccessCollectionUpgradeable",
        "label": "royaltyReceiver",
        "offset": 0,
        "slot": "309",
        "type": "t_address"
      },
      {
        "astId": 5817,
        "contract": "contracts/TokenizedFiles/FileAccessCollectionUpgradeable.sol:FileAccessCollectionUpgradeable",
        "label": "executedMap",
        "offset": 0,
        "slot": "310",
        "type": "t_mapping(t_bytes32,t_bool)"
      }
    ],
    "types": {
      "t_address": {
        "encoding": "inplace",
        "label": "address",
        "numberOfBytes": "20"
      },
      "t_array(t_uint256)47_storage": {
        "base": "t_uint256",
        "encoding": "inplace",
        "label": "uint256[47]",
        "numberOfBytes": "1504"
      },
      "t_array(t_uint256)48_storage": {
        "base": "t_uint256",
        "encoding": "inplace",
        "label": "uint256[48]",
        "numberOfBytes": "1536"
      },
      "t_array(t_uint256)49_storage": {
        "base": "t_uint256",
        "encoding": "inplace",
        "label": "uint256[49]",
        "numberOfBytes": "1568"
      },
      "t_array(t_uint256)50_storage": {
        "base": "t_uint256",
        "encoding": "inplace",
        "label": "uint256[50]",
        "numberOfBytes": "1600"
      },
      "t_bool": {
        "encoding": "inplace",
        "label": "bool",
        "numberOfBytes": "1"
      },
      "t_bytes32": {
        "encoding": "inplace",
        "label": "bytes32",
        "numberOfBytes": "32"
      },
      "t_mapping(t_address,t_bool)": {
        "encoding": "mapping",
        "key": "t_address",
        "label": "mapping(address => bool)",
        "numberOfBytes": "32",
        "value": "t_bool"
      },
      "t_mapping(t_address,t_mapping(t_address,t_bool))": {
        "encoding": "mapping",
        "key": "t_address",
        "label": "mapping(address => mapping(address => bool))",
        "numberOfBytes": "32",
        "value": "t_mapping(t_address,t_bool)"
      },
      "t_mapping(t_address,t_uint256)": {
        "encoding": "mapping",
        "key": "t_address",
        "label": "mapping(address => uint256)",
        "numberOfBytes": "32",
        "value": "t_uint256"
      },
      "t_mapping(t_bytes32,t_bool)": {
        "encoding": "mapping",
        "key": "t_bytes32",
        "label": "mapping(bytes32 => bool)",
        "numberOfBytes": "32",
        "value": "t_bool"
      },
      "t_mapping(t_string_memory_ptr,t_uint256)": {
        "encoding": "mapping",
        "key": "t_string_memory_ptr",
        "label": "mapping(string => uint256)",
        "numberOfBytes": "32",
        "value": "t_uint256"
      },
      "t_mapping(t_uint256,t_mapping(t_address,t_uint256))": {
        "encoding": "mapping",
        "key": "t_uint256",
        "label": "mapping(uint256 => mapping(address => uint256))",
        "numberOfBytes": "32",
        "value": "t_mapping(t_address,t_uint256)"
      },
      "t_mapping(t_uint256,t_string_storage)": {
        "encoding": "mapping",
        "key": "t_uint256",
        "label": "mapping(uint256 => string)",
        "numberOfBytes": "32",
        "value": "t_string_storage"
      },
      "t_mapping(t_uint256,t_struct(RoyaltyInfo)2358_storage)": {
        "encoding": "mapping",
        "key": "t_uint256",
        "label": "mapping(uint256 => struct ERC2981Upgradeable.RoyaltyInfo)",
        "numberOfBytes": "32",
        "value": "t_struct(RoyaltyInfo)2358_storage"
      },
      "t_mapping(t_uint256,t_uint256)": {
        "encoding": "mapping",
        "key": "t_uint256",
        "label": "mapping(uint256 => uint256)",
        "numberOfBytes": "32",
        "value": "t_uint256"
      },
      "t_string_memory_ptr": {
        "encoding": "bytes",
        "label": "string",
        "numberOfBytes": "32"
      },
      "t_string_storage": {
        "encoding": "bytes",
        "label": "string",
        "numberOfBytes": "32"
      },
      "t_struct(RoyaltyInfo)2358_storage": {
        "encoding": "inplace",
        "label": "struct ERC2981Upgradeable.RoyaltyInfo",
        "members": [
          {
            "astId": 2355,
            "contract": "contracts/TokenizedFiles/FileAccessCollectionUpgradeable.sol:FileAccessCollectionUpgradeable",
            "label": "receiver",
            "offset": 0,
            "slot": "0",
            "type": "t_address"
          },
          {
            "astId": 2357,
            "contract": "contracts/TokenizedFiles/FileAccessCollectionUpgradeable.sol:FileAccessCollectionUpgradeable",
            "label": "royaltyFraction",
            "offset": 20,
            "slot": "0",
            "type": "t_uint96"
          }
        ],
        "numberOfBytes": "32"
      },
      "t_uint256": {
        "encoding": "inplace",
        "label": "uint256",
        "numberOfBytes": "32"
      },
      "t_uint8": {
        "encoding": "inplace",
        "label": "uint8",
        "numberOfBytes": "1"
      },
      "t_uint96": {
        "encoding": "inplace",
        "label": "uint96",
        "numberOfBytes": "12"
      }
    }
  }
}