{
  "address": "0x41BE5897aC03431Ee848be5D1bD5b300bd38bc0a",
  "abi": [
    {
      "inputs": [
        {
          "internalType": "bytes32",
          "name": "slug",
          "type": "bytes32"
        }
      ],
      "name": "fromUserTokenSlug",
      "outputs": [
        {
          "internalType": "address",
          "name": "",
          "type": "address"
        }
      ],
      "stateMutability": "pure",
      "type": "function"
    },
    {
      "inputs": [
        {
          "internalType": "bytes32",
          "name": "slug",
          "type": "bytes32"
        }
      ],
      "name": "isValidSlug",
      "outputs": [
        {
          "internalType": "bool",
          "name": "",
          "type": "bool"
        }
      ],
      "stateMutability": "pure",
      "type": "function"
    },
    {
      "inputs": [
        {
          "internalType": "address",
          "name": "contractAddress",
          "type": "address"
        }
      ],
      "name": "toUserTokenSlug",
      "outputs": [
        {
          "internalType": "bytes32",
          "name": "",
          "type": "bytes32"
        }
      ],
      "stateMutability": "pure",
      "type": "function"
    }
  ],
  "transactionHash": "0x0011c37eb99f0bde8e59ab1ee76b9c3658d0b034fae4e498218dcf06c82e3f1d",
  "args": [],
  "numDeployments": 1,
  "solcInputHash": "61800de0b996e61c225c069bfe85132f",
  "bytecode": "0x6101df61003a600b82828239805160001a60731461002d57634e487b7160e01b600052600060045260246000fd5b30600052607381538281f3fe730000000000000000000000000000000000000000301460806040526004361061004b5760003560e01c806339214ab114610050578063520b642e14610080578063fb0f713e146100b1575b600080fd5b61006361005e366004610160565b6100e0565b6040516001600160a01b0390911681526020015b60405180910390f35b6100a361008e366004610179565b60601b6bffffffffffffffffffffffff191690565b604051908152602001610077565b6100d06100bf366004610160565b60a01b6001600160a01b0319161590565b6040519015158152602001610077565b60006100f78260a01b6001600160a01b0319161590565b6101595760405162461bcd60e51b815260206004820152602960248201527f546f6b656e20736c756720646f65736e2774206c6f6f6b206c696b65207573656044820152683913b9903a37b5b2b760b91b606482015260840160405180910390fd5b5060601c90565b60006020828403121561017257600080fd5b5035919050565b60006020828403121561018b57600080fd5b81356001600160a01b03811681146101a257600080fd5b939250505056fea26469706673582212200515dd9a0268188d2e141adaf6166e871425b2174e597811e21245a846b7ec3e64736f6c63430008090033",
  "devdoc": {
    "kind": "dev",
    "methods": {},
    "version": 1
  },
  "userdoc": {
    "kind": "user",
    "methods": {},
    "version": 1
  },
  "storageLayout": {
    "storage": [],
    "types": null
  }
}